:100000000C943E000C945B000C945B000C945B0021
:100010000C94BB140C9481160C94B1140C947F179F
:100020000C945B000C945B000C945B000C945B00E4
:100030000C945B000C947B0A0C945B000C942509D7
:100040000C945B000C945B000C945B000C945B00C4
:100050000C9442140C94F2160C94A7140C945B00AC
:100060000C945B030C945B000C9438570C945B006D
:100070000C945B000C945B000C945B0011241FBE7D
:10008000CFEFD0E1DEBFCDBF11E0A0E0B1E0EAE705
:10009000FFEB02C005900D92AE3CB107D9F714E01A
:1000A000AEECB1E001C01D92A937B107E1F70E94A3
:1000B00088000C94BB5F0C945D001F920F920FB6EA
:1000C0000F9211242F933F934F935F936F937F93DE
:1000D0008F939F93AF93BF93EF93FF93DF93CF9350
:1000E000CDB7DEB78FE00E940712CF91DF91FF916D
:1000F000EF91BF91AF919F918F917F916F915F91A0
:100100004F913F912F910F900FBE0F901F90189518
:10011000DF93CF9300D00F92CDB7DEB7A5E2B0E06A
:10012000E5E2F0E0808180688C93A4E2B0E0E4E254
:10013000F0E0808180688C93A1E2B0E0E1E2F0E041
:10014000808182608C93A2E2B0E0E2E2F0E0808104
:1001500082608C930E946555A8950E941B130E9493
:10016000DA0A0E9480028AE00E943C540E94390709
:10017000A2E2B0E0E2E2F0E0808182608C930E9433
:100180003308A5E5B0E0E5E5F0E080818F7E8C9353
:100190000E9480050E94D00778941A8207C0A89513
:1001A0008AE00E943C548A818F5F8A838A81883CDE
:1001B000B0F3A2E2B0E0E2E2F0E080818D7F8C93C8
:1001C0000E948A340E94683C0E9408460E94EC0605
:1001D0000E94E9050E94A5160E946A190E94760EE7
:1001E0000E94C31B0E944B190E94BD558AE00E94C9
:1001F0003C541B820E94B8050E947C070E9498070D
:100200000E94B4070E9444070E94CD050E94330556
:1002100080E00E94E403A8950E94775C0E94C75C7E
:100220000E94A95CAFE6B0E0EFE6F0E0808182607A
:100230008C930E9474080E943328E6E2F0E08081EB
:1002400088232CF10E94005C0E94815A8130D9F4ED
:100250000E94C7040E94E609813049F40E94E958CF
:100260000E9487270E94B35581E00E94921D0E9440
:10027000911380E00E94B31D81E00E94652181E01E
:100280000E94842102C00E945A29A895CBCF0E94C7
:10029000A05C0E94815A813009F051C019820E94ED
:1002A000C7040E94D148A8950E9415150E94E6092E
:1002B000813001F50E94831D813029F480E00E9485
:1002C000921D0E9455200E94E9580E94BD090E947B
:1002D000E0250E94BD090E946D200E9423260E94F5
:1002E00087270E94BB260E94A02589830E9415159E
:1002F0000E94B3550E94CB20813019F40E949025B2
:1003000019C089818130B1F00E94F422823090F4CA
:100310000E94A321813071F00E945723813051F057
:100320000E94D423813031F00E947C24813011F06E
:100330000E9431250E94FF170E946B4F73CF0E94CD
:100340002615813059F4AFE6B0E0EFE6F0E08081A9
:100350008D7F8C930E94D91C0E949E7F0E949A3BA5
:100360000E945A295FCFDF93CF93CDB7DEB70E94AB
:10037000EC06A4E2B0E0E4E2F0E0808188608C93D7
:10038000A5E2B0E0E5E2F0E08081877F8C93A1E216
:10039000B0E0E1E2F0E0808182608C93A2E2B0E024
:1003A000E2E2F0E080818D7F8C93A4E2B0E0E4E2B1
:1003B000F0E0808180688C93A5E2B0E0E5E2F0E0B7
:1003C000808180688C93A1E2B0E0E1E2F0E080817E
:1003D0008B7F8C93A2E2B0E0E2E2F0E080818B7F41
:1003E0008C93AAE2B0E0EAE2F0E080818F7E8C9309
:1003F000ABE2B0E0EBE2F0E080818F7E8C93AAE28A
:10040000B0E0EAE2F0E080818F7B8C93ABE2B0E079
:10041000EBE2F0E080818F7B8C93AAE2B0E0EAE22D
:10042000F0E080818F7D8C93ABE2B0E0EBE2F0E016
:1004300080818F7D8C93AAE2B0E0EAE2F0E08081D7
:1004400088608C93ABE2B0E0EBE2F0E08081877FE4
:100450008C93A4E2B0E0E4E2F0E080818F7D8C93A5
:10046000A5E2B0E0E5E2F0E0808180628C93AAE250
:10047000B0E0EAE2F0E080818D7F8C93ABE2B0E007
:10048000EBE2F0E0808182608C93AAE2B0E0EAE2E5
:10049000F0E080818E7F8C93ABE2B0E0EBE2F0E0A5
:1004A000808181608C93A7E2B0E0E7E2F0E0808198
:1004B00080648C93A8E2B0E0E8E2F0E080818F7B7A
:1004C0008C93A7E2B0E0E7E2F0E080818F778C9335
:1004D000A8E2B0E0E8E2F0E0808180688C93CF9100
:1004E000DF9108952FB7F8949093CF018093CE01B8
:1004F0008095909590930401809303012FBF0895F8
:100500008FEC80937E0010927B008EE180937A00C6
:100510000895EAE7F0E08081806880830895EAE743
:10052000F0E080818F7780830895909178008091AA
:100530007900382F20E0290F311DC90108958770F7
:1005400080937C00EAE7F0E08081806480830895F6
:100550001F931FB7F8942091CE013091CF01809165
:10056000030190910401809590952817390779F03F
:100570008BE00E9407128FEF9FEF9093040180930E
:1005800003011092CF011092CE0120E030E01FBF96
:10059000C9011F910895813011F48AEA06C08823A9
:1005A00019F08EE00E94071285E5809302010895FC
:1005B000809102018A3A11F481E00895853511F4A1
:1005C00080E008958EE00E94071285E58093020185
:1005D00080E00895813011F48AEE06C0882319F076
:1005E0008BE00E94071285E18093010108951F931B
:1005F000109105011F3729F11A3D09F04CC00E94E6
:10060000D802813099F480917A00806880937A00D2
:1006100081E00E94EA022B9A8FE78093050182E035
:1006200080937C0080917A00806408C0109305015B
:1006300080E00E94EA0280917A008F7780937A00AE
:1006400038C02B983091780020917900922F80E06B
:10065000830F911D2FB7F8949093CF018093CE0113
:100660008095909590930401809303012FBF809112
:100670007A008F7780937A0080917A0080688093E7
:100680007A008AED8093050180E00E94CB0280E031
:100690000E94EA020EC08AED8093050180E00E946C
:1006A000EA0280917A008F7780937A008EE00E9430
:1006B00007121F9108951F920F920FB60F921124E7
:1006C0002F933F934F935F936F937F938F939F935A
:1006D000AF93BF93EF93FF930E94F702FF91EF91C7
:1006E000BF91AF919F918F917F916F915F914F914A
:1006F0003F912F910F900FBE0F901F9018958091F2
:1007000001018A3E11F481E00895853111F480E001
:1007100008958BE00E94071285E18093010180E03B
:1007200008950E947F0308950E947F0390E0813026
:1007300009F091E0892F0895813011F483E506C016
:10074000882319F08BE00E9407128CEA8093000145
:1007500008950E947F03882321F40E949C030E9435
:10076000F702089580910001833511F481E0089526
:100770008C3A11F480E008958BE00E9407128CEA15
:100780008093000180E00895DF93CF9300D0CDB730
:10079000DEB780910601898389818D3D19F481E05E
:1007A0008A830CC08981823211F41A8207C087E1E2
:1007B0000E94071282E2809306011A828A810F90BA
:1007C0000F90CF91DF910895DF93CF930F92CDB724
:1007D000DEB789838981813021F48DED8093060114
:1007E0000DC08981882321F482E28093060106C02E
:1007F00087E10E94071282E2809306010F90CF9159
:10080000DF910895DF93CF9300D000D0CDB7DEB74E
:10081000809107018B838B818C3E19F481E08C835E
:1008200023C08B81833111F41C821EC0809108018A
:100830008095898389818C3E31F48CEE8093070109
:1008400081E08C8311C08981833129F483E1809315
:1008500007011C8209C01A8283E1809307018CEE94
:10086000809308018A818C838C810F900F900F9068
:100870000F90CF91DF910895DF93CF9300D0CDB744
:10088000DEB78A838A81813019F48CEE898308C0AF
:100890008A81882319F483E1898302C083E18983F3
:1008A00089818093070189818095809308010F9049
:1008B0000F90CF91DF910895DF93CF930F92CDB733
:1008C000DEB7898389818093D00189818095809367
:1008D000090199818AEA892780930A010F90CF91B3
:1008E000DF910895DF93CF9300D000D00F92CDB762
:1008F000DEB78091D0018D83809109018C83809136
:100900000A018B838C8180958C839B818AEA89275D
:100910008B839D818C81981719F48D8189832EC0DA
:100920009D818B81981739F48D8180958093090181
:100930008D81898323C09C818B81981731F48C81B0
:100940008093D0018C81898319C09C818B81982BE5
:100950008D81292F28239C818B818923822B8A8357
:100960008A818093D0018A818095809309019A8140
:100970008AEA892780930A018A81898389810F9075
:100980000F900F900F900F90CF91DF910895DF930C
:10099000CF930F92CDB7DEB70E940204813009F5E4
:1009A000E3E2F0E08081882F90E0807490700097FF
:1009B000A1F40E947204898389818F5F8983898170
:1009C000833338F080E00E945C0480E00E943C04A5
:1009D00028C089810E945C0424C080E00E945C04DD
:1009E00020C0E3E2F0E08081882F90E08074907076
:1009F0000097A1F00E947204898389818F5F8983A7
:100A00008981833338F080E00E945C0481E00E9499
:100A10003C0407C089810E945C0403C080E00E94FE
:100A20005C040F90CF91DF910895DF93CF93CDB702
:100A3000DEB70E940204CF91DF910895DF93CF9338
:100A400000D0CDB7DEB70E9402048983898181304E
:100A500011F41A8202C081E08A838A810F900F907C
:100A6000CF91DF910895DF93CF93CDB7DEB7ABE39E
:100A7000B0E0EBE3F0E0808188608C93A8E6B0E022
:100A8000E8E6F0E0808188608C93A3E7B0E0E3E7DC
:100A9000F0E0808180618C93CF91DF910895DF93A6
:100AA000CF93CDB7DEB7A3E7B0E0E3E7F0E0808116
:100AB0008F7E8C93CF91DF910895DF93CF93CDB745
:100AC000DEB7ABE6B0E0EBE6F0E080818F7D8C93A3
:100AD000CF91DF910895DF93CF93CDB7DEB7A8E62E
:100AE000B0E0E8E6F0E0808181608C93ABE6B0E0B6
:100AF000EBE6F0E0808180628C93CF91DF910895E6
:100B0000DF93CF93CDB7DEB7A3E7B0E0E3E7F0E044
:100B1000808180628C93A8E6B0E0E8E6F0E0808116
:100B200088608C93CF91DF910895DF93CF93CDB7F9
:100B3000DEB7A8E6B0E0E8E6F0E08081877F8C933E
:100B4000CF91DF910895DF93CF93CDB7DEB7A0E6C5
:100B5000B0E0E0E6F0E08081877F8C93A0E6B0E033
:100B6000E0E6F0E080818F7B8C93CF91DF91089558
:100B7000DF93CF93CDB7DEB7A0E5B0E0E0E5F0E0DE
:100B800080818F7B8C93A0E5B0E0E0E5F0E0808190
:100B900080688C93CF91DF910895DF93CF93CDB789
:100BA000DEB7A5E5B0E0E5E5F0E0808180688C93F4
:100BB000CF91DF910895DF93CF93CDB7DEB7A5E551
:100BC000B0E0E5E5F0E080818F778C93CF91DF9105
:100BD0000895DF93CF93CDB7DEB7A5E2B0E0E5E2AD
:100BE000F0E0808180688C93A4E2B0E0E4E2F0E081
:100BF000808180688C93ABE2B0E0EBE2F0E0808132
:100C000081608C93AAE2B0E0EAE2F0E080818E7F1E
:100C10008C93ABE2B0E0EBE2F0E0808182608C93F9
:100C2000AAE2B0E0EAE2F0E080818D7F8C93ABE253
:100C3000B0E0EBE2F0E080818F7D8C93AAE2B0E03F
:100C4000EAE2F0E080818F7D8C93ABE2B0E0EBE2F2
:100C5000F0E0808180648C93AAE2B0E0EAE2F0E008
:100C6000808180648C93A8E2B0E0E8E2F0E08081CB
:100C70008F778C93A7E2B0E0E7E2F0E080818F7796
:100C80008C93A8E2B0E0E8E2F0E080818F7B8C9367
:100C9000A7E2B0E0E7E2F0E0808180648C93ABE211
:100CA000B0E0EBE2F0E08081877F8C93AAE2B0E0D5
:100CB000EAE2F0E0808188608C93A2E2B0E0E2E2B8
:100CC000F0E080818B7F8C93A1E2B0E0E1E2F0E084
:100CD00080818B7F8C93A2E2B0E0E2E2F0E0808141
:100CE000877F8C93A1E2B0E0E1E2F0E08081877F32
:100CF0008C93A2E2B0E0E2E2F0E080818F778C9307
:100D0000A1E2B0E0E1E2F0E080818F778C93A2E293
:100D1000B0E0E2E2F0E080818D7F8C93A1E2B0E070
:100D2000E1E2F0E0808182608C93A5E2B0E0E5E250
:100D3000F0E0808180628C93A4E2B0E0E4E2F0E035
:100D400080818F7D8C93ABE2B0E0EBE2F0E08081BC
:100D500080618C93AAE2B0E0EAE2F0E080818F7ECD
:100D60008C93A5E2B0E0E5E2F0E08081877F8C9390
:100D7000A4E2B0E0E4E2F0E0808188608C93A5E238
:100D8000B0E0E5E2F0E080818F7B8C93A4E2B0E0FC
:100D9000E4E2F0E080818F7B8C93A2E2B0E0E2E2BB
:100DA000F0E080818F7E8C93A1E2B0E0E1E2F0E0A0
:100DB00080818F7E8C93A2E2B0E0E2E2F0E080815D
:100DC0008F7D8C93A1E2B0E0E1E2F0E080818F7D45
:100DD0008C93CF91DF910895DF93CF93CDB7DEB79A
:100DE000E2E2F0E08FEF8083E1E2F0E01082E5E202
:100DF000F0E08FEF8083E4E2F0E01082E8E2F0E0E0
:100E00008FEF8083E7E2F0E01082EBE2F0E08FEF1B
:100E10008083EAE2F0E01082CF91DF910895DF93C2
:100E2000CF93CDB7DEB7A2E2B0E0E2E2F0E080819E
:100E30008D7F8C93A1E2B0E0E1E2F0E080818D7FD4
:100E40008C93CF91DF910895DF93CF93CDB7DEB729
:100E5000A2E2B0E0E2E2F0E080818D7F8C93A1E23B
:100E6000B0E0E1E2F0E0808182608C93CF91DF918D
:100E70000895DF93CF93CDB7DEB70E94EC060E94B2
:100E8000E905CF91DF910895DF93CF93CDB7DEB71A
:100E9000A4E6B0E0E4E6F0E080818F778C93A4E6EE
:100EA000B0E0E4E6F0E0808180648C93A4E6B0E0FA
:100EB000E4E6F0E080818F7D8C93A4E6B0E0E4E688
:100EC000F0E08081877F8C93A4E6B0E0E4E6F0E078
:100ED00080818B7F8C93A4E6B0E0E4E6F0E0808133
:100EE0008E7F8C93A4E6B0E0E4E6F0E080818D7F15
:100EF0008C93CF91DF910895DF93CF93CDB7DEB779
:100F0000A5E4B0E0E5E4F0E080818B7F8C93A5E47C
:100F1000B0E0E5E4F0E080818D7F8C93A5E4B0E063
:100F2000E5E4F0E080818E7F8C93CF91DF9108958E
:100F3000DF93CF93CDB7DEB7A1EBB0E0E1EBF0E00C
:100F400080818B7F8C93A1EBB0E0E1EBF0E08081BE
:100F50008D7F8C93A1EBB0E0E1EBF0E080818E7FA0
:100F60008C93CF91DF910895DF93CF93CDB7DEB708
:100F7000ACE4B0E0ECE4F0E080818F7B8C93CF9127
:100F8000DF910895DF93CF93CDB7DEB7ACEBB0E040
:100F9000ECEBF0E080818B7F8C93CF91DF91089513
:100FA000DF93CF930F92CDB7DEB7EFE5F0E080810E
:100FB0008983F894ABE3B0E0EBE3F0E080818260FA
:100FC0008C93ACE6B0E0ECE6F0E0808180628C933C
:100FD000A8E6B0E0E8E6F0E0808182608C93EFE57F
:100FE000F0E0898180830F90CF91DF910895DF93A6
:100FF000CF930F92CDB7DEB7EFE5F0E08081898324
:10100000F894A8E6B0E0E8E6F0E080818D7F8C936C
:10101000ABE3B0E0EBE3F0E0808182608C93EFE53E
:10102000F0E0898180830F90CF91DF9108959FB781
:10103000F8948093DE0180958093180160931901E4
:10104000609560931A019FBF0895809184009091EC
:10105000850020918400309185008217930708F461
:101060009C01C901089582E08093810080E880930B
:10107000820081E080936F0087E286BB089581E063
:1010800080938100EFE6F0E080818E7F8083808115
:101090008D7F8083089582E080938100EFE6F0E009
:1010A000808181608083089580910B0190910C0173
:1010B0002091D1013091D2018095909582179307AC
:1010C00069F08AE10E9407128FEF9FEF90930C0165
:1010D00080930B011092D2011092D1012091D10185
:1010E0003091D201C90108951F93CF93DF931FB7A9
:1010F000F894209184003091850080918400909133
:101100008500B09908C0EC012817390708F4E901F7
:101110000E9454080FC08091840090918500C09176
:101120008400D09185008C179D0708F4EC010E9483
:10113000540801961FBF9C0140E050E0A9013327ED
:101140002227CE01A0E0B0E0280F391F4A1F5B1F05
:1011500083E0220F331F441F551F8A95D1F7B90131
:10116000CA01DF91CF911F910895EF92FF920F93E3
:101170001F937B018C010E947408E60EF71E081F66
:10118000191F02C00E9474086E157F058007910721
:10119000C8F31F910F91FF90EF900895DF92EF92A7
:1011A000FF920F931F9390E0A0E0B0E0BC01CD014F
:1011B0002BE433E040E050E00E94535F2CE330E04A
:1011C00040E050E00E947E5F79018A01DFB6F8942A
:1011D0000E9454088E0D9F1D9093D4018093D301DB
:1011E0008095909590930E0180930D0181EE8093F0
:1011F0001101DFBE1F910F91FF90EF90DF900895D6
:101200001F931FB7F894863F910580F0805F904050
:101210009093D6018093D50180959095909310017D
:1012200080930F0180EF0E94CE080CC00E94CE0870
:101230001092D6011092D5018FEF9FEF909310017D
:1012400080930F011FBF1F9108951F920F920FB639
:101250000F9211242F933F934F935F936F937F933C
:101260008F939F93AF93BF93CF93DF93EF93FF93AE
:101270000E945408EC012196D093D201C093D10171
:10128000CE018095909590930C0180930B018091F5
:101290000D0190910E012091D3013091D4018095E0
:1012A00090958217930769F08AE10E9407128FEFE9
:1012B0009FEF90930E0180930D011092D401109234
:1012C000D3018091D3019091D401C817D90709F0B7
:1012D00041C080910F01909110012091D501309172
:1012E000D601809590958217930769F08AE10E9454
:1012F00007128FEF9FEF9093100180930F011092D0
:10130000D6011092D501C091D501D091D601209778
:1013100021F48EE1809311011DC0C63FD10568F014
:1013200080EF0E94CE08CE01805F90409093D6015E
:101330008093D5018095909509C08C2F0E94CE088E
:101340001092D6011092D5018FEF9FEF909310016C
:1013500080930F01FF91EF91DF91CF91BF91AF91FA
:101360009F918F917F916F915F914F913F912F91BD
:101370000F900FBE0F901F9018951F931FB7F894F2
:101380009091DA01809113018095981749F08AE1D4
:101390000E9407128FEF809313011092DA0190E000
:1013A0001FBF892F1F910895809111018E3111F473
:1013B00081E00895813E11F480E008958AE10E9461
:1013C000071281EE8093110180E00895809112014F
:1013D0008E3851F0813731F08AE10E94071281E79F
:1013E0008093120180E0089581E78093120181E0EB
:1013F0000895809118019091DE018095891741F040
:101400008AE10E9407128FEF809318011092DE018B
:101410008091DE018093DD0180958093170180919A
:101420001A01909119018095891749F08AE10E946B
:1014300007128BEE80931A0184E180931901809149
:10144000190180931601809580931501089590915C
:1014500014018091DB01891708F047C08091DC01FD
:10146000882301F18130F1F510921401809115016A
:10147000909116018095891749F08AE10E94071220
:101480008BEE8093150184E1809316018091160103
:10149000803520F411981092DC0101C088E280931D
:1014A000DB0123C0109214010E94F90980911701F9
:1014B0009091DD018095891741F08AE10E94071221
:1014C0008FEF809317011092DD019091DD01892F3C
:1014D00081508F3418F7119A81E08093DC0190934A
:1014E000DB0103C081E08093DC01809114018F5FF8
:1014F0008093140108951F920F920FB60F9211243A
:101500001F932F933F934F935F936F937F938F938B
:101510009F93AF93BF93EF93FF938091D8019091E6
:10152000D9018050964A9093D9018093D801909325
:101530008900809388000E942D140E94270A8091C0
:10154000D7018F5F8093D701883210F18EE88093A6
:1015500012011FB7F8949091DA01809113018095E0
:10156000981749F08AE10E9407128FEF80931301C8
:101570001092DA0190E01FBF892F8F5F9FB7F89418
:101580008093DA018095809313019FBF1092D70159
:10159000FF91EF91BF91AF919F918F917F916F914B
:1015A0005F914F913F912F911F910F900FBE0F9020
:1015B0001F90189580E090E020E80FB6F8942093F3
:1015C0006100809361000FBE089590E80FB6F89413
:1015D00090936100809361000FBE08958091E801AF
:1015E000882311F080E008958091EC019091ED0145
:1015F000AC0123E0440F551F2A95E1F7480F591F0E
:101600008091E9019091EA018417950740F4809157
:10161000E9019091EA019A01281B390B06C020913B
:10162000E9013091EA01241B350B80E024363105B5
:1016300008F481E008951F93182F0E94F6135E9816
:1016400085E00E943C541093660085E00E943C5463
:10165000809173008160809373004D99FECF0E944A
:10166000B7160E94791B0E946D178130E1F384E167
:101670000E943C5484E10E943C5484E10E943C540A
:1016800084E10E943C5484E10E943C5484E10E9425
:101690003C5484E10E943C5484E10E943C541F91DC
:1016A00008955F926F927F928F929F92AF92BF92B6
:1016B000CF92DF92EF92FF920F931F93CF93DF931E
:1016C0008FB7F89450907300109273008FBF0E94F0
:1016D000CC160E94B7169FB7F8946090C100809115
:1016E000C1008F778093C1008091C1008F7B809370
:1016F000C1008091C10080628093C10070906F0032
:1017000010926F008090730090906D00A0906C001C
:10171000B0906B001092730010926D0010926C00EC
:1017200010926B0080917300816080937300C09071
:101730007A0080917A00877F80937A009FBF0E9411
:101740000D1400E0CFEFDFEF1FE7B0ECEB2EB6E0BB
:10175000FB2E812F0E941B0B8091E801882309F04A
:1017600046C08091EC019091ED01AC01A3E0440FE3
:10177000551FAA95E1F7480F591F8091E9019091F3
:10178000EA018417950740F48091E9019091EA01FC
:101790009A01281B390B06C02091E9013091EA011A
:1017A000241B350B2436310510F58091E901909109
:1017B000EA01805C964038F08091E9019091EA015D
:1017C000805C964008C08091E9019091EA01970100
:1017D000281B390BC9018C179D0710F4012FEC0150
:1017E0008091E9019091EA01805C964028F0A895EB
:1017F0001450133009F0ADCF002309F463C0FAEFA1
:10180000DF2ED00E802F8A5F87FF02C01FE753C0F4
:10181000182F51C0812F0E941B0B8091E801882353
:1018200009F046C08091EC019091ED01AC01E3E03C
:10183000440F551FEA95E1F7480F591F8091E901C0
:101840009091EA018417950740F48091E901909105
:10185000EA019A01281B390B06C02091E901309159
:10186000EA01241B350B2436310510F58091E9017E
:101870009091EA01805C964038F08091E901909166
:10188000EA01805C964008C08091E9019091EA01EC
:101890009701281B390BC9018C179D0710F4012FE4
:1018A000EC018091E9019091EA01805C964050F052
:1018B000A895115004C070ECE72E76E0F72ED116F3
:1018C00008F4A8CF802F81508C3728F4DD24EE2433
:1018D000EA94FE2CC2C0DD24EE24EA94FE2C10E82B
:1018E000C0ECD6E0812F0E941B0B8091E801882379
:1018F00009F047C08091EC019091ED01AC0163E0EB
:10190000440F551F6A95E1F7480F591F8091E9016F
:101910009091EA018417950740F48091E901909134
:10192000EA019A01281B390B06C02091E901309188
:10193000EA01241B350B2436310518F58091E901A5
:101940009091EA01815C964048F48091E901909180
:10195000EA019E01281B390BC90106C08091E901EB
:101960009091EA01805C96403FEF8F3F930711F022
:10197000D12E7C018091E9019091EA01815C964031
:1019800028F4A8951C5F1C3F09F0ACCFDD2009F4BA
:1019900061C08D2D86500D2D0A5F87FD02C010E8B5
:1019A00054C0182F52C0812F0E941B0B8091E80158
:1019B000882309F047C08091EC019091ED01AC01C2
:1019C00033E0440F551F3A95E1F7480F591F8091B6
:1019D000E9019091EA018417950740F48091E901AB
:1019E0009091EA019A01281B390B06C02091E90168
:1019F0003091EA01241B350B2436310518F580910E
:101A0000E9019091EA01805C964038F08091E9010B
:101A10009091EA01805C964008C08091E901909124
:101A2000EA019E01281B390BC9013FEF8F3F930745
:101A300011F0D12E7C018091E9019091EA01815C45
:101A4000964040F4A8951F5F02C0C0ECD6E0101786
:101A500008F4A9CF00E0CFEFDFEF0E9421148FB789
:101A6000F8946092C10070926F008092730090921F
:101A70006D00A0926C00B0926B00C0927A008FBF94
:101A80000E94CC168FB7F894509273008FBFCE157A
:101A9000DF0528F4E29770F40093660006C032E395
:101AA000E316F10438F4D092660085E00E943C54BD
:101AB00081E007C084E68093660085E00E943C5484
:101AC00080E0DF91CF911F910F91FF90EF90DF9019
:101AD000CF90BF90AF909F908F907F906F905F90CE
:101AE00008954F925F926F927F928F929F92AF92E2
:101AF000BF92CF92DF92EF92FF920F931F93CF93FB
:101B0000DF93F09066008FB7F894409073001092C6
:101B100073008FBF0E94CC160E94B7169FB7F8942F
:101B20005090C1008091C1008F778093C100809157
:101B3000C1008F7B8093C1008091C100806280933F
:101B4000C10060906F0010926F00709073008090E1
:101B50006D0090906C00A0906B001092730010923A
:101B60006D0010926C0010926B0080917300816088
:101B700080937300B0907A0080917A00877F809381
:101B80007A009FBF0E940D141F2D13501B3F20F49D
:101B90008F2D8D57863050F40E94510B813009F003
:101BA00064C000916600C0E0D0E062C043E0E42E73
:101BB000EF0C00E0CFEFDFEF30ECC32E36E0D32E9A
:101BC00050C0812F0E941B0B8091E801882309F0EF
:101BD00046C08091EC019091ED01AC0123E0440FEF
:101BE000551F2A95E1F7480F591F8091E9019091FF
:101BF000EA018417950740F48091E9019091EA0188
:101C00009A01281B390B06C02091E9013091EA01A5
:101C1000241B350B2436310510F58091E901909194
:101C2000EA01805C964038F08091E9019091EA01E8
:101C3000805C964008C08091E9019091EA0196018C
:101C4000281B390BC9018C179D0710F4012FEC01DB
:101C50008091E9019091EA01815C964048F4A89551
:101C60001F5F1E1508F4ADCF03C000E0CFEFDFEF1C
:101C70000E9421148FB7F8945092C10060926F00B7
:101C80007092730080926D0090926C00A0926B0035
:101C9000B0927A008FBF0E94CC168FB7F894409212
:101CA00073008FBFE29738F40093660085E00E94CE
:101CB0003C5481E00AC00E94510B813031F0F09217
:101CC000660085E00E943C5480E0DF91CF911F9137
:101CD0000F91FF90EF90DF90CF90BF90AF909F90CB
:101CE0008F907F906F905F904F9008951F9380E04A
:101CF00090E00E9426108130B1F480E090E00E94D4
:101D0000D50F182F8093660085E00E943C540E94F6
:101D1000710D813029F480916600811739F109C075
:101D20001093660023C00E94510B8130B1F4809162
:101D300066008091660060E070E00E944D0F109197
:101D40006600612F8FEF97E00E94187C1095612F3D
:101D50008EEF97E00E94187C09C084E680936600AD
:101D600085E00E943C5487E00E9407121F9108956D
:101D7000DF93CF93CDB7DEB7CF91DF9108958091F8
:101D80006C02089580E090E02FEFA895F999FECFBE
:101D9000F999FECF1FBA92BD81BD20BD0FB6F89450
:101DA000FA9AF99A0FBEF999FECF019638E0803081
:101DB000930759F70895F999FECFF999FECF92BD8F
:101DC00081BDF89A80B5F999FECF0895F999FECFB3
:101DD000F999FECF1FBA92BD81BD60BD0FB6F894D0
:101DE000FA9AF99A0FBEF999FECF81E00895DC01C5
:101DF000FB0120E030E010C0F999FECFF999FECF49
:101E0000C9018A0F9B1F92BD81BDF89A80B5F999CF
:101E1000FECF81932F5F3F4F241770F381E0089529
:101E2000DC01FB0120E030E016C05081F999FECFC3
:101E3000F999FECF1FBAC9018A0F9B1F92BD81BDC0
:101E400050BD0FB6F894FA9AF99A0FBEF999FECFE1
:101E50002F5F3F4F3196241740F381E00895DF93C1
:101E6000CF9300D00F92CDB7DEB719821A821B82B2
:101E70009C01220F331F280F391F220F331F43E00D
:101E8000BE016F5F7F4FC90103960E94100F0F9034
:101E90000F900F90CF91DF9108958F929F92AF9204
:101EA000BF92CF92DF92EF92FF920F931F93DF9337
:101EB000CF9300D000D000D0CDB7DEB78B0189839F
:101EC00080958A836E010894C11CD11CC6010E94B2
:101ED0004A1081E00435180728F080E00E940712BC
:101EE00080E050C07801EE0CFF1CE00EF11EEE0CFD
:101EF000FF1C73E0A72EB12CAE0CBF1C10E04601F6
:101F000064E0C62ED12CCC0EDD1E43E0B401C50129
:101F10000E94100F082F43E0B601C5010E94F70E82
:101F2000C6010E94DE118C8180959D81981709F46D
:101F300001E01F5F133011F0002339F310E05E0160
:101F40000894A11CB11C54E0C52ED12CCC0EDD1E72
:101F500043E0B501C7010E94100F082F43E0B6010E
:101F6000C7010E94F70EC6010E94DE118C81809588
:101F70009D81981709F401E01F5F133011F00023D1
:101F800039F381E026960FB6F894DEBF0FBECDBFC1
:101F9000CF91DF911F910F91FF90EF90DF90CF9045
:101FA000BF90AF909F908F900895CF92DF92EF9265
:101FB000FF920F931F93DF93CF9300D000D000D0F8
:101FC000CDB7DEB76C017C01EE0CFF1CE80EF91EEC
:101FD000EE0CFF1C43E08E010F5F1F4FB801C701DD
:101FE0000E94F70EC8010E94DE110981902F909582
:101FF0008A818917D9F08E010C5F1F4F43E0B80129
:10200000C70103960E94F70EC8010E94DE110C81E1
:10201000902F90958D81891729F080E00E940712FA
:1020200000E004C0B601802F0E944D0F802F26963D
:102030000FB6F894DEBF0FBECDBFCF91DF911F91D9
:102040000F91FF90EF90DF90CF900895FF920F9344
:102050001F938C0180E00E949F12F82E80E00E9466
:102060005712C8010E94D50F082F80E00E949F12CE
:10207000882311F000E003C000936C0201E081E0CE
:10208000F81619F080E00E945712802F1F910F91CF
:10209000FF900895FC018181828320812183422F5A
:1020A00050E0407850705595479555954795822F4B
:1020B00090E080749070A3E095958795AA95E1F7DC
:1020C000480F822F90E08072907073E0959587950D
:1020D0007A95E1F7480F822F90E08071907063E06D
:1020E000959587956A95E1F7480F40832A7D022EE2
:1020F00022952025022E26952695202530E02F5F5B
:102100003F4F3595279520FF02C04068408381816D
:10211000867B082E82958025082E869586958025BB
:1021200090E001969595879580FF03C0808180643B
:10213000808381818177082E82958025082E86955F
:102140008695802590E001969595879580FF03C040
:1021500080818061808381818F70082E82958025A7
:10216000082E86958695802590E001969595879511
:1021700080FF03C0808181608083818190E0A4E042
:10218000880F991FAA95E1F7228130E020783070FE
:1021900076E0359527957A95E1F7280F218382819E
:1021A0008A7D082E82958025082E86958695802525
:1021B00090E001969595879580FF02C02860218365
:1021C0008281867B082E82958025082E86958695AD
:1021D000802590E001969595879580FF03C08181C9
:1021E0008460818382818177082E82958025082EE4
:1021F00086958695802590E001969595879580FF38
:1022000003C08181816081832281422F4F70842F9E
:10221000082E82958025082E86958695802590E04B
:1022200001969595879530E080FF07C0220F331FF8
:10223000822F807E840F806106C0220F331F822F81
:10224000807E840F8F7E82830895DC016C91462FFF
:1022500050E011967C9111979A012A723070359551
:102260002795872F807A820F082E82958025082E49
:1022700086958695802590E001969595879580FFB7
:1022800002C0E0E801C0E0E09A01267230703595A6
:102290002795872F8076820F082E82958025082E1D
:1022A00086958695802590E001969595879580FD89
:1022B000E064362F3E70872F8071830F082E829541
:1022C0008025082E86958695802590E00196959527
:1022D000879580FDE062872F807F082E829580257C
:1022E000082E86958695802590E001969595879590
:1022F00080FDE061CA01807C907024E0959587950F
:102300002A95E1F74071507093E0559547959A955D
:10231000E1F7840F262F2170820F8E0F282F229530
:10232000207F2827207F61F4932F990F990F990F11
:102330006072660F660F960F72957F70970F3CC0A4
:10234000203859F1203449F1203239F1203129F176
:10235000203C11F480E203C0203A21F488E0682791
:102360006C931BC0203611F484E0F9CF203E11F4A9
:1023700082E0F5CF203911F470580CC0203511F4EB
:1023800080E407C0203D11F480E203C0203329F42B
:1023900080E1782711967C9311978C91982F9E70ED
:1023A000990F990F990F8072880F880F980F1196C7
:1023B0008C9182958F70980F892F08950F931F939A
:1023C0008C010E942511F8018193D80111969C91EE
:1023D00011979295907F12968C91129782958F709B
:1023E000980F11969C93119712968C91129790E0EA
:1023F00024E0880F991F2A95E1F712968C93CF015C
:102400000E942511F80181831F910F910895DF9398
:10241000CF9300D000D00F92CDB7DEB78B838B81E6
:10242000882321F08B810E949F1289838B818032C7
:10243000B0F58B81882F90E0887F9D838C838C8181
:102440009D8199232CF48C819D8107969D838C839B
:102450008C819D819595879595958795959587957F
:102460008A838A81482F50E08A81882F90E0FC017E
:10247000E359FD4F8081682F8B81882F90E09C016C
:102480002770307081E090E0022E02C0880F991F03
:102490000A94E2F7862BFA01E359FD4F80830F90EF
:1024A0000F900F900F900F90CF91DF910895DF93D1
:1024B000CF9300D000D0CDB7DEB78A838A81803237
:1024C000B8F58A81882F90E0887F9C838B838B81ED
:1024D0009C8199232CF48B819C8107969C838B8310
:1024E0008B819C81959587959595879595958795F1
:1024F00089838981482F50E08981882F90E0FC01F1
:10250000E359FD4F8081682F8A81882F90E09C01DC
:102510002770307081E090E0022E02C0880F991F72
:102520000A94E2F780958623FA01E359FD4F8083F0
:102530000F900F900F900F90CF91DF910895DF9340
:10254000CF9300D000D00F92CDB7DEB78A838A81B7
:10255000803218F041E04B8336C08A81882F90E0AA
:10256000887F9D838C838C819D81992334F44C8159
:102570005D81495F5F4F5D834C838C819D81959523
:102580008795959587959595879589838981882FD6
:1025900090E0FC01E359FD4F8081282F30E08A81D3
:1025A000882F90E087709070A90102C055954795DB
:1025B0008A95E2F7CA0181709070882319F051E082
:1025C0005B8301C01B828B810F900F900F900F9047
:1025D0000F90CF91DF910895DF93CF9300D000D07B
:1025E000CDB7DEB71B821A82198212C08981882F6B
:1025F00090E0FC01E359FD4F8081282F30E08A8173
:102600009B81820F931F9B838A8389818F5F89833C
:102610008981843058F38A819B81009711F01C8254
:1026200002C081E08C838C810F900F900F900F90EF
:10263000CF91DF910895DF93CF930F92CDB7DEB79F
:1026400019820AC08981882F90E0FC01E359FD4F6F
:10265000108289818F5F89838981843098F30F90FC
:10266000CF91DF9108958091E0019091DF01891B66
:102670008F7308959091E0019F5F9093E001909196
:10268000E0019F739093E001E091E001F0E0EF54EE
:10269000FD4F80839091E0018091DF01981769F4EC
:1026A0008091DF018F5F8093DF018091DF018F7365
:1026B0008093DF0181E08093E10108959091E00132
:1026C0008091DF01981711F480E008958091DF0177
:1026D0008F5F8093DF018091DF018F738093DF0133
:1026E000E091DF01F0E0EF54FD4F8081089580918B
:1026F000E0019091DF01891B80958F730895E82F89
:102700002091DF019091E0018091DF01981711F491
:1027100080E00895E20FEF73F0E0EF54FD4F808109
:1027200008951092DF011092E0011092E1010895E6
:102730008091E3019091E201891B8F73089590913C
:10274000E3019F5F9093E3019091E3019F73909366
:10275000E301E091E301F0E0EF58FD4F80839091B9
:10276000E3018091E201981769F48091E2018F5FA3
:102770008093E2018091E2018F738093E20181E016
:102780008093E40108959091E3018091E20198170C
:1027900011F480E008958091E2018F5F8093E2015F
:1027A0008091E2018F738093E201E091E201F0E019
:1027B000EF58FD4F808108958091E3019091E201EF
:1027C000891B80958F730895E82F2091E2019091E5
:1027D000E3018091E201981711F480E00895E20F7F
:1027E000EF73F0E0EF58FD4F808108951092E20101
:1027F0001092E3011092E40108958091E801089598
:102800008091E801813019F420E030E004C020918B
:10281000E9013091EA01C9010895E1ECF0E080811D
:102820008860808380818F7E8083DB9AE8E6F0E099
:10283000808188608083E3E7F0E08081816080832D
:102840000895E3E7F0E080818E7F8083DB9AE1ECFE
:10285000F0E0808180618083089580911C018E3733
:1028600028F480911C018F5F80931C0108951092C1
:102870001C01089580911C0190E08E3708F091E0D2
:10288000892F08951F920F920FB60F9211248F93E4
:102890009F93EF93FF939091C6008091E3018F5F28
:1028A0008093E3018091E3018F738093E301E091D2
:1028B000E301F0E0EF58FD4F90839091E3018091A8
:1028C000E201981769F48091E2018F5F8093E20141
:1028D0008091E2018F738093E20181E08093E401B3
:1028E0008091E3019091E201891B8F73883308F096
:1028F0005E9A10921C01FF91EF919F918F910F9022
:102900000FBE0F901F9018959091E3018091E20106
:10291000981711F4E0E010C08091E2018F5F80937E
:10292000E2018091E2018F738093E201E091E20184
:10293000F0E0EF58FD4FE0818091E3019091E201DA
:10294000891B8F738D3008F45E988E2F08951F9227
:102950000F920FB60F9211240F900FBE0F901F9081
:1029600018951F920F920FB60F9211240F900FBE61
:102970000F901F9018951F920F920FB60F9211246F
:102980000F900FBE0F901F901895E82F3FB7F89447
:102990002091DF019091E0018091DF01981711F4FF
:1029A00080E006C0E20FEF73F0E0EF54FD4F80814E
:1029B0003FBF08959FB7F8948091E0012091DF0117
:1029C0009FBF821B8F7308959FB7F8948091E30196
:1029D0002091E2019FBF821B8F730895DF93CF93F5
:1029E0000F92CDB7DEB78091B10289838FB7F8948B
:1029F000E091E0013091DF018FBF4FB7F894209153
:102A0000DF019091E0018091DF01981711F480E0DF
:102A100007C0E31BE20FEF73F0E0EF54FD4F80813E
:102A20004FBF0F90CF91DF9108952FB7F8949091F9
:102A3000E0018091DF012FBF981B9F7380E4891B09
:102A40008093E70108958091E70108950E9415059C
:102A5000882309F453C18FB7F8949091E3019091C2
:102A6000E2018FBF2FB7F8948091E3019091E201CA
:102A70002FBF891B8F73813108F440C13FB7F89491
:102A8000E091E2019091E3018091E201981709F44D
:102A900013C1EF73F0E0EF58FD4F8081863409F0E9
:102AA0000BC1E091E2019091E3018091E20198175E
:102AB00009F402C1EF5FEF73F0E0EF58FD4F808142
:102AC0008C3409F0F9C0E091E2019091E30180912A
:102AD000E201981709F4F0C0EE5FEF73F0E0EF58F1
:102AE000FD4F8081813409F0E7C0E091E2019091CF
:102AF000E3018091E201981709F4DEC0ED5FEF7306
:102B0000F0E0EF58FD4F8081833509F0D5C0E091AA
:102B1000E2019091E3018091E201981709F4CCC0A1
:102B2000EC5FEF73F0E0EF58FD4F8081883409F0DF
:102B3000C3C0E091E2019091E3018091E201981716
:102B400009F4BAC0EB5FEF73F0E0EF58FD4F8081FE
:102B5000803209F0B1C0E091E2019091E3018091EF
:102B6000E201981709F4A8C0EA5FEF73F0E0EF58AC
:102B7000FD4F8081853509F09FC0E091E201909181
:102B8000E3018091E201981709F496C0E95FEF73C1
:102B9000F0E0EF58FD4F8081803509F08DC0E09165
:102BA000E2019091E3018091E201981709F484C059
:102BB000E85FEF73F0E0EF58FD4F8081843409F057
:102BC0007BC0E091E2019091E3018091E2019817CE
:102BD00009F472C0E75FEF73F0E0EF58FD4F8081BA
:102BE000813409F069C0E091E2019091E3018091A4
:102BF000E201981709F460C0E65FEF73F0E0EF5868
:102C0000FD4F8081843509F057C0E091E201909139
:102C1000E3018091E201981709F44EC0E55FEF737C
:102C2000F0E0EF58FD4F8081853409F045C0E09118
:102C3000E2019091E3018091E2019817E9F1E45FEC
:102C4000EF73F0E0EF58FD4F80818133A9F5E091FB
:102C5000E2019091E3018091E201981769F1E35F4D
:102C6000EF73F0E0EF58FD4F8081843329F5E09158
:102C7000E2019091E3018091E2019817E9F0E25FAF
:102C8000EF73F0E0EF58FD4F80818234A9F4E091BA
:102C9000E2019091E3018091E201981769F0E15F10
:102CA000EF73F0E0EF58FD4F808120E08B3409F0A6
:102CB00021E081E0282701C020E09091E30180918C
:102CC000E201981781F08091E2018F5F8093E20129
:102CD0008091E2018F738093E201E091E201F0E0E4
:102CE000EF58FD4FE0818091E3019091E201891B53
:102CF0008F738D3008F45E983FBF01C020E0822FB3
:102D000008951F920F920FB60F9211242F933F93A5
:102D10004F935F936F937F938F939F93AF93BF93E3
:102D2000EF93FF930E94B355FF91EF91BF91AF9145
:102D30009F918F917F916F915F914F913F912F91D3
:102D40000F900FBE0F901F9018951092C00088E949
:102D50008093C100E2ECF0E086E0808380831092F3
:102D6000C5008BE08093C4000E94800508951F93E6
:102D70001FB7F8940E943F0881E08093E801109209
:102D8000EA011092E9011092EB011092ED0110920C
:102D9000EC011FBF1F9108951F931FB7F8940E9465
:102DA0004B081092E8011092EA011092E901E3E762
:102DB000F0E080818E7F8083DB9AE1ECF0E080811F
:102DC000806180831FBF1F910895813039F088236F
:102DD00011F480E504C085E10E9407128FEA809318
:102DE0001B0108951F920F920FB60F9211242F937B
:102DF0003F934F935F936F937F938F939F93AF9383
:102E0000BF93EF93FF934D9952C08091E5018823C2
:102E100009F43FC08091C00080648093C00080911D
:102E2000E6018093C6009091E0018091DF01981740
:102E300081F08091DF018F5F8093DF018091DF015E
:102E40008F738093DF01E091DF01F0E0EF54FD4FDD
:102E5000E0818091E0019091DF01891B8F73B1F0D7
:102E6000E091DF019091E0018091DF01981711F46A
:102E7000E0E006C0EF5FEF73F0E0EF54FD4FE0815C
:102E8000E093E60181E08093E50116C01092E50130
:102E900013C01092E5018091C1008F7D8093C10025
:102EA00081E00E94E5168091C100877F03C0809178
:102EB000C1008F7D8093C100FF91EF91BF91AF91D1
:102EC0009F918F917F916F915F914F913F912F9142
:102ED0000F900FBE0F901F90189580911B018F3A95
:102EE00011F481E00895803511F480E0089585E1C2
:102EF0000E9407128FEA80931B0181E008951F92C0
:102F00000F920FB60F9211242F933F934F935F931D
:102F10006F937F938F939F93AF93BF93EF93FF93A1
:102F200020918400309185008091E8018130C9F5BD
:102F30008091EB01882329F43093EF012093EE0177
:102F40000EC08091EB01813081F48091EE0190916F
:102F5000EF01281B390B3093ED012093EC01809198
:102F6000EB018F5F8093EB0139C08091EB018330DF
:102F7000B0F38091EE019091EF01281B390B309353
:102F8000EA012093E9018091EB018F5F8093EB01CF
:102F90001092E801809173008E7F80937300DB9A1A
:102FA0001DC04D9911C00E946D17882391F4809126
:102FB000C10085FD0EC08091C10083FD05C08091D8
:102FC000C10088608093C1008091C10080628093BD
:102FD000C1004C9903C081E00E94E403FF91EF918E
:102FE000BF91AF919F918F917F916F915F914F9121
:102FF0003F912F910F900FBE0F901F9018950F9338
:103000001F930FB7F8940E946D17813009F059C0D3
:103010001091E0018091DF01181B1F730E94671956
:10302000112309F053C04DC08091C1008860809386
:10303000C10080E00E94E5169091E0018091DF01DF
:10304000981711F420E010C08091DF018F5F80930A
:10305000DF018091DF018F738093DF01E091DF0159
:10306000F0E0EF54FD4F20818091E0019091DF016D
:10307000891B8F73B1F0E091DF019091E0018091A5
:10308000DF01981711F4E0E006C0EF5FEF73F0E0A6
:10309000EF54FD4FE081E093E60181E08093E5018C
:1030A00002C01092E5018091C00080648093C0004E
:1030B0002093C6008091C10080628093C10081E0AE
:1030C00001C080E00FBF1F910F9108955E984D9948
:1030D000F8CFAACF8091C00086FD02C080E008959D
:1030E0000E946D1708956093F0017093F101809331
:1030F000F2019093F301609570958095909560939F
:10310000200170932101809322019093230108955F
:103110008091200190912101A0912201B091230181
:1031200080959095A095B0952091F0013091F10196
:103130004091F2015091F30182179307A407B5075C
:10314000B9F086E10E9407128FEF9FEFAFEFBFEF5C
:103150008093200190932101A0932201B093230139
:103160001092F0011092F1011092F2011092F3010D
:103170006091F0017091F1018091F2019091F30161
:103180000895813011F486EA06C0882319F086E19B
:103190000E94071289E580931F01089580911F0105
:1031A000863A11F481E00895893511F480E008959C
:1031B00086E10E94071289E580931F0180E008954F
:1031C000813011F48AE606C0882319F086E10E9456
:1031D000071285E980931E010895FF920F931F93B4
:1031E000082FF62E0E949813182F8F2D90E001962D
:1031F000212F30E08217930744F581E00E94E41309
:10320000801729F5123008F182E00E94E413082F9C
:103210008F15E9F483E00E94E41383E00E94E41335
:10322000813009F080E00E94E01880E00E94C1181F
:103230000E9484140E94841410E003C00E9484142D
:103240001F5F1017D8F381E003C082E001C080E067
:103250001F910F91FF90089580911E018A3611F4FD
:1032600081E00895853911F480E0089586E10E9497
:10327000071285E980931E0180E00895813039F0BE
:10328000882311F48CED04C086E10E94071283E2CA
:1032900080931D01089580E00E943E19469808958C
:1032A00081E00E943E19469A089580911D01833263
:1032B00011F481E008958C3D11F480E0089586E1D9
:1032C0000E94071283E280931D0181E008950E940D
:1032D000551908951F935B9884E10E943C545B9AB2
:1032E0000E9421140E9450195E9810E084E10E940F
:1032F0003C54A8951F5F1035C9F71F910895EF92B0
:10330000FF920F931F930E9474087B018C010E940F
:103310008818E61AF70A080B190BC801B7012CEC3C
:103320003CE140E050E00E947E5FC9011F910F9197
:10333000FF90EF9008950F931F93CF93DF93082F83
:10334000EB01142F18C081E00E943C540E947F19A9
:10335000C817D90740F480E00E94C11880E00E949D
:10336000E01890E012C0612F802F0E94ED18882392
:1033700011F40E9484140E94CE18813021F30E941F
:103380002C1990E0813009F491E0892FDF91CF91E1
:103390001F910F9108950E9474086093F00170933B
:1033A000F1018093F2019093F301609570958095FF
:1033B0009095609320017093210180932201909356
:1033C0002301089581E00E94C11880E00E94E01866
:1033D0000E94CB190E94FF1708951F930E946D173A
:1033E000813011F080E012C01FB7F89483E60E948C
:1033F0003A1382E00E943A1382E00E943A1381E07D
:103400000E943A131FBF0E94E21981E01F910895A4
:103410001F930E946D17813011F080E00CC01FB720
:10342000F89480E50E943A1380E00E943A131FBF8F
:103430000E94E21981E01F9108951F930E946D1769
:10344000813011F080E030C01FB7F8948FED0E94FA
:103450003A138CE00E943A1381E00E943A1381E013
:103460000E943A1380E00E943A138AEC0E943A13B9
:1034700081E00E943A1382E90E943A1380E00E94A0
:103480003A1381E00E943A1380E00E943A1386E1E9
:103490000E943A1380E00E943A1380E00E943A139F
:1034A0001FBF0E94E21981E01F9108951F930E949F
:1034B0006D17813011F080E030C01FB7F8948FEDA8
:1034C0000E943A138CE00E943A1380E00E943A1363
:1034D00081E00E943A1380E00E943A138AEC0E9435
:1034E0003A1381E00E943A1382E90E943A1380E085
:1034F0000E943A1381E00E943A1380E00E943A133E
:1035000086E10E943A1380E00E943A1380E00E9414
:103510003A131FBF0E94E21981E01F9108951F9383
:103520000E946D17813011F080E018C01FB7F89429
:1035300085E60E943A1384E00E943A1381E30E94D8
:103540003A1382E30E943A1383E30E943A1384E31E
:103550000E943A131FBF0E94E21981E01F91089553
:103560001F930E946D17813011F080E036C01FB7A5
:10357000F8948DE10E943A138EE00E943A1385E49C
:103580000E943A1380E70E943A1389E60E943A1398
:1035900081E40E943A1383E60E943A1383E60E9474
:1035A0003A1385E60E943A138CE60E943A138CE6A1
:1035B0000E943A1383E50E943A1385E60E943A136B
:1035C0008EE60E943A1383E70E943A1380E00E943D
:1035D0003A131FBF0E94E21981E01F9108951F93C3
:1035E0000E946D17813011F080E01BC01FB7F89466
:1035F00085E10E943A1385E00E943A1385E00E941B
:103600003A1381E00E943A1380E00E943A1388E066
:103610000E943A1381E00E943A131FBF0E94E219F0
:1036200081E01F9108951F930E946D17813011F062
:1036300080E00FC01FB7F89483E10E943A1381E045
:103640000E943A1382E00E943A131FBF0E94E219BF
:1036500081E01F9108951F930E946D17813011F032
:1036600080E012C01FB7F89485ED0E943A1382E003
:103670000E943A1380E00E943A1384E10E943A13B8
:103680001FBF0E94E21981E01F9108951F930E94BD
:103690006D17813011F080E012C01FB7F89483EDF0
:1036A0000E943A1382E00E943A1380E00E943A138B
:1036B00084E10E943A131FBF0E94E21981E01F912A
:1036C00008951F930E946D17813011F080E00FC0A4
:1036D0001FB7F89483E00E943A1381E00E943A13E6
:1036E00080E00E943A131FBF0E94E21981E01F91FF
:1036F00008951F930E946D17813011F080E018C06B
:103700001FB7F89481E00E943A1384E00E943A13B4
:103710008FEF0E943A1380E00E943A1385E50E94E1
:103720003A138AEA0E943A131FBF0E94E21981E00D
:103730001F910895FF920F931F9312E301E08BE511
:10374000F82E1093660088E20E943C54013019F470
:10375000119800E002C0119A01E00E94FD13882335
:1037600021F40E9400140E94B7160E94791B193C94
:1037700028F084E10E943C54F09266001F5F84E1CF
:103780000E943C54DECF1F930E94791B41E068ECFD
:1037900070E081E00E949B19882381F488EC0E94EC
:1037A0003C540E94791B41E068EC70E081E00E948B
:1037B0009B19882319F482E00E9407120E94611B62
:1037C00041E068EC70E083E00E949B19882381F45B
:1037D00088EC0E943C540E94611B41E068EC70E060
:1037E00083E00E949B19882319F483E00E9407124A
:1037F0000E94131B41E068EC70E083E10E949B197A
:10380000882311F010E00FC088EC0E943C540E9405
:10381000131B41E068EC70E083E10E949B1910E00B
:10382000882309F411E00E94EF1A41E068EC70E08F
:1038300085E10E949B19882371F488EC0E943C5416
:103840000E94EF1A41E068EC70E085E10E949B194C
:10385000882309F411E00E94B01A41E068EC70E09E
:103860008DE10E949B19882371F488EC0E943C54DE
:103870000E94B01A41E068EC70E08DE10E949B1953
:10388000882309F411E00E948F1A41E068EC70E08F
:1038900085E60E949B19882371F488EC0E943C54B1
:1038A0000E948F1A41E068EC70E085E60E949B1947
:1038B000882309F411E00E941D1A41E068EC70E0D1
:1038C0008FED0E949B19882371F488EC0E943C5470
:1038D0000E941D1A41E068EC70E08FED0E949B1978
:1038E000882309F411E00E94461B43E068EC70E075
:1038F00083ED0E949B19882371F488EC0E943C544C
:103900000E94461B43E068EC70E083ED0E949B1927
:10391000882309F411E00E942B1B43E068EC70E05F
:1039200085ED0E949B19882371F488EC0E943C5419
:103930000E942B1B43E068EC70E085ED0E949B1910
:10394000882309F411E00E94ED1941E068EC70E071
:1039500083E60E949B19882371F488EC0E943C54F2
:103960000E94ED1941E068EC70E083E60E949B192B
:10397000882309F411E00E94081A41E068EC70E025
:1039800080E50E949B19882369F488EC0E943C54CE
:103990000E94081A41E068EC70E080E50E949B19E3
:1039A000882311F0113019F488E00E9407121F914A
:1039B00008951F930E941505882309F48EC01FB730
:1039C000F8948AE00E943A1382E50E943A1385E453
:1039D0000E943A1383E40E943A138FE40E943A1340
:1039E0008EE40E943A138EE40E943A1385E40E940A
:1039F0003A1383E40E943A1384E50E943A1380E26A
:103A00000E943A1382E40E943A138CE40E943A1313
:103A100085E50E943A1385E40E943A1384E50E94EA
:103A20003A138FE40E943A1384E50E943A1388E423
:103A30000E943A138AE00E943A131FBF0E94E219C3
:103A40000E94C20E0E9450195E9810E084E10E940C
:103A50003C54A8951F5F1035C9F70E94791B41E0BF
:103A600068EC70E081E00E949B19882381F488EC67
:103A70000E943C540E94791B41E068EC70E081E0B8
:103A80000E949B19882319F482E00E9407120E9469
:103A9000561A41E068EC70E08FED0E949B19882374
:103AA00081F488EC0E943C540E94561A41E068EC74
:103AB00070E08FED0E949B19882319F488E00E9422
:103AC00007120E944B195B9810E08AE00E943C5458
:103AD000A8951F5F1233C9F75B9AA8950E941E052F
:103AE000882369F05B9828E088E190E00FB6F894AD
:103AF000A895809360000FBE20936000FFCF379B96
:103B0000ECCF1F910895809124018F3211F481E050
:103B10000895803D11F480E008958FE280932401A0
:103B200081E00895813021F0882311F480ED01C0F7
:103B30008FE28093240108959093F5018093F4011E
:103B40008095909590932801809327010895809304
:103B5000F60180958093290108958093F70180955F
:103B600080932A0108958093F801809580932C0119
:103B700008959093FA018093F90180959095909320
:103B80002E0180932D0108959093FC018093FB01F9
:103B9000809590959093300180932F010895909394
:103BA000FE018093FD018095909590933201809362
:103BB000310108958093FF01982F909590933301E0
:103BC0009AEA982790933401089580933501982FAD
:103BD0009095909300029AEA982790933601089561
:103BE00080930102982F9095909337019AEA982735
:103BF00090933801089580930202982F90959093A6
:103C000039019AEA982790933A0108958093030224
:103C1000982F909590933B019AEA982790933C01B6
:103C2000089580930402982F909590933D019AEA0D
:103C3000982790933E01089580933F01982F909587
:103C4000909340019AEA982790934101089530910A
:103C50003F0190914001809141019095391749F0C1
:103C60004AEA282F2427321731F4832F8095809336
:103C70004001832F0895921721F490933F01892FDB
:103C80000895822F892B83239223892B80933F01D0
:103C9000982F9095909340014827409341010895B3
:103CA000DF93CF9300D000D00F92CDB7DEB7DE0107
:103CB0001196E2E4F1E095E001900D929150E1F768
:103CC0008E5FFE01E80FF11D81810F900F900F9024
:103CD0000F900F90CF91DF910895EF92FF920F9385
:103CE0001F93F090040210913D0180913E011095C8
:103CF000F11651F09AEAE92E082F0E25F01631F44C
:103D00008F2D809580933D018F2D17C0101721F4C2
:103D100010930402812F11C08DE00E940712802FA2
:103D2000812B8F211023812B80930402982F909553
:103D300090933D01E826E0923E011F910F91FF9084
:103D4000EF900895EF92FF920F931F93F09003026C
:103D500010913B0180913C011095F11651F02AEA37
:103D6000E22E082F0E25F01631F48F2D80958093CA
:103D70003B018F2D17C0101721F410930302812FE0
:103D800011C08DE00E940712802F812B8F211023FC
:103D9000812B80930302982F909590933B01E82606
:103DA000E0923C011F910F91FF90EF900895EF92E8
:103DB000FF920F931F93F0900202109139018091AE
:103DC0003A011095F11651F03AEAE32E082F0E252C
:103DD000F01631F48F2D8095809339018F2D17C007
:103DE000101721F410930202812F11C08DE00E9460
:103DF0000712802F812B8F211023812B80930202A9
:103E0000982F909590933901E826E0923A011F91FE
:103E10000F91FF90EF900895EF92FF920F931F93F1
:103E2000F090010210913701809138011095F11640
:103E300051F04AEAE42E082F0E25F01631F48F2DAA
:103E40008095809337018F2D17C0101721F41093A0
:103E50000102812F11C08DE00E940712802F812B5B
:103E60008F211023812B80930102982F909590939E
:103E70003701E826E09238011F910F91FF90EF90F3
:103E80000895EF92FF920F931F93F09035011091D8
:103E90000002809136011095F11651F05AEAE52E94
:103EA000082F0E25F01631F48F2D80958093000297
:103EB0008F2D17C0101721F410933501812F11C0D9
:103EC0008DE00E940712802F812B8F211023812BE0
:103ED00080933501982F909590930002E826E09208
:103EE00036011F910F91FF90EF900895EF92FF928E
:103EF0000F931F93F090FF011091330180913401D3
:103F00001095F11651F06AEAE62E082F0E25F016EC
:103F100031F48F2D8095809333018F2D17C01017AA
:103F200021F41093FF01812F11C08DE00E94071230
:103F3000802F812B8F211023812B8093FF01982FBD
:103F4000909590933301E826E09234011F910F91F0
:103F5000FF90EF900895809131019091320180950A
:103F600090952091FD013091FE018217930769F031
:103F700088E10E9407128FEF9FEF909332018093A8
:103F800031011092FE011092FD018091FD0190918E
:103F9000FE01089580912F019091300180959095B8
:103FA0002091FB013091FC018217930769F088E1B1
:103FB0000E9407128FEF9FEF9093300180932F01A3
:103FC0001092FC011092FB018091FB019091FC0189
:103FD000089580912D0190912E01809590952091CA
:103FE000F9013091FA018217930769F088E10E9484
:103FF00007128FEF9FEF90932E0180932D01109267
:10400000FA011092F9018091F9019091FA01089555
:1040100080912C0180959091F801891741F088E1F9
:104020000E9407128FEF80932C011092F80180916B
:10403000F8010895813011F488EE06C0882319F044
:1040400088E10E94071287E180932B010895EF9287
:10405000FF920F931F93CF93DF93182F092FF62E04
:104060000E942315F81698F4EFB6F894812F902F3C
:104070009C01E90110E004C089910E943A131F5F7E
:104080001F15D0F3EFBE0E94151581E007C081E037
:104090000E941A208EE10E94071280E0DF91CF91EA
:1040A0001F910F91FF90EF900895DF93CF9300D071
:1040B000CDB7DEB78EEF898381E08A8362E0CE01DF
:1040C00001960E94272090E0813009F491E0892F29
:1040D0000F900F90CF91DF910895FF920F931F9350
:1040E000DF93CF9300D000D00F92CDB7DEB7082F6B
:1040F0000E94271E902F981B9D3338F100933F019B
:10410000F02EF094F09240011AEA1027109341012A
:104110008CEF8983DE01129620E030E0F901E3594B
:10412000FD4F80818D932F5F3F4F24303105B1F7D4
:1041300065E0CE0101960E942720813031F4009382
:104140003F01F0924001109341010F900F900F90AA
:104150000F900F90CF91DF911F910F91FF900895D5
:104160000F931F93082F0E942315823050F01FB722
:10417000F894802F0E943A131FBF0E94151581E00A
:1041800007C081E00E941A208EE10E94071280E0A1
:104190001F910F91089580912B01883E11F481E0C9
:1041A0000895873111F480E0089588E10E94071294
:1041B00087E180932B0180E0089580912A0180950A
:1041C0009091F701891741F088E10E9407128FEF63
:1041D00080932A011092F7018091F70108950E94BF
:1041E000DD20982F882311F480E008951092F701C4
:1041F0008FEF80932A019150892F80680E94B02010
:1042000081E008950E94DD208F5F8F738093F70116
:10421000809580932A01089580912901809590913D
:10422000F601891741F088E10E9407128FEF809311
:1042300029011092F6018091F60108950E940C2147
:104240008F5F8F708093F601809580932901089588
:104250008091270190912801809590952091F401FB
:104260003091F5018217930769F088E10E940712E7
:104270008FEF9FEF90932801809327011092F50113
:104280001092F4018091F4019091F5010895DF936B
:10429000CF9300D0CDB7DEB70E94282101969A8334
:1042A00089838A8183708A8389819A819093F501B9
:1042B0008093F40180959095909328018093270135
:1042C0000F900F90CF91DF910895813039F08823BE
:1042D00011F486EB04C084E10E94071289E4809304
:1042E0002601089580912601893411F481E0089512
:1042F000863B11F480E0089584E10E94071289E46E
:104300008093260181E00895813039F0882311F4EB
:1043100088E904C083E10E94071287E680932501A3
:10432000089580912501873611F481E00895883938
:1043300011F480E0089583E10E94071287E68093DC
:10434000250181E008958F929F92AF92BF92CF9204
:10435000DF92EF92FF920F931F93DF93CF9300D0E2
:1043600000D00F92CDB7DEB70E94165A4C010E94C2
:10437000E91F7401E81AF90AC7010296059708F0C7
:1043800020C10E94BC595C010E94CA1F8501081B04
:10439000190BC8010296059708F013C10E946259D3
:1043A0006C010E94AB1F9601281B390BC9010296B4
:1043B000059708F006C14E2D502F622FEE2009F010
:1043C00048C0002399F4222309F4FBC0DE011196B2
:1043D000E2E4F1E085E001900D928150E1F76E5F3B
:1043E000FE01E60FF11D11811067C6C0CE010196D6
:1043F000222379F4DC01E2E4F1E085E001900D9202
:104400008150E1F75E5FFE01E50FF11D1181146738
:10441000B3C0DC01E2E4F1E085E001900D9281504F
:10442000E1F75E5FCE010196FC01E50FF11DE08131
:10443000EE0FEE0F9C0142E451E085E0DA010D90B1
:10444000AD01D9010D929D018150C1F71E2F10645D
:104450008DC0002399F5CE010196222379F4DC0169
:10446000E2E4F1E085E001900D928150E1F74E5FCA
:10447000FE01E40FF11D118118677EC0DC01E2E44A
:10448000F1E085E001900D928150E1F74E5FCE01A1
:104490000196FC01E40FF11DE081EE0FEE0F9C018F
:1044A00042E451E085E0DA010D90AD01D9010D92B1
:1044B0009D018150C1F71E2F106558C0CE01019695
:1044C000222321F5DC01E2E4F1E085E001900D9288
:1044D0008150E1F74E5FCE010196FC01E40FF11D22
:1044E000E081EE0FEE0F9C0162E471E085E0DB01FC
:1044F0000D90BD01D9010D929D018150C1F71E2F74
:1045000010665E5FFE01E50FF11D34C0DC01E2E4E0
:10451000F1E085E001900D928150E1F74E5FCE0110
:104520000196FC01E40FF11D40814295407FDC01C2
:10453000E2E4F1E085E001900D928150E1F75E5FE9
:10454000CE010196FC01E50FF11DE081EE0FEE0FAB
:104550009C0102E411E085E0D8010D908D01D901A4
:104560000D929D018150C1F71E2F142B6E5FFE012D
:10457000E60FF11D8181182B0E9447219092FA01CC
:104580008092F9018094909490922E0180922D0156
:10459000B092FC01A092FB01A094B094B0923001C3
:1045A000A0922F01D092FE01C092FD01C094D09440
:1045B000D0923201C0923101812F0E94B02081E05F
:1045C00001C080E00F900F900F900F900F90CF914F
:1045D000DF911F910F91FF90EF90DF90CF90BF90F0
:1045E000AF909F908F9008959F92AF92BF92CF927D
:1045F000DF92EF92FF920F931F93CF93DF930E946E
:10460000DD20982E0E94E91F8C010E94165A7C0121
:104610000E94CA1F6C010E94BC595C010E94AB1F22
:10462000EC010E9462590E191F090E5F1F4F0530E1
:10463000110510F5CA18DB0822E030E0C20ED31EC7
:1046400035E0C316D104C0F4C81BD90B22962597B8
:1046500098F40E9447218EE3891520F00E940221E0
:1046600082E019C01092F7018FEF80932A018FEB3F
:104670000E94B02083E00FC0992011F480E00BC0AD
:104680001092F7018FEF80932A019A94892D806808
:104690000E94B02081E0DF91CF911F910F91FF9098
:1046A000EF90DF90CF90BF90AF909F9008956F9262
:1046B0007F928F929F92AF92BF92CF92DF92EF92B2
:1046C000FF920F931F93DF93CF9300D0CDB7DEB748
:1046D0000E94165A6C010E94E91F3601681A790A75
:1046E0000E94BC597C010E94CA1F5C010E94625951
:1046F0008C010E94AB1F9C01C3010796409708F0F4
:1047000041C047018A189B08C40107964097D0F51D
:104710005801A21AB30AC5010796409798F50E945E
:104720004721862D895F806E8983982D995F9295A8
:10473000907F8A2D895F890F8A83D092FA01C09277
:10474000F901C094D094D0922E01C0922D01F09224
:10475000FC01E092FB01E094F094F0923001E092D1
:104760002F011093FE010093FD0100951095109309
:1047700032010093310162E0CE0101960E942720B0
:1047800081E001C080E00F900F90CF91DF911F91E9
:104790000F91FF90EF90DF90CF90BF90AF909F90E0
:1047A0008F907F906F9008956F927F928F929F92DB
:1047B000AF92BF92CF92DF92EF92FF920F931F932F
:1047C000DF93CF93CDB7DEB729970FB6F894DEBF4E
:1047D0000FBECDBF0E94165A6C010E94E91F360120
:1047E000681A790A0E94BC597C010E94CA1F5C01A8
:1047F0000E9462598C010E94AB1F9C01C3014F961D
:104800008034910508F062C047018A189B08C401F2
:104810004F968034910508F059C05801A21AB30A86
:10482000C5014F968034910508F050C00E94472181
:10483000262D215E29831A8230E0C9018073907091
:10484000F4E095958795FA95E1F7806F8F83482D71
:10485000415E4B831C825A2D515E5D831E82842FE4
:1048600090E080739070880F991F880F991F582BC4
:10487000588774E0220F331F7A95E1F74F70422B6F
:104880004987D092FA01C092F901C094D094D09295
:104890002E01C0922D01F092FC01E092FB01E09408
:1048A000F094F0923001E0922F011093FE010093FA
:1048B000FD0100951095109332010093310163E0E2
:1048C000CE0107960E94272081E001C080E0299652
:1048D0000FB6F894DEBF0FBECDBFCF91DF911F9111
:1048E0000F91FF90EF90DF90CF90BF90AF909F908F
:1048F0008F907F906F9008956F927F928F929F928A
:10490000AF92BF92CF92DF92EF92FF920F931F93DD
:10491000DF93CF93CDB7DEB72A970FB6F894DEBFFB
:104920000FBECDBF0E94165A3C010E94E91F6301D1
:10493000C81AD90A0E94BC594C010E94CA1F8C0196
:104940000E9462595C010E94AB1F2FE730E0C20E4B
:10495000D31E3FEFC316D10411F008F047C0740115
:10496000E01AF10A2FE730E0E20EF31E3FEFE31604
:10497000F10409F0D8F58501081B190B01581F4FE8
:104980000F3F110509F090F50E94472184EF8F83B6
:10499000DA82C982C886FC82EB82E9861E830D8397
:1049A0000A877092FA016092F90160947094709293
:1049B0002E0160922D019092FC018092FB01809467
:1049C00090949092300180922F01B092FE01A092BB
:1049D000FD01A094B094B0923201A092310164E044
:1049E000CE0107960E94272081E001C080E02A9630
:1049F0000FB6F894DEBF0FBECDBFCF91DF911F91F0
:104A00000F91FF90EF90DF90CF90BF90AF909F906D
:104A10008F907F906F9008950E94165A9093FA019C
:104A20008093F9018095909590932E0180932D01AC
:104A30000E94BC599093FC018093FB018095909556
:104A40009093300180932F010E9462599093FE0150
:104A50008093FD0180959095909332018093310170
:104A600008950F931F93DF93CF93CDB7DEB72F97A2
:104A70000FB6F894DEBF0FBECDBF0E94165A80500D
:104A8000904F9A8389838A818F71806C89870E9475
:104A9000BC598050904F9C838B830C810F710E9476
:104AA00062598050904F9E838D831E81812F8C711F
:104AB00086958695000F000F000F802B8A870E9435
:104AC0001E2113700E940C21082F000F000F0C7381
:104AD0000E9447210E94282198878F831295110FE9
:104AE000110F107C8885182B102B1B8789818C87D0
:104AF0008B818D878D818E878F818F8767E0CE0137
:104B000009960E9427200E940C252F960FB6F89434
:104B1000DEBF0FBECDBFCF91DF911F910F910895E2
:104B20000E94231590E0819744F00E94EF200E949C
:104B3000312580E00E941A2008950E94472108959F
:104B40000F931F930E94BD09182F0E94761F082FF4
:104B50000E949121813079F4812F8C518093FF0143
:104B6000982F9095909333019AEA89278093340186
:104B700080E00E948421812F801B8E31E8F00E940A
:104B80004A3B813011F40E94282C0E942315893061
:104B900080F01093FF01812F8095809333018AEA82
:104BA0008127809334010E94EF200E94312581E00B
:104BB00004C08EE10E94071280E01F910F910895BA
:104BC0001F93182F0E946D1E882319F0813089F5DC
:104BD00014C081E0809304028EEF80933D018BEA44
:104BE00080933E01812F895080930302982F9095E6
:104BF00090933B019AEA892719C00E94A21E912F27
:104C0000981B9A30F0F00E941505882311F08AEF66
:104C100001C089EF0E94B020813099F41093030203
:104C2000812F809580933B018AEA812780933C0104
:104C300008C0109204028FEF80933D018AEA8093AE
:104C40003E011F910895FF920F931F93DF93CF931F
:104C500000D00F92CDB7DEB70E94BD09F82E0E949A
:104C6000A80221E530E0AC01429FC001439F900DB6
:104C7000529F900D1124092F11270E940C1F90E0C4
:104C80008017910758F4802F00930102902F909580
:104C9000909337019AEA8927809338010E94411F37
:104CA00090E00817190770F40115110559F0802FCD
:104CB00000933501902F9095909300029AEA8927EE
:104CC000809336010E9472218130E9F48F2D8C513E
:104CD00080930202982F9095909339019AEA892740
:104CE00080933A01109201028FEF809337019093E5
:104CF0003801809335011092000285E580933601DA
:104D000080E00E9465210E94D71E5F2D581B5E31F6
:104D100048F186EF89830E94411F8A830E940C1FFD
:104D20008B8363E0CE0101960E9427208130D1F46D
:104D3000802F00933501202F2095209300029AEABE
:104D400089278093360100930102209337018093D5
:104D50003801F09202028F2D8095809339019F25B2
:104D600090933A010F900F900F90CF91DF911F9188
:104D70000F91FF900895FF920F931F93DF93CF93AE
:104D8000CDB7DEB72C970FB6F894DEBF0FBECDBF00
:104D90000E944A3B813009F052C00E940820F82E40
:104DA00082E08F1508F44BC08BEF8B830E940C2D93
:104DB000805890409A8389838E010F5F1F4F8C83A8
:104DC0000E94B22C805890409A8389838D830E94E0
:104DD000582C805890409A8389838E830E941A2E83
:104DE00088519C4F9A838983F80181818F838981BF
:104DF00088870E94C02D88519C4F9A838983F8012F
:104E00008181898789818A870E94662D88519C4F7C
:104E10009A838983F80181818B8789818C876AE0F5
:104E2000CE0103960E942720813049F48F2D8F5F99
:104E30008093F801809580932C0181E001C080E08F
:104E40002C960FB6F894DEBF0FBECDBFCF91DF9189
:104E50001F910F91FF90089580934701982F90958F
:104E6000909348019AEA9827909349010895809376
:104E70004A01982F909590934B019AEA9827909326
:104E80004C01089566E18DEF97E00E94E60E69EE11
:104E90008CEF97E00E94E60E80916F008D7F8093EB
:104EA0006F00FFCFEF92FF920F931F93F0904A0194
:104EB00010914B0180914C011095F11651F09AEA36
:104EC000E92E082F0E25F01631F48F2D8095809352
:104ED0004B018F2D17C0101721F410934A01812F19
:104EE00011C08DE00E940712802F812B8F2110238B
:104EF000812B80934A01982F909590934B01E8263F
:104F0000E0924C011F910F91FF90EF9008951F9335
:104F10000E94BD09182F0E945227181779F081E0CE
:104F20000E94CB0210934A01812F809580934B0100
:104F30008AEA812780934C010E94A9031F9108955A
:104F4000EF92FF920F931F93F09047011091480149
:104F5000809149011095F11651F02AEAE22E082FAE
:104F60000E25F01631F48F2D8095809348018F2DFA
:104F700017C0101721F410934701812F11C08DE045
:104F80000E940712802F812B8F211023812B809369
:104F90004701982F909590934801E826E0924901A7
:104FA0001F910F91FF90EF900895843021F185308B
:104FB00058F4813091F0813008F449C0823039F1E1
:104FC000833009F046C02DC0863089F1863048F024
:104FD0008730B9F18830E9F502C081E0089588E0B2
:104FE00008958EE190E00E9400096BE485E00E9444
:104FF000170885E008950E94BD3A88E097E00E9476
:10500000000963E181E00E94170884E0089582E0CE
:1050100090E00E94000968E288E20E94170882E09E
:10502000089560E084E10E94170883E0089582E01B
:1050300090E00E94000964E081E00E94170886E089
:10504000089561E081E00E94170887E0089580E0FC
:10505000089588E097E00E94000963E181E00E94E2
:10506000170884E00895CF93DF930E94A02784302F
:1050700009F456C0853060F4813009F4B5C0813040
:1050800008F4A0C08230B9F0833009F000C131C00B
:10509000873009F4C3C0883038F4853009F458C02B
:1050A000863009F0F4C08CC0883009F4DCC0893047
:1050B00009F0EDC09BC00E94C403813019F480E068
:1050C0000E94E4030E941E05882361F084E00E9490
:1050D000D52789E08093470186EF8093480183EAD2
:1050E000809349010E94B455813009F0E0C083E00B
:1050F000D2C00E94B455813069F082E00E94D52769
:1051000080934701982F9095909348019AEA9827A9
:10511000909349010E941E05882309F4C8C01AC053
:105120000E94A802EC01379B02C085E0B4C00E9437
:10513000C4038130D9F00E9415058823E9F421E0E9
:10514000C839D20708F0B3C0CD2B09F4B0C038C0BD
:10515000379908C089E08093470186EF8093480122
:1051600083EA1DC00E94C403813011F486E093C01D
:105170000E941505882311F082E08DC00E94A802CC
:105180008859914078F40E94A802892B09F48FC0B5
:1051900088E08093470187EF8093480182EA8093FB
:1051A000490185C00E94D409813009F080C08EE198
:1051B00090E00E94000964E180E00E94170877C037
:1051C00088E069C00E941E05882311F087E063C053
:1051D0000E94D409813009F06AC00E946A190E94B5
:1051E000C31B80E00E94E40384E055C080916F00FF
:1051F0008D7F80936F000E94F13861E070E080E065
:105200000E944D0F28E088E190E00FB6F894A89531
:10521000809360000FBE20936000FFCF80916F00ED
:105220008D7F80936F005B980E941505882309F499
:105230003EC00E946A190E94C31B84E00E94D527C9
:1052400080934701982F9095909348019AEA982768
:105250009093490180E00E94E40380916F00826096
:1052600080936F0024C0A8955B9880916F008D7F1C
:1052700080936F000E94F13861E070E080E00E944E
:105280004D0F8AE00E943C542F98A895FFCF89E1EA
:105290000E94071281E00E94D52780934701982F32
:1052A0009095909348019AEA982790934901DF914D
:1052B000CF9108951F931FB7F894059946C00E9497
:1052C000C755882309F041C00E949103882309F043
:1052D0003CC00E946A18813049F50E943A14382F68
:1052E000813009F032C083B7816083BF83B7817F8B
:1052F00083BF83E090E020E80FB6F894209361002C
:10530000809361000FBE3093810078948895F89463
:1053100080E090E00FB6F8942093610080936100E4
:105320000FBE82E08093810078940CC00E943A14F2
:10533000813059F483B7816083BF83B7817F83BF96
:105340007894889583B78E7F83BF1FBF1F91089580
:1053500080930502982F9095909355019AEA98278B
:1053600090935601089580930602982F90959093FC
:1053700057019AEA9827909358010895909308024C
:10538000809307029C012095309530935A01209319
:1053900059012AEA3AEA2827392730935C012093F9
:1053A0005B01089590930A02809309029C01209565
:1053B000309530935E0120935D012AEA3AEA28276E
:1053C00039273093600120935F01089590930C0278
:1053D00080930B029C0120953095309362012093BD
:1053E00061012AEA3AEA2827392730936401209399
:1053F0006301089590930E0280930D029C01209505
:10540000309530936601209365012AEA3AEA28270D
:105410003927309368012093670108959093100213
:1054200080930F029C012095309530936A01209360
:1054300069012AEA3AEA2827392730936C01209338
:105440006B01089590931202809311029C012095A4
:10545000309530936E0120936D012AEA3AEA2827AD
:1054600039273093700120936F0108959093720152
:10547000809371019C0120953095309374012093A5
:1054800073012AEA3AEA28273927309376012093D4
:105490007501089590937801809377019C01209580
:1054A000309530937A01209379012AEA3AEA282745
:1054B000392730937C0120937B01089590937E01DE
:1054C00080937D019C01209530953093800120933D
:1054D0007F012AEA3AEA282739273093820120936C
:1054E00081010895681779072CF49C01261B370B5E
:1054F000B90102C0681B790BCB01089568177907C1
:1055000014F020E007C020E0861B970B87569140DF
:105510000CF021E0822F08958617970714F020E001
:1055200007C020E0681B790B675671400CF021E042
:10553000822F08959C016817790744F4861B970B06
:10554000059764F0B9016450704008C0CB01821B1C
:10555000930B05971CF0B9016C5F7F4FCB01089549
:105560009C016817790740F4861B970B059760F03C
:10557000B9016450704008C0CB01821B930B0597A2
:1055800018F0B9016C5F7F4FCB0108959C0140E09A
:1055900050E060E070E081E090E00E947E5FC90131
:1055A00008956BE070E00E944D0F08950F931F93D4
:1055B00080E00E949F12082F80E00E9457128BE02B
:1055C00090E00E94D50F182F80E00E949F1281303A
:1055D00009F411E0013021F480E00E94071203C0B9
:1055E00080E00E945712812F1F910F910895CF9252
:1055F000DF92EF92FF920F931F93DF93CF9300D030
:10560000CDB7DEB780E00E949F12082F80E00E9495
:10561000571282E090E00E94D50F182F83E090E0AF
:105620000E94D50F7E010894E11CF11CF701118343
:10563000898389819A8190930E0280930D029C0147
:105640002095309530936601209365012AEAC22E99
:10565000D22E8C259D25909368018093670184E06C
:1056600090E00E94D50F182F85E090E00E94D50FA2
:10567000F7011183898389819A8190931002809325
:105680000F029C012095309530936A0120936901A7
:105690008C259D2590936C0180936B0186E090E0B2
:1056A0000E94D50F182F87E090E00E94D50FF701D8
:1056B0001183898389819A819093120280931102C8
:1056C0009C012095309530936E0120936D018C25BF
:1056D0009D259093700180936F0188E090E00E9477
:1056E000D50F992787FD909580509F4F9093720119
:1056F000809371019C012095309530937401209323
:1057000073018C259D25909376018093750189E026
:1057100090E00E94D50F992787FD909580509F4F6C
:1057200090937801809377019C0120953095309378
:105730007A01209379018C259D2590937C0180939B
:105740007B018AE090E00E94D50F992787FD909514
:1057500080509F4F90937E0180937D019C01209506
:1057600030953093800120937F018C259D25909367
:1057700082018093810180E00E949F12813011F0AC
:1057800011E051C010920E0210920D028FEF9FEFA8
:105790009093660180936501D0926801C092670181
:1057A0001092100210920F0290936A018093690187
:1057B000D0926C01C0926B011092120210921102F1
:1057C00090936E0180936D01D0927001C0926F0131
:1057D00040E051E050937201409371012FEF3EEF92
:1057E00030937401209373018AEA9BEA90937601C7
:1057F00080937501509378014093770130937A013B
:105800002093790190937C0180937B0150937E01DA
:1058100040937D013093800120937F01909382011A
:105820008093810110E0013021F480E00E94071292
:1058300003C080E00E945712812F0F900F90CF91EC
:10584000DF911F910F91FF90EF90DF90CF9008951F
:10585000813011F489E506C0882319F08EE00E949A
:10586000071286EA809383018095809384010895CE
:1058700080918301893549F0863A69F080918401ED
:105880008095893521F48093830181E00895863ADB
:1058900021F48093830180E008958EE00E94071236
:1058A00086EA8093830189E58093840180E00895EE
:1058B000CF92DF92EF92FF920F931F93CF93DF93DC
:1058C00000917D0110917E01C0917F01D0918001F6
:1058D0008091810190918201C095D0950C171D0790
:1058E00081F03AEAC32ED32E7C01EC24FD240E1560
:1058F0001F0549F4C801809590959093800180938D
:105900007F01C80126C0CE15DF0531F4D0937E019A
:10591000C0937D01CE011DC08DE00E940712C7011A
:105920008C2B9D2B80239123CE21DF218C2B9D2B33
:1059300090937E0180937D019C012095309530935A
:10594000800120937F01C826D926D0928201C0927F
:105950008101DF91CF911F910F91FF90EF90DF9028
:10596000CF900895CF92DF92EF92FF920F931F9303
:10597000CF93DF930091770110917801C091790165
:10598000D0917A0180917B0190917C01C095D09556
:105990000C171D0781F04AEAC42ED42E7C01EC249A
:1059A000FD240E151F0549F4C8018095909590932C
:1059B0007A0180937901C80126C0CE15DF0531F444
:1059C000D0937801C0937701CE011DC08DE00E9475
:1059D0000712C7018C2B9D2B80239123CE21DF2121
:1059E0008C2B9D2B90937801809377019C012095BF
:1059F000309530937A0120937901C826D926D09228
:105A00007C01C0927B01DF91CF911F910F91FF909C
:105A1000EF90DF90CF900895CF92DF92EF92FF92B8
:105A20000F931F93CF93DF93009171011091720137
:105A3000C0917301D09174018091750190917601AC
:105A4000C095D0950C171D0781F05AEAC52ED52EAA
:105A50007C01EC24FD240E151F0549F4C801809536
:105A600090959093740180937301C80126C0CE1560
:105A7000DF0531F4D0937201C0937101CE011DC0D6
:105A80008DE00E940712C7018C2B9D2B8023912350
:105A9000CE21DF218C2B9D2B90937201809371017D
:105AA0009C01209530953093740120937301C82692
:105AB000D926D0927601C0927501DF91CF911F91C6
:105AC0000F91FF90EF90DF90CF900895CF92DF92EB
:105AD000EF92FF920F931F93CF93DF9300911102E8
