:100000000C943F000C945C000C945C000C945C001D
:100010000C940D2B0C94E32A0C94D32A0C940A2AEA
:100020000C945C000C945C000C945C000C945C00E0
:100030000C945C000C94FA1D0C945C000C94BA1D9A
:100040000C945C000C945C000C945C000C945C00C0
:100050000C942F290C9495290C9485290C945C0000
:100060000C949A150C945C000C94F8100C945C00A1
:100070000C945C000C945C000C945C000CB2112499
:100080001FBECFEFD0E1DEBFCDBF11E0A0E0B1E0F9
:10009000E2E1F1EA02C005900D92AE3EB107D9F758
:1000A00018E0AEEEB1E001C01D92A539B107E1F74D
:1000B0000E9453130C9487500C9428139093EF01D3
:1000C0008093EE019C01209530953093010120939F
:1000D00000012AEA3AEA28273927309303012093BE
:1000E000020108959093F1018093F0019C01209505
:1000F000309530930501209304012AEA3AEA282733
:100100003927309307012093060108959093F30156
:100110008093F2019C012095309530930901209342
:1001200008012AEA3AEA2827392730930B0120935D
:100130000A0108959093F5018093F4019C012095A4
:10014000309530930F0120930E012AEA3AEA2827CE
:100150003927309311012093100108959093F701EE
:100160008093F6019C0120953095309313012093E4
:1001700012012AEA3AEA28273927309315012093F9
:10018000140108959093F9018093F8019C01209542
:10019000309530931701209316012AEA3AEA28276E
:1001A0003927309319012093180108958093FA019B
:1001B000982F909590931C019AEA982790931D018F
:1001C00008959093FC018093FB019C01209530954C
:1001D00030932101209320012AEA3AEA282739277F
:1001E000309323012093220108958093FD01982FDD
:1001F0009095909324019AEA982790932501089569
:100200009093FF018093FE019C01209530953093DF
:100210002701209326012AEA3AEA28273927309332
:1002200029012093280108959093010280930002F0
:100230009C012095309530932B0120932A012AEAC6
:100240003AEA2827392730932D0120932C0108956D
:1002500090930302809302029C0120953095309385
:100260002F0120932E012AEA3AEA282739273093D2
:10027000310120933001089580930402982F9095C6
:10028000909332019AEA98279093330108958093CE
:100290000502982F9095909334019AEA98279093AD
:1002A00035010895059B02C081E008958091EE021A
:1002B000811181E00895059B02C091E005C0809105
:1002C000EE02811181E0982F80E0992309F481E00A
:1002D000089510920D029FEF909344018AEA809353
:1002E000450110920E0290934601809347011092AF
:1002F000100290934A0180934B0108956817790783
:100300002CF49C01261B370BB90102C0681B790B2A
:10031000CB0108953091100280914B0190914A01D8
:1003200090953917F1F04AEA282F2427321731F433
:10033000832F809580934A01932F13C0921719F44D
:10034000909310020EC0822F892B83239223982B27
:1003500090931002892F809580934A0149274093FA
:100360004B019F5F943608F443C030910E02809198
:1003700047019091460190953917F1F04AEA282FEC
:100380002427321731F4832F809580934601932FD1
:1003900013C0921719F490930E020EC0822F892B6E
:1003A00083239223982B90930E02892F809580931C
:1003B00046014927409347019D3610F49C3518F4B7
:1003C00081E10E948C25109210029FEF90934A01C8
:1003D0008AEA80934B0110920E029093460180931B
:1003E000470110920D0290934401809345010895B6
:1003F00090931002892F809580934A018AEA98276A
:1004000090934B010895EF92FF920F931F93F090FA
:10041000050210913401809135011095F11651F0CB
:100420009AEAE92E082F0E25F01631F48F2D8095CB
:10043000809334018F2D17C0101721F410930502FB
:10044000812F11C08DE00E948C25802F812B8F2160
:100450001023812B80930502982F9095909334015F
:10046000E826E09235011F910F91FF90EF900895DB
:10047000EF92FF920F931F93F090040210913201BC
:10048000809133011095F11651F02AEAE22E082FDF
:100490000E25F01631F48F2D8095809332018F2D2B
:1004A00017C0101721F410930402812F11C08DE0A2
:1004B0000E948C25802F812B8F211023812B8093EC
:1004C0000402982F909590933201E826E092330130
:1004D0001F910F91FF90EF900895CF92DF92EF92CE
:1004E000FF920F931F93CF93DF930091020210911D
:1004F0000302C0912E01D0912F0180913001909183
:100500003101C095D0950C171D0781F03AEAC32E32
:10051000D32E7C01EC24FD240E151F0549F4C801DF
:100520008095909590932F0180932E01C80126C04D
:10053000CE15DF0531F4D0930302C0930202CE0141
:100540001DC08DE00E948C25C7018C2B9D2B802324
:100550009123CE21DF218C2B9D2B9093030280933E
:1005600002029C012095309530932F0120932E019B
:10057000C826D926D0923101C0923001DF91CF91A7
:100580001F910F91FF90EF90DF90CF900895CF9241
:10059000DF92EF92FF920F931F93CF93DF9300911F
:1005A000000210910102C0912A01D0912B0180918B
:1005B0002C0190912D01C095D0950C171D0781F04D
:1005C0004AEAC42ED42E7C01EC24FD240E151F050E
:1005D00049F4C8018095909590932B0180932A014E
:1005E000C80126C0CE15DF0531F4D0930102C093B7
:1005F0000002CE011DC08DE00E948C25C7018C2B0E
:100600009D2B80239123CE21DF218C2B9D2B90933A
:100610000102809300029C012095309530932B01BC
:1006200020932A01C826D926D0922D01C0922C01F0
:10063000DF91CF911F910F91FF90EF90DF90CF90BE
:100640000895CF92DF92EF92FF920F931F93CF9373
:10065000DF930091FE011091FF01C0912601D0911E
:1006600027018091280190912901C095D0950C1700
:100670001D0781F05AEAC52ED52E7C01EC24FD24FD
:100680000E151F0549F4C801809590959093270198
:1006900080932601C80126C0CE15DF0531F4D09322
:1006A000FF01C093FE01CE011DC08DE00E948C258C
:1006B000C7018C2B9D2B80239123CE21DF218C2BF6
:1006C0009D2B9093FF018093FE019C012095309516
:1006D0003093270120932601C826D926D0922901DC
:1006E000C0922801DF91CF911F910F91FF90EF9061
:1006F000DF90CF900895EF92FF920F931F93F090A9
:10070000FD0110912401809125011095F11651F001
:100710006AEAE62E082F0E25F01631F48F2D80950B
:10072000809324018F2D17C0101721F41093FD0121
:10073000812F11C08DE00E948C25802F812B8F216D
:100740001023812B8093FD01982F90959093240185
:10075000E826E09225011F910F91FF90EF900895F8
:10076000CF92DF92EF92FF920F931F93CF93DF937D
:100770000091FB011091FC01C0912001D091210159
:100780008091220190912301C095D0950C171D07EF
:1007900081F07AEAC72ED72E7C01EC24FD240E15B9
:1007A0001F0549F4C801809590959093210180938D
:1007B0002001C80126C0CE15DF0531F4D093FC011D
:1007C000C093FB01CE011DC08DE00E948C25C701A6
:1007D0008C2B9D2B80239123CE21DF218C2B9D2BD5
:1007E0009093FC018093FB019C0120953095309300
:1007F000210120932001C826D926D0922301C0923E
:100800002201DF91CF911F910F91FF90EF90DF9028
:10081000CF900895813039F0882311F485E104C028
:100820008DE00E948C258AEE80931E018095809336
:100830001F01089580911E018A3E49F0853169F0BB
:1008400080911F0180958A3E21F480931E0181E0F2
:100850000895853121F480931E0180E008958DE094
:100860000E948C258AEE80931E0185E180931F01F2
:1008700081E00895EF92FF920F931F93F090FA0199
:1008800010911C0180911D011095F11651F0EAEABA
:10089000EE2E082F0E25F01631F48F2D80958093C3
:1008A0001C018F2D17C0101721F41093FA01812F0E
:1008B00011C08DE00E948C25802F812B8F21102369
:1008C000812B8093FA01982F909590931C01E82634
:1008D000E0921D011F910F91FF90EF9008958130DC
:1008E00011F489E506C0882319F08EE00E948C255A
:1008F00086EA80931A01809580931B010895809168
:100900001A01893549F0863A69F080911B0180957A
:10091000893521F480931A0181E00895863A21F403
:1009200080931A0180E008958EE00E948C2586EA6B
:1009300080931A0189E580931B0180E00895CF928E
:10094000DF92EF92FF920F931F93CF93DF9300916B
:10095000F8011091F901C0911601D0911701809111
:10096000180190911901C095D0950C171D0781F0C1
:10097000FAEACF2EDF2E7C01EC24FD240E151F0594
:1009800049F4C801809590959093170180931601C2
:10099000C80126C0CE15DF0531F4D093F901C0930C
:1009A000F801CE011DC08DE00E948C25C7018C2B63
:1009B0009D2B80239123CE21DF218C2B9D2B909387
:1009C000F9018093F8019C0120953095309317012F
:1009D00020931601C826D926D0921901C092180179
:1009E000DF91CF911F910F91FF90EF90DF90CF900B
:1009F0000895CF92DF92EF92FF920F931F93CF93C0
:100A0000DF930091F6011091F701C0911201D0918E
:100A100013018091140190911501C095D0950C1788
:100A20001D0781F0AAEACA2EDA2E7C01EC24FD24EF
:100A30000E151F0549F4C8018095909590931301F8
:100A400080931201C80126C0CE15DF0531F4D09382
:100A5000F701C093F601CE011DC08DE00E948C25E8
:100A6000C7018C2B9D2B80239123CE21DF218C2B42
:100A70009D2B9093F7018093F6019C012095309572
:100A80003093130120931201C826D926D092150164
:100A9000C0921401DF91CF911F910F91FF90EF90C1
:100AA000DF90CF900895CF92DF92EF92FF920F9355
:100AB0001F93CF93DF930091F4011091F501C09142
:100AC0000E01D0910F018091100190911101C095FC
:100AD000D0950C171D0781F0BAEACB2EDB2E7C01D6
:100AE000EC24FD240E151F0549F4C801809590954E
:100AF00090930F0180930E01C80126C0CE15DF052B
:100B000031F4D093F501C093F401CE011DC08DE006
:100B10000E948C25C7018C2B9D2B80239123CE21F5
:100B2000DF218C2B9D2B9093F5018093F4019C0188
:100B30002095309530930F0120930E01C826D926B9
:100B4000D0921101C0921001DF91CF911F910F91AE
:100B5000FF90EF90DF90CF9008956F927F928F92E9
:100B60009F92AF92BF92CF92DF92EF92FF920F933C
:100B70001F930E947F04813009F04EC080E00E94E4
:100B80006F040E9453057C010E94F9045C010E94DD
:100B90009F043C010027F7FC0095102FC801B70106
:100BA000A80197010E942B507B018C01CC24B7FC3B
:100BB000C094DC2C882477FC8094982CC601B50165
:100BC000A60195010E942B505B016C01AE0CBF1C6D
:100BD000C01ED11EC401B301A40193010E942B5079
:100BE000A60EB71EC81ED91E82E7A81684E3B80653
:100BF00081E0C80680E0D8061CF08CE10E948C25BC
:100C000081E7A81680EDB80680E0C80680E0D80627
:100C10001CF48CE10E948C251F910F91FF90EF90A6
:100C2000DF90CF90BF90AF909F908F907F906F900C
:100C30000895813011F48AE906C0882319F08EE006
:100C40000E948C2585E680930C01809580930D0190
:100C5000089580910C018A3949F0853669F08091B8
:100C60000D0180958A3921F480930C0181E008956B
:100C7000853621F480930C0180E008958EE00E9477
:100C80008C2585E680930C018AE980930D0180E034
:100C900008950E942906813029F40E94AD0580E064
:100CA0000E9419060895CF92DF92EF92FF920F9360
:100CB0001F93CF93DF930091F2011091F301C09144
:100CC0000801D091090180910A0190910B01C09512
:100CD000D0950C171D0781F02AEAC22ED22E7C0176
:100CE000EC24FD240E151F0549F4C801809590954C
:100CF0009093090180930801C80126C0CE15DF0535
:100D000031F4D093F301C093F201CE011DC08DE008
:100D10000E948C25C7018C2B9D2B80239123CE21F3
:100D2000DF218C2B9D2B9093F3018093F2019C018A
:100D3000209530953093090120930801C826D926C3
:100D4000D0920B01C0920A01DF91CF911F910F91B8
:100D5000FF90EF90DF90CF900895CF92DF92EF92C7
:100D6000FF920F931F93CF93DF930091F0011091A7
:100D7000F101C0910401D09105018091060190918B
:100D80000701C095D0950C171D0781F03AEAC32ED4
:100D9000D32E7C01EC24FD240E151F0549F4C80157
:100DA000809590959093050180930401C80126C019
:100DB000CE15DF0531F4D093F101C093F001CE01DF
:100DC0001DC08DE00E948C25C7018C2B9D2B80239C
:100DD0009123CE21DF218C2B9D2B9093F1018093C9
:100DE000F0019C012095309530930501209304017A
:100DF000C826D926D0920701C0920601DF91CF9173
:100E00001F910F91FF90EF90DF90CF900895CF92B8
:100E1000DF92EF92FF920F931F93CF93DF93009196
:100E2000EE011091EF01C0910001D091010180917C
:100E3000020190910301C095D0950C171D0781F018
:100E40004AEAC42ED42E7C01EC24FD240E151F0585
:100E500049F4C80180959095909301018093000119
:100E6000C80126C0CE15DF0531F4D093EF01C09341
:100E7000EE01CE011DC08DE00E948C25C7018C2B98
:100E80009D2B80239123CE21DF218C2B9D2B9093B2
:100E9000EF018093EE019C01209530953093010184
:100EA00020930001C826D926D0920301C0920201E6
:100EB000DF91CF911F910F91FF90EF90DF90CF9036
:100EC00008950F931F93082F0E942906882309F085
:100ED00040C00931F0F10E9407079093F50180931B
:100EE000F4019C012095309530930F0120930E0161
:100EF0000AEA1AEA80279127909311018093100142
:100F00000E94AD069093F7018093F6019C01209515
:100F100030953093130120931201802791279093ED
:100F20001501809314010E9453069093F901809358
:100F3000F8019C01209530953093170120931601FC
:100F400008271927109319010093180181E00E94C6
:100F500019061F910F910895EF92FF920F931F931F
:100F6000CF93DF930E940707EC010E94AD068C012E
:100F70000E9453067C0160910702709108028091E3
:100F80003801909139012091360130913701209537
:100F900030956217730799F1EAEAFAEAAC014E2735
:100FA0005F276417750749F4CB018095909590935E
:100FB0003701809336019B0122C02417350729F49D
:100FC00030930802209307021AC0CA01822B932B88
:100FD0008623972324233523282B392B309308028B
:100FE00020930702C90180959095909337018093D3
:100FF0003601E227F327F0933901E09338012C17EB
:101000003D0724F4CE01821B930B03C0C9018C1B46
:101010009D0B0B9708F0A1C06091090270910A0224
:1010200080913C0190913D0120913A0130913B012A
:10103000209530956217730799F1EAEAFAEAAC0154
:101040004E275F276417750749F4CB01809590956B
:1010500090933B0180933A019B0122C024173507EE
:1010600029F430930A02209309021AC0CA01822B84
:10107000932B8623972324233523282B392B309336
:101080000A0220930902C9018095909590933B0133
:1010900080933A01E227F327F0933D01E0933C016E
:1010A0002017310724F4C801821B930B03C0C90128
:1010B000801B910B0B9708F050C060910B02709150
:1010C0000C02809140019091410120913E013091AC
:1010D0003F01209530956217730799F1EAEAFAEA21
:1010E000AC014E275F276417750749F4CB01809543
:1010F000909590933F0180933E019B0122C024175D
:10110000350729F430930C0220930B021AC0CA0150
:10111000822B932B8623972324233523282B392BAB
:1011200030930C0220930B02C90180959095909307
:101130003F0180933E01E227F327F0934101E093C2
:1011400040012E153F0524F4C701821B930B03C0F9
:10115000C9018E199F090B97C0F110920602D09316
:101160000802C0930702CE018095909590933701B5
:10117000809336012AEA3AEAC227D327D09339016D
:10118000C093380110930A0200930902C8018095A8
:10119000909590933B0180933A0102271327109377
:1011A0003D0100933C01F0920C02E0920B02C7015A
:1011B0008095909590933F0180933E012E253F2589
:1011C000309341012093400145C0809106028F5F1A
:1011D000809306028A31F0F10E9429068823C1F526
:1011E000D093F501C093F401CE0180959095909332
:1011F0000F0180930E012AEA3AEAC227D327D0933F
:101200001101C09310011093F7010093F601C8017A
:1012100080959095909313018093120102271327D4
:101220001093150100931401F092F901E092F80176
:10123000C7018095909590931701809316012E25F4
:101240003F25309319012093180181E00E9419066F
:1012500010920602DF91CF911F910F91FF90EF90B6
:1012600008958FEE92E00E94911090E0813009F491
:1012700091E0892F08958091F602813009F05DC0D8
:101280008091ED02882309F058C00E943109813015
:1012900009F053C09091EF02892F8F7309F08150AC
:1012A0008093EE0297FF03C080E10E948C2581E0CD
:1012B0008093ED02E7EEF2E08091F0028093E80285
:1012C0008091F1028093E7028091E7029091E80219
:1012D00074E0959587957A95E1F79093E80280936D
:1012E000E7028091F20283838091F3028093E90206
:1012F0008091E9029091EA0264E0959587956A955C
:10130000E1F79093EA028093E9028091F4028583E9
:101310008091F5028093EB028091EB029091EC02B8
:1013200054E0959587955A95E1F79093EC02809358
:10133000EB021092F60281E0089580E008950F9389
:101340001F93CF93DF93082F162FEA010E947E1080
:10135000813011F080E006C09E01412F602F88E3AC
:101360000E94CE10DF91CF911F910F91089580912F
:10137000F602882389F44FEE52E067E00E949F094D
:10138000813051F48091EE02811181508093EE0200
:1013900081E08093F602089580E008950F931F93F3
:1013A000059905C08091EE02882309F426C10E94A8
:1013B0007E10813009F021C10E946A2B0E94772B98
:1013C000803108F41AC10E943109813009F0B8C097
:1013D0008091ED02882309F0B3C08091F60281303C
:1013E00009F0AEC00E948B10182F813009F0A8C000
:1013F0000E943B09882309F400C110920F028FEF6D
:10140000809348010AEA009349010E94B7098823A2
:1014100029F41092ED021093F602F0C08091E702D9
:101420009091E8029093EF018093EE019C0120954A
:10143000309530930101209300014AEA5AEA84274B
:10144000952790930301809302018091E902909186
:10145000EA029093F1018093F0019C012095309570
:101460003093050120930401842795279093070169
:10147000809306018091EB029091EC029093F3012E
:101480008093F2019C0120953095309309012093BF
:1014900008018427952790930B0180930A011092ED
:1014A000ED0230910D02809145019091440190959B
:1014B000391769F0282F2027321711F4932F07C00E
:1014C000921729F0822F892B83239223982B9F5FD9
:1014D000923350F110920D028FEF809344012AEA6B
:1014E0002093450130910E02809147019091460171
:1014F0009095391761F02827321711F4932F07C000
:10150000921729F0822F892B83239223982B892FDE
:101510008F5F80930E02982F9095909346019AEAE0
:101520008927809347010AC090930D02892F8095E7
:10153000809344018AEA98279093450181E05EC038
:1015400030910F028091490190914801909539178F
:10155000F1F04AEA282F2427321731F4832F80959F
:1015600080934801932F13C0921719F490930F02A0
:101570000EC0822F892B83239223982B90930F02E6
:10158000892F8095809348014927409349019F5FA7
:10159000963060F086E00E948C2510920F028FEF4B
:1015A000809348018AEA809349010AC090930F0210
:1015B000892F8095809348018AEA98279093490162
:1015C0000E943109813031F48091F602882311F4B0
:1015D0000E94B7090E943109813079F48091F602A6
:1015E000882349F00E948B10882329F41092F60278
:1015F0008AE00E94E53B0E94B70980E01F910F91AD
:1016000008951F93DF93CF930F92CDB7DEB7182FB6
:101610000E94E2119E012F5F3F4F41E0612F88E35E
:101620000E94CE100E94E21189810F90CF91DF912C
:101630001F91089580E00E94010B08951F93DF938E
:10164000CF930F92CDB7DEB7182F69830E94E211B6
:101650009E012F5F3F4F41E0612F88E30E949C1065
:101660000E94E2110F90CF91DF911F91089561E2E6
:101670008AE20E941E0B089560E28AE20E941E0B1D
:1016800008958BE58093420184EA809343010E9490
:101690003C0B62E18BE20E941E0B0E94370B089507
:1016A00080914201843AB1F08B35B1F080914301D1
:1016B0008095843A19F4809342010CC08B3519F45B
:1016C0008093420108958BE58093420184EA8093E0
:1016D000430108950E94410B089584EA80934201DA
:1016E0008BE5809343010E943C0B62E98BE20E94F0
:1016F0001E0B0E94370B08951F9380E090E0FC01C1
:10170000E951FD4F1086019687309105C1F710927F
:10171000F6021092ED021092EE0260E48BE20E945B
:101720001E0B10E081E00E94E53B8BE20E94010B62
:1017300086FD1EEF1F5F1A30A8F38DE00E94010B9B
:101740008A3119F089E00E948C250E943C0B61E4EB
:1017500089E00E941E0B62E08EE00E941E0B62E197
:101760008BE20E941E0B62E08CE20E941E0B60E482
:101770008DE20E941E0B60E48EE20E941E0B0E940E
:10178000370B1F91089510920D029FEF9093440123
:101790008AEA8093450110920E029093460180934D
:1017A00047011092100290934A0180934B0181E10E
:1017B0000E94DC250895059904C08091EE028823DB
:1017C00029F00E94E2110E94CE09F5CF0E94C30BBE
:1017D0000895AF92BF92CF92DF92EF92FF920F9354
:1017E0001F930E943A04833009F4B5C0843030F46A
:1017F0008130A9F1823008F060C00DC0853009F455
:1018000030C2853008F401C2863009F423C3893020
:1018100009F046C421C11092FC011092FB018FEF28
:101820009FEF90932101809320018AEA9AEA909396
:101830002301809322010E94901D8093FD01982F27
:101840009095909324019AEA98279093250181E03E
:101850008093FA018EEF80931C018BEA27C40E94CB
:10186000901D182F0E947B03181701F10E94B003EE
:1018700001969093FC018093FB019C01209530958B
:1018800030932101209320012AEA3AEA8227932704
:1018900090932301809322011093FD01812F809565
:1018A000809324018AEA8127809325010E94B00356
:1018B00080519E4008F4FCC3C7C0109205028FEF10
:1018C000809334018AEA809335010E940707909340
:1018D000FF018093FE019C012095309530932701F4
:1018E000209326010AEA1AEA80279127909329017A
:1018F000809328010E94AD0690930102809300021C
:101900009C012095309530932B0120932A0180274C
:10191000912790932D0180932C010E945306909360
:101920000302809302029C012095309530932F0191
:1019300020932E01082719271093310100933001BD
:1019400081E080931D0283E08093FA018CEF809305
:101950001C0189EAABC30E9421038C010E94070786
:10196000081B190B17FF03C0109501951F4F063078
:1019700011050CF069C00E94C7028C010E94AD06DF
:10198000081B190B17FF03C0109501951F4F063058
:1019900011050CF059C00E946D028C010E94530683
:1019A000081B190B17FF03C0109501951F4F063038
:1019B00011050CF049C00E9403028F5F809305025D
:1019C000982F9095909334019AEA89278093350156
:1019D0000E940302823308F46BC389E08093FA010A
:1019E00086EF80931C0183EA80931D010E94070704
:1019F000AA2797FDA095BA2F8093190290931A02F7
:101A0000A0931B02B0931C020E94AD06AA2797FD6B
:101A1000A095BA2F8093150290931602A0931702F7
:101A2000B09318020E945306AA2797FDA095BA2FDB
:101A30008093110290931202A0931302B0931402A8
:101A400081E080931D0234C382E08093FA018DEF20
:101A500080931C0188EA2AC3E0901902F0901A02D0
:101A600000911B0210911C020E940707AA2797FDF4
:101A7000A095BA2F8E0D9F1DA01FB11F8093190234
:101A800090931A02A0931B02B0931C02E0901502DF
:101A9000F090160200911702109118020E94AD06F4
:101AA000AA2797FDA095BA2F8E0D9F1DA01FB11FCD
:101AB0008093150290931602A0931702B093180218
:101AC000E0901102F09012020091130210911402A2
:101AD0000E9453065C01CC24B7FCC094DC2CAE0CF5
:101AE000BF1CC01ED11EA0921102B0921202C09261
:101AF0001302D092140280911D028F5F80931D0209
:101B0000803108F4D5C26091190270911A02809157
:101B10001B0290911C0220E130E040E050E00E9466
:101B20006C50122F032F2093190230931A02409306
:101B30001B0250931C026091150270911602809155
:101B400017029091180220E130E040E050E00E943E
:101B50006C50F22EE32E2093150230931602409320
:101B6000170250931802C601B50120E130E040E0B1
:101B700050E00E946C50B901209311023093120280
:101B80004093130250931402812F902F9093FF01E2
:101B90008093FE019C01209530953093270120937E
:101BA00026014AEA5AEA84279527909329018093CF
:101BB00028018F2D9E2D90930102809300029C019D
:101BC0002095309530932B0120932A018427952767
:101BD00090932D0180932C01709303026093020275
:101BE0009B012095309530932F0120932E0146279D
:101BF0005727509331014093300184E08093FA01DC
:101C00008BEF80931C018EEA51C20E946D0B1092E3
:101C100004028FEF809332018AEA8093330110929D
:101C2000190210921A0210921B0210921C021092BA
:101C300015021092160210921702109218021092BA
:101C400011021092120210921302109214021092BA
:101C50001D0285E08093FA018AEF80931C018FEAD0
:101C6000E1C10E943802853008F4F8C0E090190202
:101C7000F0901A0200911B0210911C020E940707AB
:101C8000AA2797FDA095BA2F8E0D9F1DA01FB11FEB
:101C90008093190290931A02A0931B02B0931C0226
:101CA000E0901502F09016020091170210911802B0
:101CB0000E94AD06AA2797FDA095BA2F8E0D9F1DF5
:101CC000A01FB11F8093150290931602A0931702D4
:101CD000B0931802E0901102F090120200911302EA
:101CE000109114020E9453065C01CC24B7FCC094EE
:101CF000DC2CAE0CBF1CC01ED11EA0921102B092F3
:101D00001202C0921302D092140280911D028F5FC2
:101D100080931D02803108F487C16091190270918F
:101D20001A0280911B0290911C0220E130E040E0F9
:101D300050E00E946C502093190230931A02409395
:101D40001B0250931C026091150270911602809143
:101D500017029091180220E130E040E050E00E942C
:101D60006C50209315023093160240931702509343
:101D70001802C601B50120E130E040E050E00E94C9
:101D80006C5020931102309312024093130250932F
:101D9000140281E00E940A040091190210911A02B3
:101DA0000E942103081B190B0B5010400332110530
:101DB00018F080E00E940A040091150210911602AA
:101DC0000E94C702081B190B0F5010400233110567
:101DD00018F080E00E940A04009111021091120292
:101DE0000E946D02081B190B095610400C5311403C
:101DF00018F080E00E940A040E94410B1092040235
:101E00008FEF809332018AEA8093330186E08093DA
:101E1000FA0189EF80931C018CEA80931D011092D6
:101E2000190210921A0210921B0210921C021092B8
:101E300015021092160210921702109218021092B8
:101E400011021092120210921302109214021092B8
:101E50001D02EAC00E943802853060F48F5F8093D3
:101E60000402982F9095909332019AEA89278093E3
:101E70003301DAC0E0901902F0901A0200911B02BF
:101E800010911C020E940707AA2797FDA095BA2F60
:101E90008E0D9F1DA01FB11F8093190290931A02EF
:101EA000A0931B02B0931C02E0901502F090160262
:101EB00000911702109118020E94AD06AA2797FD03
:101EC000A095BA2F8E0D9F1DA01FB11F80931502E4
:101ED00090931602A0931702B0931802E09011029B
:101EE000F090120200911302109114020E94530606
:101EF0005C01CC24B7FCC094DC2CAE0CBF1CC01E13
:101F0000D11EA0921102B0921202C0921302D0927E
:101F1000140280911D028F5F80931D02803108F4AE
:101F200083C06091190270911A0280911B029091F6
:101F30001C0220E130E040E050E00E946C50F22EA4
:101F4000E32E2093190230931A0240931B02509300
:101F50001C026091150270911602809117029091F7
:101F6000180220E130E040E050E00E946C502093E5
:101F70001502309316024093170250931802C601BF
:101F8000B50120E130E040E050E00E946C50209329
:101F900011023093120240931302509314020F2D3A
:101FA0001E2D0E942103081B190B17FF03C010955B
:101FB00001951F4F0530110574F500911502109120
:101FC00016020E94C702081B190B17FF03C01095C9
:101FD00001951F4F05301105F4F400911102109185
:101FE00012020E946D02081B190B17FF03C0109507
:101FF00001951F4F0530110574F40E941A048823BF
:1020000019F482E10E948C251092FA018FEF8093DF
:102010001C018AEA07C082E08093FA018DEF809369
:102020001C0188EA80931D010E9421039093EF0117
:102030008093EE019C01209530953093010120930F
:1020400000010AEA1AEA80279127909303018093FE
:1020500002010E94C7029093F1018093F0019C015C
:102060002095309530930501209304018027912716
:1020700090930701809306010E946D029093F301F3
:102080008093F2019C0120953095309309012093B3
:1020900008010827192710930B0100930A0108C0B3
:1020A0001092FA018FEF80931C018AEA80931D0140
:1020B0001F910F91FF90EF90DF90CF90BF90AF9066
:1020C000089582E08093B8008FEF8093BB0084E096
:1020D0008093BC008091F9028D7F8093F9028091FA
:1020E000F90284608093F9028091F9028E7F8093D7
:1020F000F9021092F8021092FC0208958091F90200
:1021000081FF02C080E008958091BC0082958F70AD
:102110008095817008958091F902869586958170E9
:10212000089540E0209107033091080328173907EC
:1021300009F041E0842F0895582F8091F90281FD24
:102140002BC04B3048F5D90120E030E007C08D911D
:10215000F901E950FD4F86832F5F3F4F2417B8F3F5
:102160004093F7028091F90281608093F9026093B5
:10217000FA025093FB021092F8028091F9028B7FD1
:102180008093F9028091F90282608093F90285EAD6
:102190008093BC0081E0089580E00895982F80919D
:1021A000F90281FD23C02115310501F14093F702A9
:1021B0008091F9028E7F8093F9026093FA029093E6
:1021C000FB021092F8028091F9028B7F8093F90252
:1021D0008091F90282608093F90230930803209382
:1021E000070385EA8093BC0081E0089580E00895AC
:1021F0001F920F920FB60F9211242F933F934F937C
:102200005F936F937F938F939F93AF93BF93EF935E
:10221000FF938091B900803309F49FC0813388F423
:10222000883159F1893130F48830F1F0803109F08A
:10223000ACC01DC0803209F490C0883209F0A5C03E
:102240001FC0883409F489C0893438F4883309F40C
:1022500082C0803409F099C070C0803509F45BC039
:10226000883509F092C031C08091FB0203C0809193
:10227000FB0281608093BB006CC08091FA02FACFB0
:102280008091F90280FF67C09091F8028091F70277
:10229000981768F08091F9028D7F8093F902809100
:1022A000F90284608093F9021092FC026CC0E09104
:1022B000F802F0E0E950FD4F86818093BB008091E9
:1022C000F8028F5F8093F80244C0E0910703F09119
:1022D0000803309739F08091F802E80FF11D8091E2
:1022E000BB0080838091F8028F5F8093F802109288
:1022F00008031092070385E98093BC008091F902DE
:102300008D7F8093F9028091F90284608093F902B5
:102310001092FC0246C0E0910703F0910803309749
:1023200039F08091F802E80FF11D8091BB008083A5
:102330008091F8028F5F8093F8022091F7028091DC
:10234000F80230E090E001968217930714F485ECD0
:1023500026C085E824C085EA22C08091FC028B302B
:1023600020F085E00E948C2505C08091FC028F5FE3
:102370008093FC028091F9028D7F8093F902109284
:1023800008031092070385E90AC08091F9028D7F46
:102390008093F902109208031092070384E080935F
:1023A000BC00FF91EF91BF91AF919F918F917F9171
:1023B0006F915F914F913F912F910F900FBE0F90B2
:1023C0001F9018951F9310E501C011508091F902DC
:1023D00081FD04C08091BC0084FF05C082E30E949F
:1023E0008C3C1F3F91F71F9108958950934031F421
:1023F000E0912B03F0912C03099505C0809109030E
:1024000090E0882309F491E0892F0895FC0110825F
:102410000088F189E02D09950895FC01108212824F
:1024200084E1838314828583178216821186108645
:1024300081E0828713868FEF84871586778766878A
:10244000518B408B11820895FC0181E081830895B6
:10245000FC0111820895FA012FB7F89491E090835E
:10246000848365832FBF0895EF92FF920F931F938C
:102470008B017A0190E0A0E0B0E0BC01CD012BE43B
:1024800033E040E050E00E942B502CE330E040E08D
:1024900050E00E944A502E0D3F1DF80131872087E1
:1024A00012861F910F91FF90EF9008950F931F9345
:1024B000CF93DF938B01EA01863F910558F0805F4F
:1024C00090400E945612C45DD24FF801D187C08758
:1024D000128618C0682F70E080E090E02BE433E0B3
:1024E00040E050E00E942B502CE330E040E050E010
:1024F0000E944A502C0F3D1FF80131872087128619
:1025000017821682DF91CF911F910F910895FC01E0
:102510008285811181E008951F93CF93DF93EC01B1
:102520002881213061F59C858D85891730F58B8553
:10253000882351F0813001F51B811035D0F4E889F2
:10254000F98909951B8612C01C811A838D818B83A2
:10255000812F81508F3468F4CE010E94F5118130B3
:1025600019F4EE85FF85099581E08B871D8790E042
:1025700004C088E28D87FBCF2B879F5F9C87DF910C
:10258000CF911F9108950F931F93CF93DF93EC0189
:102590008B018A858823E9F58885998568177907ED
:1025A000C1F58E819F81009751F48981813021F49A
:1025B000E889F9890995188281E08A872AC0863FCF
:1025C000910560F0045D124F198708870C521D4079
:1025D0001A86A801BE01805F904019C0682F70E084
:1025E00080E090E02BE433E040E050E00E942B508C
:1025F0002CE330E040E050E00E944A50200F311FB1
:10260000398728871A86A801BE0180E090E00E94E1
:102610005612DF91CF911F910F910895DF92EF92A3
:10262000FF920F931F937C018B01DFB6F89481E03A
:10263000FB0180830E948D1DAC01B801C7010E947F
:102640005612DFBE1F910F91FF90EF90DF9008951B
:102650001F920F920FB60F9211242F933F934F9317
:102660005F936F937F938F939F93AF93BF93EF93FA
:10267000FF93DF93CF93CDB7DEB78FE00E948C2519
:10268000CF91DF91FF91EF91BF91AF919F918F918A
:102690007F916F915F914F913F912F910F900FBE5E
:1026A0000F901F901895DF93CF9300D000D00F921A
:1026B000CDB7DEB7A5E2B0E0E5E2F0E0808180686A
:1026C0008C93A4E2B0E0E4E2F0E0808180688C9337
:1026D000A4E2B0E0E4E2F0E0808181608C93A5E2C6
:1026E000B0E0E5E2F0E0808181608C93A1E2B0E0AF
:1026F000E1E2F0E0808182608C93A2E2B0E0E2E26D
:10270000F0E0808182608C930E940E3DA8950E942B
:10271000A0260E945F1E0E94BF148AE00E94E53B33
:102720000E94301B0E94BE188CEC98E12EEB38E121
:10273000EBE1F3E0AC01B901CF010E940D128BE196
:1027400093E00E94061280EB98E122EA38E1E9E08A
:10275000F3E0AC01B901CF010E940D1289E093E0D2
:102760000E94241289E093E00E9406120E94F21C4B
:10277000A5E5B0E0E5E5F0E080818F7E8C930E94D6
:1027800093190E94C71B78941C8207C0A8958AE001
:102790000E94E53B8C818F5F8C838C81883CB0F3F9
:1027A0000E94B0180E94CC180E940D1B0E94FC19B8
:1027B0000E9463280E94072D0E94FB210E94033083
:1027C0000E94E82C0E9461108AE00E94E53B1D8275
:1027D0000E94CB190E94731B0E948F1B0E94AB1B8F
:1027E0000E943B1B0E94E0190E94461980E00E9453
:1027F000BF17A8950E947C0B0E94DB0B0E941A0B4E
:102800000E94D91CAFE6B0E0EFE6F0E08081826084
:102810008C930E94331D0E946E38E6E2F0E08081C6
:1028200088236CF10E94500B0E94CE09813019F56B
:102830000E94DA180E945A4E0E94A71D813051F45E
:102840000E946A1C0E94AD1C0E948A010E942038CE
:102850000E945C3D86E393E00E94681780E00E943E
:10286000FF3181E00E94523581E00E94713581E0A4
:1028700080931E0202C00E94E839A895C3CF0E942F
:10288000CE09813099F51B820E94DA180E94E90B6B
:102890000E94AC070E945A4EA8950E946A2B0E9483
:1028A000A71D8130D1F40E946A1C0E94AD1C80914A
:1028B0001E02813031F410921E020E94E14D0E94EE
:1028C000B3320E948A010E94901D0E949C320E9495
:1028D00020380E946A2B0E945C3D0E94C0348130E7
:1028E00011F40E9447350E9482288CCF0E94422B0F
:1028F0008A838A81882359F10E946D2989830E94E5
:1029000028198130E9F489810E94B02B813041F48B
:10291000A5E2B0E0E5E2F0E080818F778C9310C013
:1029200089810E94E02B813059F4AFE6B0E0EFE6F8
:10293000F0E080818D7F8C930E9419310E949E7FF0
:1029400089810E94802B813011F40E94B7320E944D
:1029500049060E942819882309F054CF0E94E839BB
:1029600051CF2FB7F8949093200280931F02809547
:1029700090959093500180934F012FBF08958FEC55
:1029800080937E0010927B008EE180937A00089500
:10299000EAE7F0E08081806880830895EAE7F0E06C
:1029A00080818F778083089590917800809179005D
:1029B000382F20E0290F311DC901089587708093B9
:1029C0007C00EAE7F0E080818064808308951F93B3
:1029D0001FB7F89420911F023091200280914F017F
:1029E00090915001809590952817390779F08BE0E8
:1029F0000E948C258FEF9FEF9093500180934F01A1
:102A00001092200210921F0220E030E01FBFC90187
:102A10001F910895813011F48AEA06C0882319F0C5
:102A20008EE00E948C2585E580934E01089580916B
:102A30004E018A3A11F481E00895853511F480E061
:102A400008958EE00E948C2585E580934E0180E0FC
:102A50000895813011F48AEE06C0882319F08BE0C6
:102A60000E948C2585E180934D0108951F9310915C
:102A700051011F3729F11A3D09F04CC00E9417156A
:102A8000813099F480917A00806880937A0081E0A7
:102A90000E9429152B9A8FE78093510182E0809341
:102AA0007C0080917A00806408C01093510180E01E
:102AB0000E94291580917A008F7780937A0038C020
:102AC0002B983091780020917900922F80E0830F2D
:102AD000911D2FB7F8949093200280931F02809548
:102AE00090959093500180934F012FBF80917A0071
:102AF0008F7780937A0080917A00806880937A0043
:102B00008AED8093510180E00E940A1580E00E94C6
:102B100029150EC08AED8093510180E00E9429158D
:102B200080917A008F7780937A008EE00E948C25C6
:102B30001F9108951F920F920FB60F9211242F9399
:102B40003F934F935F936F937F938F939F93AF9335
:102B5000BF93EF93FF930E943615FF91EF91BF91C2
:102B6000AF919F918F917F916F915F914F913F9125
:102B70002F910F900FBE0F901F90189580914D01CF
:102B80008A3E11F481E00895853111F480E00895C2
:102B90008BE00E948C2585E180934D0180E00895B3
:102BA0000E94BE1508950E94BE1590E0813009F084
:102BB00091E0892F0895813011F483E506C08823C0
:102BC00019F08BE00E948C258CEA80934C010895CB
:102BD0000E94BE15882321F40E94DB150E94361541
:102BE000089580914C01833511F481E008958C3A69
:102BF00011F480E008958BE00E948C258CEA80938C
:102C00004C0180E00895FC019FB7F89482818F7E8B
:102C1000828381818370818382818C7F82838281A0
:102C2000837F8283108281818C7F81839FBF0895FF
:102C3000FC013FB7F89421812695269592819295C3
:102C4000990F990F907C828186958695692F622BCA
:102C5000782F737080819181AC0153703FBF6417EE
:102C6000750710F09B0103C09B0120503C4F241BB3
:102C7000350BC9010895DF93CF9300D0CDB7DEB7F0
:102C8000FC013FB7F8942181269526959281929573
:102C9000990F990F907C828186958695692F622B7A
:102CA000782F737080819181AC0153703FBF64179E
:102CB000750710F0CB0103C0CB0180509C4F841BE3
:102CC000950B8F3F910511F008F08FEF0F900F904B
:102CD000CF91DF910895FC013FB7F89421812695AB
:102CE000269592819295990F990F907C8281869575
:102CF0008695692F622B782F737080819181AC014A
:102D000053703FBF6417750710F0CB0103C0CB01B0
:102D100080509C4F841B950B2FEF33E0281B390B01
:102D2000C9010895DF93CF9300D0CDB7DEB7FC0182
:102D30003FB7F89421812695269592819295990F17
:102D4000990F907C828186958695692F622B782FCA
:102D5000737080819181AC0153703FBF6417750718
:102D600010F0CB0103C0CB0180509C4F841B950B0E
:102D70002FEF33E0281B390B2F3F310519F010F0EE
:102D80008FEF01C0822F0F900F90CF91DF910895A8
:102D90009C012F5F3F4F84E02030380710F020E087
:102DA00030E0C9010895DC017FB7F89411962C91A9
:102DB00011972695269512969C9112979295990FA8
:102DC000990F907C12968C91129786958695E92F93
:102DD000E22BF82FF370AF014F5F5F4F84E040307C
:102DE000580711F440E050E08C9111962C91119706
:102DF000922F93708417950739F1EA0FFB1F6383B5
:102E00009A013370922F990F990F11968C91119707
:102E10008370892B11968C931197922F929596958A
:102E20009695937012968C9112978C7F892B12969F
:102E30008C931297932F9370990F990F12968C91F0
:102E40001297837F892B04C012968C911297806110
:102E500012968C937FBF0895DC016FB7F8948C9124
:102E600011969C911197AC01537011969C911197FA
:102E70009695969512968C9112978295880F880F49
:102E8000807C282F292B12968C91129786958695F7
:102E9000382F33704217530711F420E016C0FD019C
:102EA000E40FF51F2381CA01019634E080309307B7
:102EB00010F080E090E093708C93937011968C9159
:102EC00011978C7F892B11968C936FBF822F089559
:102ED000FC019FB7F894108281818C7F818381816E
:102EE0008370818382818C7F82838281837F8283CE
:102EF00082818F7E82839FBF0895680F791F84E04F
:102F00006030780710F060507440CB010895DC0108
:102F10003FB7F8948C9111962C911197922F937042
:102F2000FC013197E60FF71F84E0E030F80710F05E
:102F3000E050F440EA0FFB1F83813FBF0895DF9309
:102F4000CF9300D0CDB7DEB78091520189838981BC
:102F50008D3D19F481E08A830CC08981823211F49D
:102F60001A8207C087E10E948C2582E28093520179
:102F70001A828A810F900F90CF91DF910895DF938D
:102F8000CF930F92CDB7DEB789838981813021F449
:102F90008DED809352010DC08981882321F482E256
:102FA0008093520106C087E10E948C2582E28093C3
:102FB00052010F90CF91DF910895DF93CF9300D00E
:102FC00000D0CDB7DEB7809153018B838B818C3ECF
:102FD00019F481E08C8323C08B81833111F41C822E
:102FE0001EC0809154018095898389818C3E31F483
:102FF0008CEE8093530181E08C8311C089818331F1
:1030000029F483E1809353011C8209C01A8283E171
:10301000809353018CEE809354018A818C838C8140
:103020000F900F900F900F90CF91DF910895DF9345
:10303000CF9300D0CDB7DEB78A838A81813019F46F
:103040008CEE898308C08A81882319F483E18983FF
:1030500002C083E1898389818093530189818095AE
:10306000809354010F900F90CF91DF910895DF93DB
:10307000CF930F92CDB7DEB78983898180932102E8
:10308000898180958093550199818AEA8927809367
:1030900056010F90CF91DF910895DF93CF9300D029
:1030A00000D00F92CDB7DEB7809121028D83809141
:1030B00055018C83809156018B838C8180958C8304
:1030C0009B818AEA89278B839D818C81981719F4CB
:1030D0008D8189832EC09D818B81981739F48D81D4
:1030E0008095809355018D81898323C09C818B813C
:1030F000981731F48C81809321028C81898319C0C7
:103100009C818B81982B8D81292F28239C818B81F9
:103110008923822B8A838A81809321028A818095E8
:10312000809355019A818AEA8927809356018A8182
:10313000898389810F900F900F900F900F90CF91FE
:10314000DF910895DF93CF93CDB7DEB7A2E2B0E071
:10315000E2E2F0E0808182608C93CF91DF9108956C
:10316000DF93CF93CDB7DEB7A2E2B0E0E2E2F0E0CA
:1031700080818D7F8C93CF91DF910895DF93CF93E2
:10318000CDB7DEB7A5E2B0E0E5E2F0E08081816096
:103190008C93CF91DF910895DF93CF93CDB7DEB7B6
:1031A000A5E2B0E0E5E2F0E080818E7F8C93CF91E4
:1031B000DF910895DF93CF930F92CDB7DEB70E94D2
:1031C000DD17813009F5E3E2F0E08081882F90E09F
:1031D000807490700097A1F40E944D1889838981B2
:1031E0008F5F89838981833338F080E00E943718AC
:1031F00080E00E94171828C089810E94371824C0D7
:1032000080E00E94371820C0E3E2F0E08081882F40
:1032100090E0807490700097A1F00E944D1889830F
:1032200089818F5F89838981833338F080E00E94B0
:10323000371881E00E94171807C089810E9437184B
:1032400003C080E00E9437180F90CF91DF9108955E
:10325000DF93CF93CDB7DEB70E94DD17CF91DF911B
:103260000895DF93CF9300D0CDB7DEB70E94DD176E
:1032700089838981813011F41A8202C081E08A83B6
:103280008A810F900F90CF91DF910895DF93CF93B4
:10329000CDB7DEB7ABE3B0E0EBE3F0E08081886070
:1032A0008C93A8E6B0E0E8E6F0E0808188608C933B
:1032B000A3E7B0E0E3E7F0E0808180618C93CF91F9
:1032C000DF910895DF93CF93CDB7DEB7A3E7B0E0EA
:1032D000E3E7F0E080818F7E8C93CF91DF910895BA
:1032E000DF93CF93CDB7DEB7ABE6B0E0EBE6F0E02F
:1032F00080818F7D8C93CF91DF910895DF93CF9361
:10330000CDB7DEB7A8E6B0E0E8E6F0E08081816006
:103310008C93ABE6B0E0EBE6F0E0808180628C93CA
:10332000CF91DF910895DF93CF93CDB7DEB7A3E7B9
:10333000B0E0E3E7F0E0808180628C93A8E6B0E043
:10334000E8E6F0E0808188608C93CF91DF9108956A
:10335000DF93CF93CDB7DEB7A8E6B0E0E8E6F0E0C4
:103360008081877F8C93CF91DF910895DF93CF93F6
:10337000CDB7DEB7A0E6B0E0E0E6F0E08081877F81
:103380008C93A0E6B0E0E0E6F0E080818F7B8C9348
:10339000CF91DF910895DF93CF93CDB7DEB7A0E54E
:1033A000B0E0E0E5F0E080818F7B8C93A0E5B0E0B9
:1033B000E0E5F0E0808180688C93CF91DF91089503
:1033C000DF93CF93CDB7DEB7A5E5B0E0E5E5F0E05C
:1033D000808180688C93CF91DF910895DF93CF93A4
:1033E000CDB7DEB7A5E5B0E0E5E5F0E080818F7709
:1033F0008C93CF91DF910895DF93CF93CDB7DEB754
:10340000A5E2B0E0E5E2F0E0808180688C93A4E280
:10341000B0E0E4E2F0E0808180688C93ABE2B0E061
:10342000EBE2F0E0808181608C93AAE2B0E0EAE216
:10343000F0E080818E7F8C93ABE2B0E0EBE2F0E0D5
:10344000808182608C93AAE2B0E0EAE2F0E08081C1
:103450008D7F8C93ABE2B0E0EBE2F0E080818F7D7A
:103460008C93AAE2B0E0EAE2F0E080818F7D8C9359
:10347000ABE2B0E0EBE2F0E0808180648C93AAE202
:10348000B0E0EAE2F0E0808180648C93A8E2B0E0F2
:10349000E8E2F0E080818F778C93A7E2B0E0E7E28A
:1034A000F0E080818F778C93A8E2B0E0E8E2F0E072
:1034B00080818F7B8C93A7E2B0E0E7E2F0E080812F
:1034C00080648C93ABE2B0E0EBE2F0E08081877F38
:1034D0008C93AAE2B0E0EAE2F0E0808188608C930D
:1034E000A2E2B0E0E2E2F0E080818B7F8C93A1E287
:1034F000B0E0E1E2F0E080818B7F8C93A2E2B0E06B
:10350000E2E2F0E08081877F8C93A1E2B0E0E1E22B
:10351000F0E08081877F8C93A2E2B0E0E2E2F0E00D
:1035200080818F778C93A1E2B0E0E1E2F0E08081CE
:103530008F778C93A2E2B0E0E2E2F0E080818D7FB1
:103540008C93A1E2B0E0E1E2F0E0808182608C93B4
:10355000A5E2B0E0E5E2F0E080818E7F8C93A4E20A
:10356000B0E0E4E2F0E0808181608C93A5E2B0E01D
:10357000E5E2F0E0808180628C93A4E2B0E0E4E2D6
:10358000F0E080818F7D8C93ABE2B0E0EBE2F0E085
:10359000808180618C93AAE2B0E0EAE2F0E0808171
:1035A0008F7E8C93A5E2B0E0E5E2F0E08081877F3A
:1035B0008C93A4E2B0E0E4E2F0E0808188608C9338
:1035C000A5E2B0E0E5E2F0E080818F7B8C93A4E29D
:1035D000B0E0E4E2F0E080818F7B8C93A2E2B0E087
:1035E000E2E2F0E080818F7D8C93A1E2B0E0E1E245
:1035F000F0E080818F7D8C93A2E2B0E0E2E2F0E027
:1036000080818F7E8C93A1E2B0E0E1E2F0E08081E6
:103610008F7E8C93CF91DF910895DF93CF93CDB7B9
:10362000DEB7E2E2F0E08FEF8083E1E2F0E01082CB
:10363000E5E2F0E08FEF8083E4E2F0E01082E8E280
:10364000F0E08FEF8083E7E2F0E01082EBE2F0E061
:103650008FEF8083EAE2F0E01082CF91DF9108954E
:10366000DF93CF93CDB7DEB70E940D1B0E94FC19EC
:10367000CF91DF910895DF93CF93CDB7DEB7A4E666
:10368000B0E0E4E6F0E080818F778C93A4E6B0E0D0
:10369000E4E6F0E0808180648C93A4E6B0E0E4E6A8
:1036A000F0E080818F7D8C93A4E6B0E0E4E6F0E06A
:1036B0008081877F8C93A4E6B0E0E4E6F0E080812F
:1036C0008B7F8C93A4E6B0E0E4E6F0E080818E7F0F
:1036D0008C93A4E6B0E0E4E6F0E080818D7F8C93EB
:1036E000CF91DF910895DF93CF93CDB7DEB7A5E4F7
:1036F000B0E0E5E4F0E080818B7F8C93A5E4B0E05E
:10370000E5E4F0E080818D7F8C93A5E4B0E0E5E412
:10371000F0E080818E7F8C93CF91DF910895DF93CD
:10372000CF93CDB7DEB7A1EBB0E0E1EBF0E0808165
:103730008B7F8C93A1EBB0E0E1EBF0E080818D7F9B
:103740008C93A1EBB0E0E1EBF0E080818E7F8C9375
:10375000CF91DF910895DF93CF93CDB7DEB7ACE47F
:10376000B0E0ECE4F0E080818F7B8C93CF91DF912F
:103770000895DF93CF93CDB7DEB7ACEBB0E0ECEBC1
:10378000F0E080818B7F8C93CF91DF910895DF9360
:10379000CF930F92CDB7DEB7EFE5F0E0808189835C
:1037A000F894ABE3B0E0EBE3F0E0808182608C93CF
:1037B000ACE6B0E0ECE6F0E0808180628C93A8E6B5
:1037C000B0E0E8E6F0E0808182608C93EFE5F0E025
:1037D000898180830F90CF91DF910895DF93CF93FC
:1037E0000F92CDB7DEB7EFE5F0E080818983F894E2
:1037F000A8E6B0E0E8E6F0E080818D7F8C93ABE353
:10380000B0E0EBE3F0E0808182608C93EFE5F0E0E4
:10381000898180830F90CF91DF910895FC01108200
:1038200081818E7F81830895FC01818180FD1082DA
:103830000895FC0181818160818310820895FC01DB
:10384000818180FF1CC09081492F4F77842F8F5F2B
:103850008F779078982B9083841718F49078942B16
:1038600090834081842F8F7790E0262F30E02817B7
:1038700039072CF44068408381818E7F81830895CD
:10388000FC018081881F8827881F0895FC018181A1
:1038900081700895FC0181818E7F818380818068A1
:1038A000808381E0089510922F03809130038E7FF2
:1038B0008093300308958091300380FF02C01092FE
:1038C0002F0308958091300381608093300310921C
:1038D0002F0308958091300380FF21C090912F0322
:1038E000292F2F77822F8F5F8F779078982B909347
:1038F0002F03821720F49078922B90932F0320911E
:103900002F03822F8F7790E08937910544F020684C
:1039100020932F03809130038E7F8093300308958E
:1039200080912F03881F8827881F089510922D03E8
:1039300080912E038E7F80932E03089580912E0315
:1039400080FF02C010922D03089580912E038160A4
:1039500080932E0310922D03089580912E0380FFF3
:1039600021C090912D03292F2F77822F8F5F8F7782
:103970009078982B90932D03821720F49078922BB7
:1039800090932D0320912D03822F8F7790E089371C
:10399000910544F0206820932D0380912E038E7FA3
:1039A00080932E03089580912D03881F8827881FF8
:1039B000089580912E038E7F80932E03EEE2F3E034
:1039C0008291806880830895809184009091850021
:1039D00020918400309185008217930708F49C01A0
:1039E000C901089582E08093810080E8809382007D
:1039F00081E080936F0087E286BB089581E0809329
:103A00008100EFE6F0E080818E7F808380818D7F72
:103A10008083089582E080938100EFE6F0E080816A
:103A20008160808308958091570190915801209181
:103A3000220230912302809590958217930769F0B6
:103A40008AE10E948C258FEF9FEF9093580180931D
:103A500057011092230210922202209122023091EB
:103A60002302C90108951F93CF93DF931FB7F894E2
:103A70002091840030918500809184009091850090
:103A8000B09908C0EC012817390708F4E9010E9431
:103A9000131D0FC08091840090918500C091840017
:103AA000D09185008C179D0708F4EC010E94131D2E
:103AB00001961FBF9C0140E050E0A9013327222757
:103AC000CE01A0E0B0E0280F391F4A1F5B1F83E042
:103AD000220F331F441F551F8A95D1F7B901CA0120
:103AE000DF91CF911F910895EF92FF920F931F9353
:103AF0007B018C010E94331DE60EF71E081F191F63
:103B000002C00E94331D6E157F0580079107C8F320
:103B10001F910F91FF90EF9008950E94131D08953B
:103B20001F931FB7F8949091270280915A018095B6
:103B3000981749F08AE10E948C258FEF80935A01F3
:103B40001092270290E01FBF892F1F910895809146
:103B500059018E3851F0813731F08AE10E948C256D
:103B600081E78093590180E0089581E780935901AE
:103B700081E008951F920F920FB60F9211240F93B8
:103B80001F932F933F934F935F936F937F938F93E5
:103B90009F93AF93BF93EF93FF930E94131D8C01EC
:103BA0000F5F1F4F1093230200932202C8018095DC
:103BB00090959093580180935701B80189E093E064
:103BC0000E94C312B8018BE193E00E94C312FF91DF
:103BD000EF91BF91AF919F918F917F916F915F9185
:103BE0004F913F912F911F910F910F900FBE0F900A
:103BF0001F9018951F920F920FB60F9211241F93CA
:103C00002F933F934F935F936F937F938F939F93E4
:103C1000AF93BF93EF93FF9380912502909126027B
:103C20008050964A909326028093250290938900B3
:103C3000809388000E9404298BE193E00E948C12FB
:103C400089E093E00E948C12809124028F5F809320
:103C50002402883210F18EE8809359011FB7F8943E
:103C60009091270280915A018095981749F08AE136
:103C70000E948C258FEF80935A011092270290E0CA
:103C80001FBF892F8F5F9FB7F8948093270280957D
:103C900080935A019FBF10922402FF91EF91BF9130
:103CA000AF919F918F917F916F915F914F913F91D4
:103CB0002F911F910F900FBE0F901F90189580E0CD
:103CC00090E020E80FB6F8942093610080936100A3
:103CD0000FBE089590E80FB6F8949093610080931A
:103CE00061000FBE089580912E02882311F080E0BC
:103CF00008958091320290913302AC0123E0440F89
:103D0000551F2A95E1F7480F591F80912F02909176
:103D100030028417950740F480912F029091300271
:103D20009A01281B390B06C020912F0230913002D6
:103D3000241B350B80E02436310508F481E008951A
:103D40001F93182F0E945A275E9885E00E94E53B3A
:103D50001093660085E00E94E53B809173008160CE
:103D6000809373004D99FECF0E94FC270E94B02FD4
:103D70000E9467278130E1F384E10E94E53B84E102
:103D80000E94E53B84E10E94E53B84E10E94E53B23
:103D900084E10E94E53B84E10E94E53B84E10E94CE
:103DA000E53B84E10E94E53B1F9108955F926F928D
:103DB0007F928F929F92AF92BF92CF92DF92EF92BB
:103DC000FF920F931F93CF93DF938FB7F894509088
:103DD0007300109273008FBF0E94E0270E94FC279F
:103DE0009FB7F8946090C1008091C1008F77809355
:103DF000C1008091C1008F7B8093C1008091C10080
:103E000080628093C10070906F0010926F0080906C
:103E1000730090906D00A0906C00B0906B001092B9
:103E2000730010926D0010926C0010926B008091E4
:103E30007300816080937300C0907A0080917A0053
:103E4000877F80937A009FBF0E941D2800E0CFEFFC
:103E5000DFEF1FE7B0ECEB2EB6E0FB2E812F0E94C8
:103E6000A01E80912E02882309F046C08091320264
:103E700090913302AC01A3E0440F551FAA95E1F7DE
:103E8000480F591F80912F02909130028417950797
:103E900040F480912F02909130029A01281B390B37
:103EA00006C020912F0230913002241B350B24369E
:103EB000310510F580912F0290913002805C964080
:103EC00038F080912F0290913002805C964008C0BB
:103ED00080912F02909130029701281B390BC90164
:103EE0008C179D0710F4012FEC0180912F02909107
:103EF0003002805C964028F0A8951450133009F0E9
:103F0000ADCF002309F463C0FAEFDF2ED00E802F6F
:103F10008A5F87FF02C01FE753C0182F51C0812F4F
:103F20000E94A01E80912E02882309F046C0809135
:103F3000320290913302AC01E3E0440F551FEA9541
:103F4000E1F7480F591F80912F029091300284179A
:103F5000950740F480912F02909130029A01281B1E
:103F6000390B06C020912F0230913002241B350BF3
:103F70002436310510F580912F0290913002805C3B
:103F8000964038F080912F0290913002805C9640EC
:103F900008C080912F02909130029701281B390BA5
:103FA000C9018C179D0710F4012FEC0180912F029D
:103FB00090913002805C964050F0A895115004C05A
:103FC00070ECE72E76E0F72ED11608F4A8CF802FFC
:103FD00081508C3728F4DD24EE24EA94FE2CC2C0F4
:103FE000DD24EE24EA94FE2C10E8C0ECD6E0812F0C
:103FF0000E94A01E80912E02882309F047C0809164
:10400000320290913302AC0163E0440F551F6A9570
:10401000E1F7480F591F80912F02909130028417C9
:10402000950740F480912F02909130029A01281B4D
:10403000390B06C020912F0230913002241B350B22
:104040002436310518F580912F0290913002815C61
:10405000964048F480912F02909130029E01281BD7
:10406000390BC90106C080912F0290913002805C0B
:1040700096403FEF8F3F930711F0D12E7C01809146
:104080002F0290913002815C964028F4A8951C5F25
:104090001C3F09F0ACCFDD2009F461C08D2D8650A6
:1040A0000D2D0A5F87FD02C010E854C0182F52C0C2
:1040B000812F0E94A01E80912E02882309F047C004
:1040C0008091320290913302AC0133E0440F551FCE
:1040D0003A95E1F7480F591F80912F0290913002D5
:1040E0008417950740F480912F02909130029A0135
:1040F000281B390B06C020912F0230913002241B5F
:10410000350B2436310518F580912F02909130023D
:10411000805C964038F080912F0290913002805C54
:10412000964008C080912F02909130029E01281B7A
:10413000390BC9013FEF8F3F930711F0D12E7C015E
:1041400080912F0290913002815C964040F4A895B6
:104150001F5F02C0C0ECD6E0101708F4A9CF00E042
:10416000CFEFDFEF0E9447288FB7F8946092C1002D
:1041700070926F008092730090926D00A0926C001C
:10418000B0926B00C0927A008FBF0E94E0278FB779
:10419000F894509273008FBFCE15DF0528F4E29794
:1041A00070F40093660006C032E3E316F10438F4BD
:1041B000D092660085E00E94E53B81E007C084E67E
:1041C0008093660085E00E94E53B80E0DF91CF911F
:1041D0001F910F91FF90EF90DF90CF90BF90AF9025
:1041E0009F908F907F906F905F9008954F925F9215
:1041F0006F927F928F929F92AF92BF92CF92DF92F7
:10420000EF92FF920F931F93CF93DF93F09066008E
:104210008FB7F89440907300109273008FBF0E9484
:10422000E0270E94FC279FB7F8945090C10080912E
:10423000C1008F778093C1008091C1008F7B8093F4
:10424000C1008091C10080628093C10060906F00C6
:1042500010926F007090730080906D0090906C00D1
:10426000A0906B001092730010926D0010926C0081
:1042700010926B0080917300816080937300B09006
:104280007A0080917A00877F80937A009FBF0E9496
:104290001D281F2D13501B3F20F48F2D8D57863066
:1042A00050F40E94D61E813009F064C0009166006F
:1042B000C0E0D0E062C043E0E42EEF0C00E0CFEFBE
:1042C000DFEF30ECC32E36E0D32E50C0812F0E949A
:1042D000A01E80912E02882309F046C080913202F0
:1042E00090913302AC0123E0440F551F2A95E1F76A
:1042F000480F591F80912F02909130028417950723
:1043000040F480912F02909130029A01281B390BC2
:1043100006C020912F0230913002241B350B243629
:10432000310510F580912F0290913002805C96400B
:1043300038F080912F0290913002805C964008C046
:1043400080912F02909130029601281B390BC901F0
:104350008C179D0710F4012FEC0180912F02909192
:104360003002815C964048F4A8951F5F1E1508F442
:10437000ADCF03C000E0CFEFDFEF0E9447288FB73B
:10438000F8945092C10060926F0070927300809216
:104390006D0090926C00A0926B00B0927A008FBF7B
:1043A0000E94E0278FB7F894409273008FBFE29786
:1043B00038F40093660085E00E94E53B81E00AC086
:1043C0000E94D61E813031F0F092660085E00E9496
:1043D000E53B80E0DF91CF911F910F91FF90EF902F
:1043E000DF90CF90BF90AF909F908F907F906F9015
:1043F0005F904F9008951F9380E090E00E94AB2360
:104400008130B1F480E090E00E945A23182F80930D
:10441000660085E00E94E53B0E94F620813029F489
:1044200080916600811739F109C01093660023C09E
:104430000E94D61E8130B1F48091660080916600A2
:1044400060E070E00E94D22210916600612F8FEF31
:1044500097E00E94187C1095612F8EEF97E00E94E4
:10446000187C09C084E68093660085E00E94E53BE5
:1044700087E00E948C251F910895DF93CF93CDB7DD
:10448000DEB7CF91DF91089580913103089580E0E8
:1044900090E02FEFA895F999FECFF999FECF1FBABA
:1044A00092BD81BD20BD0FB6F894FA9AF99A0FBE5D
:1044B000F999FECF019638E08030930759F70895B7
:1044C000F999FECFF999FECF92BD81BDF89A80B5DA
:1044D000F999FECF0895F999FECFF999FECF1FBA49
:1044E00092BD81BD60BD0FB6F894FA9AF99A0FBEDD
:1044F000F999FECF81E00895DC01FB0120E030E076
:1045000010C0F999FECFF999FECFC9018A0F9B1F00
:1045100092BD81BDF89A80B5F999FECF81932F5F46
:104520003F4F241770F381E00895DC01FB0120E088
:1045300030E016C05081F999FECFF999FECF1FBA2D
:10454000C9018A0F9B1F92BD81BD50BD0FB6F89463
:10455000FA9AF99A0FBEF999FECF2F5F3F4F319625
:10456000241740F381E00895DF93CF9300D00F929A
:10457000CDB7DEB719821A821B829C01220F331F2E
:10458000280F391F220F331F43E0BE016F5F7F4F9B
:10459000C90103960E9495220F900F900F90CF9122
:1045A000DF9108958F929F92AF92BF92CF92DF9248
:1045B000EF92FF920F931F93DF93CF9300D000D021
:1045C00000D0CDB7DEB78B01898380958A836E01D9
:1045D0000894C11CD11CC6010E94CF2381E0043580
:1045E000180728F080E00E948C2580E050C07801F8
:1045F000EE0CFF1CE00EF11EEE0CFF1C73E0A72E6C
:10460000B12CAE0CBF1C10E0460164E0C62ED12CCC
:10461000CC0EDD1E43E0B401C5010E949522082F97
:1046200043E0B601C5010E947C22C6010E946325B9
:104630008C8180959D81981709F401E01F5F1330EC
:1046400011F0002339F310E05E010894A11CB11CA5
:1046500054E0C52ED12CCC0EDD1E43E0B501C701C0
:104660000E949522082F43E0B601C7010E947C22D8
:10467000C6010E9463258C8180959D81981709F45D
:1046800001E01F5F133011F0002339F381E026961B
:104690000FB6F894DEBF0FBECDBFCF91DF911F9153
:1046A0000F91FF90EF90DF90CF90BF90AF909F90D1
:1046B0008F900895CF92DF92EF92FF920F931F9306
:1046C000DF93CF9300D000D000D0CDB7DEB76C0120
:1046D0007C01EE0CFF1CE80EF91EEE0CFF1C43E003
:1046E0008E010F5F1F4FB801C7010E947C22C801D5
:1046F0000E9463250981902F90958A818917D9F0AE
:104700008E010C5F1F4F43E0B801C70103960E9462
:104710007C22C8010E9463250C81902F90958D8189
:10472000891729F080E00E948C2500E004C0B601C2
:10473000802F0E94D222802F26960FB6F894DEBFDB
:104740000FBECDBFCF91DF911F910F91FF90EF90E2
:10475000DF90CF900895FF920F931F938C0180E01C
:104760000E942426F82E80E00E94DC25C8010E94C9
:104770005A23082F80E00E942426882311F000E0AD
:1047800003C00093310301E081E0F81619F080E0E6
:104790000E94DC25802F1F910F91FF900895FC014E
:1047A0008181828320812183422F50E040785070A4
:1047B0005595479555954795822F90E08074907058
:1047C000A3E095958795AA95E1F7480F822F90E091
:1047D0008072907073E0959587957A95E1F7480F10
:1047E000822F90E08071907063E0959587956A952F
:1047F000E1F7480F40832A7D022E22952025022EC4
:1048000026952695202530E02F5F3F4F359527953B
:1048100020FF02C0406840838181867B082E8295FC
:104820008025082E86958695802590E001969595A1
:10483000879580FF03C08081806480838181817738
:10484000082E82958025082E86958695802590E0F5
:1048500001969595879580FF03C080818061808354
:1048600081818F70082E82958025082E86958695E9
:10487000802590E001969595879580FF03C0808103
:1048800081608083818190E0A4E0880F991FAA95C0
:10489000E1F7228130E02078307076E03595279579
:1048A0007A95E1F7280F218382818A7D082E8295EF
:1048B0008025082E86958695802590E00196959511
:1048C000879580FF02C0286021838281867B082E25
:1048D00082958025082E86958695802590E0019604
:1048E0009595879580FF03C0818184608183828153
:1048F0008177082E82958025082E869586958025BD
:1049000090E001969595879580FF03C08181816035
:1049100081832281422F4F70842F082E829580251B
:10492000082E86958695802590E001969595879529
:1049300030E080FF07C0220F331F822F807E840F5C
:10494000806106C0220F331F822F807E840F8F7EEE
:1049500082830895DC016C91462F50E011967C9182
:1049600011979A012A72307035952795872F807A92
:10497000820F082E82958025082E869586958025A3
:1049800090E001969595879580FF02C0E0E801C010
:10499000E0E09A012672307035952795872F807652
:1049A000820F082E82958025082E86958695802573
:1049B00090E001969595879580FDE064362F3E70D6
:1049C000872F8071830F082E82958025082E86956B
:1049D0008695802590E001969595879580FDE0620B
:1049E000872F807F082E82958025082E86958695B4
:1049F000802590E001969595879580FDE061CA013C
:104A0000807C907024E0959587952A95E1F7407118
:104A1000507093E0559547959A95E1F7840F262FAE
:104A20002170820F8E0F282F2295207F2827207F2C
:104A300061F4932F990F990F990F6072660F660FAB
:104A4000960F72957F70970F3CC0203859F1203433
:104A500049F1203239F1203129F1203C11F480E272
:104A600003C0203A21F488E068276C931BC02036ED
:104A700011F484E0F9CF203E11F482E0F5CF203923
:104A800011F470580CC0203511F480E407C0203DAB
:104A900011F480E203C0203329F480E178271196D5
:104AA0007C9311978C91982F9E70990F990F990F65
:104AB0008072880F880F980F11968C9182958F7055
:104AC000980F892F08950F931F938C010E94AA2499
:104AD000F8018193D80111969C9111979295907F3E
:104AE00012968C91129782958F70980F11969C93C5
:104AF000119712968C91129790E024E0880F991FDD
:104B00002A95E1F712968C93CF010E94AA24F8010E
:104B100081831F910F910895DF93CF9300D000D030
:104B20000F92CDB7DEB78B838B81882321F08B81E9
:104B30000E94242689838B818032B0F58B81882F57
:104B400090E0887F9D838C838C819D8199232CF4B8
:104B50008C819D8107969D838C838C819D81959509
:104B6000879595958795959587958A838A81482F0E
:104B700050E08A81882F90E0FC01EE5CFC4F808140
:104B8000682F8B81882F90E09C012770307081E026
:104B900090E0022E02C0880F991F0A94E2F7862B3C
:104BA000FA01EE5CFC4F80830F900F900F900F90F6
:104BB0000F90CF91DF910895DF93CF9300D000D075
:104BC000CDB7DEB78A838A818032B8F58A81882F93
:104BD00090E0887F9C838B838B819C8199232CF42C
:104BE0008B819C8107969C838B838B819C8195957F
:104BF0008795959587959595879589838981482F80
:104C000050E08981882F90E0FC01EE5CFC4F8081B0
:104C1000682F8A81882F90E09C012770307081E096
:104C200090E0022E02C0880F991F0A94E2F7809547
:104C30008623FA01EE5CFC4F80830F900F900F905B
:104C40000F90CF91DF910895DF93CF9300D000D0E4
:104C50000F92CDB7DEB78A838A81803218F041E0A7
:104C60004B8336C08A81882F90E0887F9D838C8318
:104C70008C819D81992334F44C815D81495F5F4F24
:104C80005D834C838C819D819595879595958795BE
:104C90009595879589838981882F90E0FC01EE5C4A
:104CA000FC4F8081282F30E08A81882F90E0877028
:104CB0009070A90102C0559547958A95E2F7CA01FF
:104CC00081709070882319F051E05B8301C01B82D2
:104CD0008B810F900F900F900F900F90CF91DF91DD
:104CE0000895DF93CF9300D000D0CDB7DEB71B82FD
:104CF0001A82198212C08981882F90E0FC01EE5C33
:104D0000FC4F8081282F30E08A819B81820F931F86
:104D10009B838A8389818F5F89838981843058F35B
:104D20008A819B81009711F01C8202C081E08C83F4
:104D30008C810F900F900F900F90CF91DF9108957D
:104D4000DF93CF930F92CDB7DEB719820AC0898166
:104D5000882F90E0FC01EE5CFC4F108289818F5F10
:104D600089838981843098F30F90CF91DF910895E2
:104D7000DF93CF93CDB7DEB79091290280912802BF
:104D8000292F281B822F8F73CF91DF910895DF93F6
:104D9000CF930F92CDB7DEB78983809129028F5FC1
:104DA00080932902809129028F7380932902809138
:104DB0002902882F90E0FC01E75CF84F898180830D
:104DC0009091290280912802981769F48091280215
:104DD0008F5F80932802809128028F73809328022E
:104DE00081E080932A020F90CF91DF910895DF93A5
:104DF000CF9300D0CDB7DEB79091290280912802E1
:104E00009817B1F0809128028F5F809328028091DB
:104E100028028F738093280280912802882F90E0C7
:104E2000FC01E75CF84F8081898389818A8301C016
:104E30001A828A810F900F90CF91DF910895DF93AE
:104E4000CF93CDB7DEB79091290280912802292F08
:104E5000281B822F80958F73CF91DF910895DF9368
:104E6000CF9300D000D0CDB7DEB78B8380912802DE
:104E700089839091290280912802981791F0998155
:104E80008B81890F898389818F7389838981882F99
:104E900090E0FC01E75CF84F80818A838A818C83F3
:104EA00001C01C828C810F900F900F900F90CF91BA
:104EB000DF910895DF93CF93CDB7DEB7109228022C
:104EC0001092290210922A02CF91DF910895DF9368
:104ED000CF9300D0CDB7DEB780915B018983898104
:104EE0008F3A19F481E08A830DC08981803511F4ED
:104EF0001A8208C085E10E948C258FEA80935B01AD
:104F000081E08A838A810F900F90CF91DF9108957D
:104F1000DF93CF930F92CDB7DEB78983898181303C
:104F200021F48FEA80935B010DC08981882321F4ED
:104F300080E580935B0106C085E10E948C258FEAA5
:104F400080935B010F90CF91DF910895DF93CF9312
:104F5000CDB7DEB780912E02CF91DF910895DF9318
:104F6000CF9300D0CDB7DEB780912E02813019F4F7
:104F70001A82198206C080912F02909130029A8382
:104F8000898389819A810F900F90CF91DF91089545
:104F9000DF93CF930F92CDB7DEB7E0ECF0E08081E6
:104FA000882F90E080749070009721F00E9467270E
:104FB000898301C0198289810F90CF91DF91089573
:104FC000DF93CF930F92CDB7DEB7EFE5F0E08081AE
:104FD0008983F8940E940A1D10922E0210923002CA
:104FE00010922F020E944728EFE5F0E0898180832C
:104FF0000F90CF91DF910895DF93CF930F92CDB7AC
:10500000DEB7EFE5F0E080818983F8940E94FE1C12
:1050100081E080932E021092300210922F021092A3
:1050200031021092330210923202EFE5F0E08981F2
:1050300080830F90CF91DF910895DF93CF93CDB709
:10504000DEB7A1ECB0E0E1ECF0E0808188608C9309
:10505000A1ECB0E0E1ECF0E080818F7E8C93ABE3DB
:10506000B0E0EBE3F0E0808188608C93A8E6B0E0EC
:10507000E8E6F0E0808188608C93A3E7B0E0E3E7A6
:10508000F0E0808181608C93CF91DF910895DF9370
:10509000CF93CDB7DEB7A3E7B0E0E3E7F0E08081E0
:1050A0008E7F8C93ABE3B0E0EBE3F0E0808188602F
:1050B0008C93A1ECB0E0E1ECF0E0808180618C9316
:1050C000CF91DF910895DF93CF93CDB7DEB7E0ECBA
:1050D000F0E01082E1ECF0E088E98083E2ECF0E0BF
:1050E00086E08083E2ECF0E086E08083E5ECF0E0AF
:1050F0001082E4ECF0E08BE080830E949319CF9162
:10510000DF910895DF93CF9300D000D00F92CDB7F9
:10511000DEB71C82EFE5F0E080818983F8940E947D
:105120006727813009F063C086E393E00E943B1655
:105130008B830E94042D813041F48B81882319F0E8
:1051400081E08A8309C01A8207C08B81882319F005
:1051500081E08A8301C01A828A81813009F047C0C8
:10516000ABE2B0E0EBE2F0E080818F7B8C93E9E290
:10517000F0E08081882F90E0807290700097B9F500
:10518000A1ECB0E0E1ECF0E0808188608C9380E0FD
:105190000E94882786E393E00E942C178D8386E384
:1051A00093E00E943B16882361F086E393E061E080
:1051B00070E00E94871780932C0281E080932B027D
:1051C00002C010922B02A0ECB0E0E0ECF0E0808195
:1051D00080648C93E6ECF0E08D818083A1ECB0E0FC
:1051E000E1ECF0E0808180628C9381E08C83EFE5DC
:1051F000F0E0898180838C810F900F900F900F9049
:105200000F90CF91DF910895DF93CF93CDB7DEB7A5
:1052100080915C018E3728F480915C018F5F8093D0
:105220005C01CF91DF910895DF93CF93CDB7DEB7C7
:1052300010925C01CF91DF910895DF93CF930F928D
:10524000CDB7DEB780915C018E3718F081E089839D
:1052500001C0198289810F90CF91DF9108951F922B
:105260000F920FB60F9211242F933F934F935F939A
:105270006F937F938F939F93AF93BF93EF93FF931E
:10528000DF93CF930F92CDB7DEB7E6ECF0E08081ED
:10529000898389810E94C7260E94B826883338F006
:1052A000ABE2B0E0EBE2F0E0808180648C930E949E
:1052B00014290F90CF91DF91FF91EF91BF91AF91A2
:1052C0009F918F917F916F915F914F913F912F911E
:1052D0000F900FBE0F901F901895DF93CF930F92F2
:1052E000CDB7DEB70E94F72689830E94B8268D309D
:1052F00038F4ABE2B0E0EBE2F0E080818F7B8C939E
:1053000089810F90CF91DF9108951F920F920FB670
:105310000F921124DF93CF93CDB7DEB7CF91DF91FA
:105320000F900FBE0F901F9018951F920F920FB6FF
:105330000F9211242F933F934F935F936F937F931B
:105340008F939F93AF93BF93EF93FF93DF93CF938D
:10535000CDB7DEB7E9E2F0E08081882F90E080727F
:1053600090700097E9F580912B02882329F1A0EC39
:10537000B0E0E0ECF0E0808180648C93E6ECF0E05B
:1053800080912C02808386E393E00E942C1786E3B1
:1053900093E00E943B16882361F086E393E061E08E
:1053A00070E00E94871780932C0281E080932B028B
:1053B0001EC010922B021BC010922B02A1ECB0E079
:1053C000E1ECF0E080818F7D8C9381E00E94882762
:1053D000A1ECB0E0E1ECF0E08081877F8C9307C026
:1053E000A1ECB0E0E1ECF0E080818F7D8C93CF9177
:1053F000DF91FF91EF91BF91AF919F918F917F913D
:105400006F915F914F913F912F910F900FBE0F9031
:105410001F9018951F920F920FB60F9211242F9381
:105420003F934F935F936F937F938F939F93AF932C
:10543000BF93EF93FF93DF93CF9300D0CDB7DEB749
:10544000E4E8F0E0808191819A83898380912E0243
:10545000813009F052C080913102882361F4898142
:105460009A819093380280933702809131028F5F46
:105470008093310283C080913102813091F4209178
:1054800037023091380289819A81821B930B909365
:10549000330280933202809131028F5F8093310218
:1054A0006DC080913102833010F12091370230912C
:1054B000380289819A81821B930B909330028093EA
:1054C0002F02809131028F5F8093310210922E0261
:1054D000A3E7B0E0E3E7F0E080818E7F8C93ABE35D
:1054E000B0E0EBE3F0E0808188608C9347C080916E
:1054F00031028F5F8093310241C0E9E2F0E08081A8
:10550000882F90E080729070009741F0A1ECB0E09D
:10551000E1ECF0E0808180628C9324C00E946727D8
:10552000882301F5E1ECF0E08081882F90E0807223
:1055300090700097B9F4E1ECF0E08081882F90E062
:1055400088709070009739F4A1ECB0E0E1ECF0E0E5
:10555000808188608C93A1ECB0E0E1ECF0E0808188
:1055600080628C93E9E2F0E08081882F90E0807186
:105570009070009719F481E00E94BF170F900F9070
:10558000CF91DF91FF91EF91BF91AF919F918F915B
:105590007F916F915F914F913F912F910F900FBE2F
:1055A0000F901F9018951F920F920FB60F92112413
:1055B000DF93CF93CDB7DEB7CF91DF910F900FBEC2
:1055C0000F901F9018951F920F920FB60F921124F3
:1055D0002F933F934F935F936F937F938F939F93FB
:1055E000AF93BF93EF93FF93DF93CF93CDB7DEB726
:1055F0000E945C3DCF91DF91FF91EF91BF91AF9100
:105600009F918F917F916F915F914F913F912F91DA
:105610000F900FBE0F901F9018951F920F920FB60C
:105620000F921124DF93CF93CDB7DEB7CF91DF91E7
:105630000F900FBE0F901F901895DF93CF9300D05F
:10564000CDB7DEB78A838A81882F90E026E333E0E6
:10565000BC01C9010E948717898389810F900F902F
:10566000CF91DF910895DF93CF930F92CDB7DEB73F
:1056700086E393E00E943B16898389810F90CF9146
:10568000DF910895DF93CF9300D0CDB7DEB7EFE57C
:10569000F0E080818983F8940E94B8268A83EFE540
:1056A000F0E0898180838A810F900F90CF91DF9104
:1056B0000895DF93CF93CDB7DEB786E393E00E94E2
:1056C000181626E333E0BC01C9010E948717CF9169
:1056D000DF910895DF93CF93CDB7DEB786E393E0F4
:1056E0000E94921680932D02CF91DF910895DF934F
:1056F000CF93CDB7DEB780912D02CF91DF91089582
:10570000DF93CF9300D0CDB7DEB789838091340289
:10571000863098F480913402882F90E0FC01E35A9F
:10572000FE4F90818981981731F4809134028F5F08
:105730008093340202C01092340280913402863089
:1057400040F0109234028981853519F481E08A8312
:1057500001C01A828A810F900F90CF91DF91089536
:10576000DF93CF9300D0CDB7DEB789838091350228
:10577000853098F480913502882F90E0FC01ED5936
:10578000FE4F90818981981731F4809135028F5FA7
:105790008093350202C01092350280913502853027
:1057A00040F0109235028981823419F481E08A83B5
:1057B00001C01A828A810F900F90CF91DF910895D6
:1057C000DF93CF9300D0CDB7DEB7898380913602C7
:1057D000803198F480913602882F90E0FC01E859DE
:1057E000FE4F90818981981731F4809136028F5F46
:1057F0008093360202C010923602809136028031C8
:1058000040F01092360289818B3419F481E08A834A
:1058100001C01A828A810F900F90CF91DF91089575
:105820006093390270933A0280933B0290933C025A
:10583000609570958095909560937B0170937C0145
:1058400080937D0190937E01089580917B019091DA
:105850007C01A0917D01B0917E0180959095A095ED
:10586000B0952091390230913A0240913B0250911B
:105870003C0282179307A407B507B9F086E10E949E
:105880008C258FEF9FEFAFEFBFEF80937B0190935D
:105890007C01A0937D01B0937E0110923902109299
:1058A0003A0210923B0210923C02609139027091D0
:1058B0003A0280913B0290913C020895813011F4AC
:1058C00086EA06C0882319F086E10E948C2589E5C6
:1058D00080937A01089580917A01863A11F481E0EB
:1058E0000895893511F480E0089586E10E948C25A1
:1058F00089E580937A0180E00895813011F48AE689
:1059000006C0882319F086E10E948C2585E98093E2
:1059100079010895FF920F931F93082FF62E0E948E
:10592000B826182F8F2D90E00196212F30E0821796
:10593000930744F581E00E942F27801729F5123044
:1059400008F182E00E942F27082F8F15E9F483E0E9
:105950000E942F2783E00E942F27813009F080E0EA
:105960000E947D2C80E00E945E2C0E946D290E9486
:105970006D2910E003C00E946D291F5F1017D8F336
:1059800081E003C082E001C080E01F910F91FF9091
:105990000895809179018A3611F481E0089585395E
:1059A00011F480E0089586E10E948C2585E98093BA
:1059B000790180E00895813039F0882311F48CED6D
:1059C00004C086E10E948C2583E2809378010895CB
:1059D00080E00E94DB2C4698089581E00E94DB2C39
:1059E000469A089580917801833211F481E00895F8
:1059F0008C3D11F480E0089586E10E948C2583E2BD
:105A00008093780181E008950E94F22C08951F93FD
:105A10005B9884E10E94E53B5B9A0E9447280E94C4
:105A2000ED2C5E9810E084E10E94E53BA8951F5F95
:105A30001035C9F71F910895EF92FF920F931F93AE
:105A40000E94331D7B018C010E94252CE61AF70A67
:105A5000080B190BC801B7012CEC3CE140E050E009
:105A60000E944A50C9011F910F91FF90EF90089535
:105A70000F931F93CF93DF93082FEB01142F18C0C0
:105A800081E00E94E53B0E941C2DC817D90740F415
:105A900080E00E945E2C80E00E947D2C90E012C08D
:105AA000612F802F0E948A2C882311F40E946D2977
:105AB0000E946B2C813021F30E94C92C90E0813030
:105AC00009F491E0892FDF91CF911F910F910895F3
:105AD0000E94331D6093390270933A0280933B0217
