:020000021000EC
:104C0000486900209D6F020095700200B570020097
:104C10000000000000000000000000000000000094
:104C2000000000000000000000000000D57002003D
:104C30000000000000000000F57002001571020085
:104C40003571020055710200812602004191010078
:104C5000F13D02007571020095710200B57102000C
:104C6000AD7F0100E93B0200013C0200193C02005B
:104C7000313C0200493C0200613C0200D571020057
:104C8000F571020015720200192702002D2702009B
:104C90004127020000000000000000003572020001
:104CA0005572020075720200EDC00200957202009A
:104CB0000000000010B5064C2378002B07D1054BEF
:104CC000002B02D0044800E000BF0123237010BD78
:104CD000000A002000000000DC700300084B10B543
:104CE000002B03D00749084800E000BF07480368CD
:104CF000002B00D110BD064B002BFBD09847F9E7E5
:104D000000000000040A0020DC700300DC700300D7
:104D10000000000080B584B000AF0200FB1D1A70D7
:104D20000F23FB18FA1D1278D2091A700E23FB18F4
:104D3000FA1D127852091A700D4BBB600F23FB1835
:104D40001B78002B0FD10F23FB181B789B00102220
:104D50009446BC446344083B1A680E23FB181B7836
:104D6000DB01D31800E000231800BD4604B080BD6D
:104D70000044004180B582B000AF0200FB1D1A70F4
:104D8000FB1D1B781800034B984703001800BD4615
:104D900002B080BD154D010080B584B000AF0200A7
:104DA000FB1D1A70FB1D1B7818000B4B9847030066
:104DB000FB60FB1D1B781F22134001229A40130049
:104DC000BB60FB681B6ABA6813405A1E9341DBB292
:104DD0001800BD4604B080BD754D010080B582B09D
:104DE00000AF3B1D044A12781A70FB1D00221A7096
:104DF000C046BD4602B080BDF41D030080B500AFC3
:104E0000C046BD4680BDC04690B585B000AF2C4BB6
:104E10005B7D002B50D05A23FB60FB685C22534320
:104E2000BB60FB686C2253437B60264A8B235B008C
:104E3000D35A1A1EBB689A4211D2234B1800234B37
:104E40009847204A8B235B00D35A1900BA68204B3D
:104E50001800204B98472D201F4B984727E0194AF0
:104E60008B235B00D35A1A1E7B689A4211D9164BCA
:104E70001800164B9847134A8B235B00D35A19002E
:104E80007A68164B1800134B98472D20124B984701
:104E90000DE00D4B18000D4B98470A4A8B235B0021
:104EA000D35A1900BA687B680D480A4CA047054AD6
:104EB0008B235B000021D152C046BD4605B090BD9A
:104EC000C00000201C0A0020F81D0300590D03003B
:104ED000FC1D0300390C030001070200201E030023
:104EE000441E030080B500AF094B5B7D0122534097
:104EF000DBB2002B08D0064B1800064B9847064A39
:104F00008B235B000021D152C046BD4680BDC04608
:104F1000C0000020517301001C0A0020B0B500AF92
:104F2000094B1B7801225340DBB2002B08D0074B02
:104F3000074A08490020084CA047034B01221A7079
:104F4000C046BD46B0BDC0461C0A00200300090093
:104F500003000800001000426D5A020080B500AF47
:104F6000064B1B78002B05D00020054B9847034BC0
:104F700000221A70C046BD4680BDC0461C0A0020F3
:104F8000295B020080B58AB000AF3B0018002823DF
:104F90001A000021154B98473B002B221A603B005A
:104FA0000B221A713B00AC2292039A603B00012253
:104FB0005A733B0001229A733B000022DA613B00E6
:104FC00000229A613B000A4A1A623B0000221A75CD
:104FD0003B0000225A62074A3B0011001800064BB2
:104FE0009847C046BD460AB080BDC046290C0300A4
:104FF000FD4F0100200A0020AD3F020080B500AF48
:10500000094B24229B5CDBB201225340DBB2002B14
:1050100007D0064B1800064B9847034B242201216A
:105020009954C046BD4680BD1C0A00203550010081
:105030001944020080B500AF034B2422002199548B
:10504000C046BD4680BDC0461C0A002080B58AB05F
:1050500000AF3B00180028231A000021154B984789
:105060003B000E221A603B000E221A713B00E02228
:1050700012039A603B0001225A733B0001229A738B
:105080003B000022DA613B0000229A613B000A4AA1
:105090001A623B0000221A753B0000225A62074A3E
:1050A0003B0011001800064B9847C046BD460AB0A9
:1050B00080BDC046290C0300C5500100440A0020F1
:1050C000AD3F020080B500AF094B48229B5CDBB2CC
:1050D00001225340DBB2002B07D0064B1800064BD1
:1050E0009847034B482201219954C046BD4680BDD4
:1050F0001C0A0020FD5001001944020080B500AFD9
:10510000044B482200219954034B9847C046BD46A2
:1051100080BDC0461C0A0020F964010080B582B041
:1051200000AF7860144B1B7801225340DBB2002B98
:1051300004D0114B01221A70012318E00F4B1B6899
:10514000002B03D10D4B7A681A600FE00B4B1A68E5
:105150007B689A420AD00A4B18000A4B98470A4BC0
:1051600018000A4B98472420094B98470023180041
:10517000BD4602B080BDC046340B0020380B002075
:10518000F81D0300590D0300781E0300390C0300BD
:105190000107020080B500AF114B1B78002B10D027
:1051A0000F4B00221A700F4B1B68002B07D00D4BC2
:1051B0001B6818000C4B98470A4B00221A60012309
:1051C0000BE00A4B18000A4B98470A4B18000A4B91
:1051D00098472420094B984700231800BD4680BDFE
:1051E000340B0020380B002019440200F81D030086
:1051F000590D0300881E0300390C0300010702004B
:1052000080B582B000AF3B1D044A12781A70FB1DB6
:1052100000221A70C046BD4602B080BDF41D0300D6
:1052200080B500AF094B49229B5CDBB201225340A1
:10523000DBB2002B07D0064B1800064B9847034BF8
:10524000492201219954C046BD4680BD1C0A002058
:105250005952010019440200B0B584B002AFDB4BD3
:105260007B60DB4B492200219954D94B4A229B5C3D
:105270000D2B00D9E6E19A00D64BD3181B689F4648
:10528000D54B1800D54B9847D54B1800D54B9847B0
:10529000D54B98470420D54B9847CD4B4A22012146
:1052A0009954D34B1800D34B9847031E00D1D6E135
:1052B000CF4B1800D04B9847D1E1C74B1800C74BD4
:1052C0009847CE4B1800C74B984778682523402253
:1052D0002B21CB4CA047BE4B4A2203219954BFE15E
:1052E000C84B984703001A0001235340DBB2002B40
:1052F00006D0B64B9847B64B4A220D219954AFE1E0
:10530000C14B1800C14B9847BF4B9B7D002B06D06B
:10531000AF4B4A220D219954AC4B9847A0E1AC4BBE
:105320004A220B219954FC1CA84B0193B84B0093C3
:105330000A230D221C210020B64DA847030023702C
:10534000FB1C1B7801225340DBB2002B06D0A04B84
:105350004A220D2199549D4B984781E1FA239A00E6
:10536000A94B11001800AC4B984779E1A64B1800E7
:10537000A64B9847A44B9B7D002B06D0944B4A220A
:105380000D219954914B98476AE1914B4B229B5CBC
:10539000DBB21A2B06D08E4B4A220D2199548B4B2F
:1053A00098475DE1894B9847894B4A2202219954DD
:1053B00056E17868252324222A21914CA047844B6A
:1053C0004A22052199544BE18E4B984703001A005D
:1053D00001235340DBB2002B06D07C4B98477C4B1B
:1053E0004A220D2199543BE1786825235022092156
:1053F000834CA047764B4A220621995430E1814BD9
:10540000984703001A0001235340DBB2002B06D05B
:105410006E4B98476E4B4A220D21995420E17868D3
:10542000252301220E21764CA047694B4A220721F1
:10543000995415E1734B984703001A000123534018
:10544000DBB2002B06D0614B9847614B4A220D21FD
:10545000995405E17868252312222B21684CA04736
:105460005B4B4A2208219954FAE0664B98470300A7
:105470001A0001235340DBB2002B06D0534B984750
:10548000534B4A220D219954EAE0786825230222E1
:105490002C215B4CA0474E4B4A2209219954DFE056
:1054A000584B984703001A0001235340DBB2002BEE
:1054B00006D0464B9847464B4A220D219954CFE0DF
:1054C0007868252340222D214D4CA047404B4A228D
:1054D0000A219954C4E04B4B984703001A0001235A
:1054E0005340DBB2002B06D0384B9847384B4A224A
:1054F0000D219954B4E07868252300222E21404CD8
:10550000A047334B4A2204219954A9E03D4B9847C8
:1055100003001A0001235340DBB2002B06D02B4BB3
:1055200098472B4B4A220D21995499E078682523FE
:1055300025222A21324CA047254B4A220C2199547E
:105540008EE0314B1800314B9847344B9847284B2D
:105550001800294B98471E4B4A22002199547FE09E
:10556000284B984703001A0001235340DBB2002B5D
:1055700006D0164B9847164B4A220D2199546FE0DE
:10558000214B1800214B9847114B4B220121995474
:10559000234B9847234B98470420234B9847234B92
:1055A0009847234B9847234B234A1A6096235A0067
:1055B000204B11001800214B9847074B1800074B50
:1055C00098471F4B1800074B984749E021520100AC
:1055D0001C0A002094210300F81D0300590D03004C
:1055E000981E0300390C03001D4F0100E154020016
:1055F000595201001D510100DD430200A41E0300A9
:105600007D560100E1560100E8000020F57401001C
:10561000670A0020A95B0200ED7301005D4F0100E5
:10562000854F01004D5001001954020095510100B1
:10563000E54E010010000020B95C01004574010036
:10564000B41E0300084B1800084B9847084B18007D
:10565000084B98473220084B9847C04600E0C046A8
:10566000BD4602B0B0BDC046F81D0300590D030091
:10567000D01E0300390C03000107020090B583B06F
:1056800000AF78600C0010001900FB1C221C1A707F
:10569000BB1C021C1A707B1C0A1C1A700E4B1B7858
:1056A00001225340DBB2002B10D00B4B7A685A60BA
:1056B000094B7A1C12781A72FB1C1A78BB1C1B78D7
:1056C00011001800054B9847030000E00023180064
:1056D000BD4603B090BDC0463C0B0020F55601000E
:1056E00080B500AF024B5B7A1800BD4680BDC04656
:1056F0003C0B0020B0B586B002AF0200FB1D1A7053
:10570000BB1D0A1C1A702D4B01221A702C4BBA1D9E
:105710004B2112785A542A4BFA1D4C2112785A54B4
:10572000284B1B780133DAB2264B1A700F23FC1872
:10573000254A264B0093130002221C210020244DF1
:10574000A847030023700F23FB181B780122534046
:10575000DBB2002B20D0194B00221A701D4B180011
:105760001D4B98471D4B18001D4B9847134B1B7A38
:1057700018001C4B9847174B1800174B98471A4BAB
:105780001800174B98470D4B5B681800174B98474C
:105790000A4B00225A6009E0154B0C4A1A60FA23A2
:1057A0009A00134B11001800124B98470F23FB1857
:1057B0001B781800BD4604B0B0BDC0463C0B0020AD
:1057C0001C0A0020480B0020670A0020F95701003E
:1057D000A95C0200F81D0300590D0300E41E03003C
:1057E000390C030001070200041F030019440200E2
:1057F000E8000020ED73010080B500AF164B1800E3
:10580000164B9847144B9B7D002B14D0144B18005B
:10581000144B9847144B1B781A00144B11001800B6
:10582000134B9847134B1B7A1800134B9847114B97
:1058300000225A7202E00F4B01225A720D4B0022D5
:105840001A700C4B5B6818000C4B9847094B0022F0
:105850005A60C046BD4680BDE8000020F5740100D6
:10586000F81D0300590D0300480B0020201F030002
:10587000390C03003C0B0020010702001944020010
:1058800080B582B000AF78600C4B1B78012253408A
:10589000DBB2002B03D00A4B7A681A600AE0094B8E
:1058A0001800094B9847094B1800094B98472620C8
:1058B000084B9847C046BD4602B080BD540B00203F
:1058C0004C0B0020F81D0300590D03004C1F030072
:1058D000390C03000107020080B582B000AF786088
:1058E0000C4B1B7801225340DBB2002B03D00A4B38
:1058F0007A681A600AE0094B1800094B9847094B6F
:105900001800094B98472620084B9847C046BD46CB
:1059100002B080BD550B0020500B0020F81D030085
:10592000590D0300681F0300390C03000107020032
:1059300080B500AF0D4B1B7801225340DBB2002B2A
:1059400005D00A4B01221A70094B98470AE0094B0F
:105950001800094B9847094B1800094B9847262017
:10596000084B9847C046BD4680BDC046540B00203A
:10597000E1590100F81D0300590D0300841F0300C5
:10598000390C03000107020080B500AF0D4B1B78F6
:1059900001225340DBB2002B05D00A4B01221A70C2
:1059A000094B98470AE0094B1800094B9847094BE7
:1059B0001800094B98472620084B9847C046BD461B
:1059C00080BDC046550B0020155A0100F81D03008C
:1059D000590D03009C1F0300390C0300010702004E
:1059E00080B500AF084B1B7801225340DBB2002B7F
:1059F00006D0054B01221A70044B1800044B98473F
:105A0000C046BD4680BDC046560B0020495A010025
:105A10001944020080B500AF084B1B7801225340A7
:105A2000DBB2002B06D0054B01221A70044B180084
:105A3000044B9847C046BD4680BDC046570B00206A
:105A4000815B01001944020090B583B000AF3F4B69
:105A50007B603F4B00221A703E4B1B78042B6ED8A4
:105A60009A003D4BD3181B689F463A4B01221A708F
:105A70007B681800394B984703001A0001235340F4
:105A8000DBB2002B5DD17868252324222A21344CF7
:105A9000A047304B02221A7054E0324B9847030063
:105AA0001A0001235340DBB2002B06D02E4B98473F
:105AB0002E4B4A220121995444E0786825239222F2
:105AC0002B21274CA047234B03221A703AE0254B89
:105AD000984703001A0001235340DBB2002B06D085
:105AE000214B9847214B4A22012199542AE078689A
:105AF000252325222A211A4CA047164B04221A706E
:105B000020E0184B984703001A0001235340DBB2F2
:105B1000002B06D0144B9847144B4A22012199546C
:105B200010E0134B1B681800124B9847124B0022D1
:105B30001A70084B00221A70104B984702E0C046BA
:105B400000E0C046C046BD4603B090BDE15901002B
:105B5000560B0020490B0020CC2103001D510100F1
:105B60007D560100E1560100215201001C0A00206F
:105B70004C0B002019440200540B002095510100E9
:105B800090B583B000AF3F4B7B603F4B00221A7053
:105B90003E4B1B78042B6ED89A003D4BD3181B68E4
:105BA0009F463A4B01221A707B681800394B984780
:105BB00003001A0001235340DBB2002B5DD178684B
:105BC000252324222A21344CA047304B02221A706C
:105BD00054E0324B984703001A0001235340DBB2D4
:105BE000002B06D02E4B98472E4B4A220121995468
:105BF00044E07868252312222B21274CA047234B11
:105C000003221A703AE0254B984703001A0001233B
:105C10005340DBB2002B06D0214B9847214B4A2240
:105C2000012199542AE07868252325222A211A4C3B
:105C3000A047164B04221A7020E0184B9847030027
:105C40001A0001235340DBB2002B06D0144B9847B7
:105C5000144B4A220121995410E0134B1B68180081
:105C6000124B9847124B00221A70084B00221A70F0
:105C7000104B984702E0C04600E0C046C046BD4613
:105C800003B090BD155A0100570B00204A0B0020AD
:105C9000E02103001D5101007D560100E156010085
:105CA000215201001C0A0020500B00201944020060
:105CB000550B00209551010080B500AF084B1B78B3
:105CC00001225340DBB2002B06D0054B01221A7093
:105CD000044B1800044B9847C046BD4680BDC046E3
:105CE000710B00202D5E0100DD43020080B500AF86
:105CF000064B00221A70064B00221A60054B002248
:105D00001A60054B9847C046BD4680BD580B002021
:105D10006C0B0020680B0020B95C010080B500AF5F
:105D20000E4B18000E4B98470E4B18000E4B984721
:105D30000E4B00221A700E4B00221A600D4B0022EF
:105D40001A600D4B0D4A1A6096235A000A4B110037
:105D500018000B4B9847C046BD4680BDF81D030098
:105D6000590D03006C200300390C0300580B002070
:105D70006C0B0020680B002010000020B95C0100B3
:105D80004574010080B500AF064B06221A70064B21
:105D900000221A60054B00221A60054B9847C04646
:105DA000BD4680BD580B00206C0B0020680B002006
:105DB000B95C010080B584B000AF7860164B1B78E9
:105DC000002B03D07B681800144B9847144B1B78AA
:105DD000002B09D0124B1B78012B05D0104B1B78E0
:105DE000032B01D0012200E000220F23FB181A70C0
:105DF0001A7801210A401A700F23FB181B78002B18
:105E000005D008497B6806221800074B9847C04612
:105E1000BD4604B080BDC0467A0B00205962010027
:105E2000580B0020740B0020170C030090B589B0AC
:105E300000AFA34BBB61A34B00221A70A24B1B788F
:105E4000082B00D937E19A00A04BD3181B689F4656
:105E50009F4B18009F4B98479F4B18009F4B9847AC
:105E60009F4ABB69110018009E4B98479E4B9F4A62
:105E70001A60954B01221A701EE19D4B1B7801227E
:105E80005340DBB2002B02D0954B984714E1994A5E
:105E9000994B1000190006231A00984B9847984B0D
:105EA000BA691A60884B03221A7005E1944B0022EC
:105EB0001A608F4B1B7801225340DBB2002B02D0BB
:105EC000874B9847F8E0804B04221A70BB69180092
:105ED0008C4B98478C4B9847EEE0894BBA691A6017
:105EE000794B05221A70E7E0884ABB691100180057
:105EF0007C4B9847824B00221A60734B06221A7023
:105F0000DAE07F4BBA691A606F4B07221A70D3E050
:105F10007B4B00221A60744B00221A60BB69180088
:105F20007B4B98477B4B9847674B08221A70C3E01E
:105F30006F4B1B7801225340DBB2002B02D0684B21
:105F40009847B9E01023FA18734B10001900062384
:105F50001A006A4B98470823FA18704B1000190072
:105F600006231A00654B98471F23FB1801221A705D
:105F70001E23FB1800221A703FE01E23FB181A781C
:105F80001E23FB1819785C4B4900CB5E99B21E2387
:105F9000FB181878574B4000C35E9BB2CB1A9BB2DC
:105FA00019B23B005200D1521E23FB181A783B0055
:105FB0005200D25E1E23FB1819781023FB184900EB
:105FC000CB5E9A420EDB1E23FB181A783B00520070
:105FD000D25E1E23FB1819780823FB184900CB5EFC
:105FE0009A4203DD1F23FB1800221A701E23FB18A0
:105FF0001A781E23FB1801321A701E23FB181B7817
:10600000022BBAD91F23FB181B7801225340DBB2A5
:10601000002B2ED0424B1B780133DAB2404B1A7062
:106020003F4B1B78022B15D9294B1800294B984759
:106030003B0000229B5E19003B0002229B5E1A007F
:106040003B0004201B5E3748244CA0471720364BEA
:10605000984723E01E4B18001E4B9847304B1B7887
:106060001A00324B110018001C4B9847304B9847D0
:1060700014E02B4B00221A70154B1800154B984753
:106080003B0000229B5E19003B0002229B5E1A002F
:106090003B0004201B5E2748104CA047264BBA69E2
:1060A0001A60264A244B11001800254B9847064BCE
:1060B00000221A7000E0C046C046BD4609B090BD3F
:1060C000B95C0100710B0020580B0020F421030083
:1060D000F81D0300590D03008C200300390C030048
:1060E0001D5D0100456101006C0B0020B55D0100E4
:1060F0005C0B0020740B002060220020170C0300B2
:10610000680B00208158010031590100855D0100B4
:10611000D9580100895901002C21030034210300C2
:10612000700B0020A820030001070200D820030004
:10613000ED5C0100F420030010000020C0A8000066
:106140004574010080B582B000AF78603960074BBC
:106150009847074B7A681A60064B3A681A60064BF4
:1061600001221A70C046BD4602B080BD7D610100AB
:10617000600B0020640B00207A0B002080B582B0F9
:1061800000AF0E4B00221A800D4B00221A70FB1D2F
:1061900000221A700AE0FB1D1A780A4B92000021B7
:1061A000D150FB1D1A78FB1D01321A70FB1D1B78A4
:1061B000022BF0D9C046BD4602B080BD5A0B00206C
:1061C0005C0B00204020002080B584B000AF7860D8
:1061D0000F23FB1800221A7031E00F23FB181A78E6
:1061E0001C4B5200D35E9AB20F23FB181B785B0046
:1061F0007968CB1800215B5E9BB2D31A9AB20C234C
:10620000FB181A800C23FB1800229B5E002B07DA78
:106210000C23FB181B885B429AB20C23FB181A80D4
:106220000C23FB1800229B5E042B01DD00230CE0F5
:106230000F23FB181A780F23FB1801321A700F2353
:10624000FB181B78022BC8D901231800BD4604B0E7
:1062500080BDC046D421002090B585B000AF7860E5
:106260007B68002B00D11DE1904B1B88002B3AD19D
:106270000F23FB1800221A7029E00F23FB181A784D
:106280000F23FB181B785B007968CB180021595E3F
:10629000874B5200D1520F23FB181A780F23FB189B
:1062A0001978844B8900CB580F2179180978490057
:1062B000786841180020095E59187E4B9200D15031
:1062C0000F23FB181A780F23FB1801321A700F23C3
:1062D000FB181B78022BD0D9744B1B8801339AB260
:1062E000724B1A80DFE0714B1B88312B5BD87B68C7
:1062F0001800714B9847031E2CD00E23FB18002268
:106300001A701BE00E23FB181A780E23FB1819785D
:10631000684B8900CB580E217918097849007868B4
:1063200041180020095E5918624B9200D1500E238B
:10633000FB181A780E23FB1801321A700E23FB1873
:106340001B78022BDED9594B1B8801339AB2574B6D
:106350001A80A8E0594B1B68002B08D0574B1B68CC
:106360009847564B00221A60554B00221A704F4B2B
:1063700000221A800D23FB1800221A700DE00D2355
:10638000FB181A784B4B92000021D1500D23FB18BB
:106390001A780D23FB1801321A700D23FB181B7895
:1063A000022BECD97FE07B681800434B9847031E13
:1063B00068D00C23FB1800221A701BE00C23FB187A
:1063C0001A780C23FB1819783A4B8900CB580C210A
:1063D000791809784900786841180020095E591831
:1063E000344B9200D1500C23FB181A780C23FB1865
:1063F00001321A700C23FB181B78022BDED92B4BB1
:106400001B8801339AB2294B1A80284B1B88C82B52
:1064100002D92C4B984746E02B4B1B68002B42D0EF
:106420000B23FB1800221A701AE00B23FB181C78B0
:106430000B23FB181A781F4B9200D2581B4B1B885A
:106440001900224B10009847030019B2204B62003C
:10645000D1520B23FB181A780B23FB1801321A7048
:106460000B23FB181B78022BDFD91A4B01221A7061
:10647000154B1B689847144B00221A60104B0022E2
:106480001A7010E00D4B1B68002B08D00B4B1B68DB
:1064900098470A4B00221A60094B00221A70094BD8
:1064A000984700E0C046BD4605B090BD5A0B00209D
:1064B000D421002040200020C9610100640B00208D
:1064C0007A0B00207D610100600B0020D5EA0200FC
:1064D000602200205C0B002080B582B000AF3B1D25
:1064E000044A12781A70FB1D00221A70C046BD467D
:1064F00002B080BDF41D030080B500AF0A4A8A23B4
:106500005B00D35CDBB201225340DBB2002B08D02E
:10651000054A8A235B000121D154044B1800044B27
:106520009847C046BD4680BD1C0A0020D1680100C6
:106530001944020080B584B000AF0200BB1D1A8070
:106540000F23FB18244A52781A700E23FB18224A94
:1065500012781A700F23FB180F22BA181278013222
:106560001A700F23FB180F22BA1812783F210A4025
:106570001A700F23FB181B78174A5B00D3180433DB
:10658000BA1D12881A80144B0F22BA1812785A704A
:106590000F23FA180E23FB1812781B789A4216D193
:1065A0000E23FB180E22BA18127801321A700E232D
:1065B000FB180E22BA1812783F210A401A70064BB7
:1065C0000E22BA1812781A70034B01229A70C04634
:1065D000BD4604B080BDC0465021002080B582B0C9
:1065E00000AFFB1D164A12781A70154B5B78FA1D26
:1065F00012789A421BD0FB1DFA1D127801321A70D4
:10660000FB1DFA1D12783F210A401A70FB1D1A78F3
:106610003B1D0B4952008A18043212881A80084B1D
:10662000FA1D12781A703B1D00229B5E03E0302099
:10663000044B984700231800BD4602B080BDC046F9
:10664000502100200107020080B582B000AFFB1D81
:106650003F221A70BB1D7F221A70FA1DBB1D1278D3
:106660001B785340DBB2402B02D02C200C4B9847B8
:106670007B1D0C4A52781A703B1D0A4A12781A7018
:106680007A1D3B1D12781B78D31ADAB2FB1C3F210E
:106690000A401A70FB1C1B781800BD4602B080BD72
:1066A000010702005021002080B584B000AF020035
:1066B000BB1D1A800F23FB18244A52781A700E2330
:1066C000FB18224A12781A700F23FB180F22BA18EF
:1066D000127801321A700F23FB180F22BA181278A1
:1066E0003F210A401A700F23FB181B78174A5B00E2
:1066F000D3180433BA1D12881A80144B0F22BA180B
:1067000012785A700F23FA180E23FB1812781B7890
:106710009A4216D10E23FB180E22BA1812780132B3
:106720001A700E23FB180E22BA1812783F210A4065
:106730001A70064B0E22BA1812781A70034B0122F7
:106740009A70C046BD4604B080BDC046CC20002033
:1067500080B582B000AFFB1D164A12781A70154B37
:106760005B78FA1D12789A421BD0FB1DFA1D127835
:1067700001321A70FB1DFA1D12783F210A401A706F
:10678000FB1D1A783B1D0B4952008A1804321288EF
:106790001A80084BFA1D12781A703B1D00229B5E6E
:1067A00003E03020044B984700231800BD4602B098
:1067B00080BDC046CC2000200107020080B584B017
:1067C00000AF0200BB1D1A800F23FB18244A527829
:1067D0001A700E23FB18224A12781A700F23FB1826
:1067E0000F22BA18127801321A700F23FB180F22E9
:1067F000BA1812783F210A401A700F23FB181B7831
:10680000174A5B00D3180433BA1D12881A80144B40
:106810000F22BA1812785A700F23FA180E23FB1899
:1068200012781B789A4216D10E23FB180E22BA1842
:10683000127801321A700E23FB180E22BA18127841
:106840003F210A401A70064B0E22BA1812781A70AD
:10685000034B01229A70C046BD4604B080BDC046BD
:10686000DC21002080B582B000AFFB1D164A1278F3
:106870001A70154B5B78FA1D12789A421BD0FB1DDB
:10688000FA1D127801321A70FB1DFA1D12783F2191
:106890000A401A70FB1D1A783B1D0B4952008A18DA
:1068A000043212881A80084BFA1D12781A703B1DA8
:1068B00000229B5E03E03020044B98470023180021
:1068C000BD4602B080BDC046DC21002001070200A9
:1068D000F0B585B002AF834A8A235B000021D15412
:1068E000804A1623FF33D35C002B03D0012B00D149
:1068F0008CE0F4E07C4B9B7D002B0AD014207B4B7A
:1069000098477B4B18007B4B98477B4B18007B4B81
:1069100098470E207A4B9847031E06D0794BDB79B7
:106920000F2B02D8774B0F22DA71764BDB79002BD5
:106930005BD0754B1800754B984703001A00012374
:106940005340DBB2002B00D0C8E06E4BDB79142B38
:1069500005D9644A1423FF331421D15405E0694B4F
:10696000D979604A1423FF33D1545E4B4822012168
:1069700099545C4A1423FF33D35C1A1C131CDB1894
:106980009B18DB18DBB20133DAB2FC1D5E4B0193BE
:106990005F4B0093130000221C2100205D4DA8478F
:1069A00003002370FB1D1B7801225340DBB2002B38
:1069B0000BD016204D4B98474D4B18004D4B984728
:1069C000554B18004D4B984789E00220534B984790
:1069D000FA239A00444B11001800514B9847414A42
:1069E0001623FF330121D15479E04E4B1B68002B55
:1069F00004D04C4B1B6818004B4B9847FA239A0065
:106A0000394B11001800464B984768E0354B482237
:106A1000002199540020454B984703001D00002396
:106A20001E00434C434A002328003100A0470300C6
:106A30000C0019002200404B0024C91862410800D4
:106A400011003E4C3E4A0023A04703000C001800F2
:106A50003C4B9847244B9B7D002B04D100203A4BA4
:106A60009847031E0BD01620204B9847204B180048
:106A7000204B9847354B1800204B98470CE0344B7F
:106A800098470220334B9847334B9847334B9847EE
:106A90001C4B822201219954124A1623FF330021F4
:106AA000D154184BDB79002B04D10E20144B98479E
:106AB000031E02D0144B984708E01A4B1B68002BAA
:106AC00004D0184B1B681800174B9847FA239A00FC
:106AD000054B11001800124B984700E0C046BD4618
:106AE00003B0F0BD1C0A00201001002001070200C5
:106AF000F81D0300590D03003C210300390C03006D
:106B0000994D010038000020F96401001D51010079
:106B100040000020A95B02004C210300E154020068
:106B2000ED730100680B0020DD430200096B0200D9
:106B3000B1ED020010270000BFCF6A0071ED020026
:106B4000C0CF6A00010000209D5D0200702103009B
:106B50009551010019540200616B0100F9760100A2
:106B600080B584B000AF0E23FB1800221A700E23EC
:106B7000FB181A780C23FB1889498A18127A1A70A4
:106B80000F23FB180C22BA1812783F210A401A7002
:106B90000F23FB181B78002B06D00F23FB181A7845
:106BA0000F23FB18013A1A707D4B0F22BA18127886
:106BB000DA710C23FB181B785BB2002B02DA15206C
:106BC000784B9847764B01229A710E23FB180122CD
:106BD0001A70734BDA7974491423FF33CB5C9A42F1
:106BE00005D26F4BD979704A1423FF33D1540D234A
:106BF000FB1800221A70ABE00A23FB1801330E22A7
:106C0000BA18127866498A18127AD2B21A700A2310
:106C1000FB180E22BA181278013261498A18127ACA
:106C2000D2B21A700823FB1801330E22BA18127858
:106C300002325B498A18127AD2B21A700823FB1802
:106C40000E22BA181278033255498A18127AD2B233
:106C50001A70BB1D01330E22BA1812780432504943
:106C60008A18127AD2B21A70BB1D0E22BA18127884
:106C700005324B498A18127AD2B21A700A23FB18CD
:106C800000229B5EDB101AB20A23FB181A8008232D
:106C9000FB1800229B5EDB101AB20823FB181A8037
:106CA000BB1D00229B5EDB101AB2BB1D1A803F4B3E
:106CB0001B68002B26D00A23FB1800229A5E3B009B
:106CC0001A800823FB1800229A5E3B005A80BB1DE5
:106CD00000229A5E3B009A80344B1B683A001000F9
:106CE00098473B0000229A5E0A23FB181A803B005B
:106CF00002229A5E0823FB181A803B0004229A5E47
:106D0000BB1D1A800A23FB1800229B5E1800284B2B
:106D100098470823FB1800229B5E1800254B9847D4
:106D2000BB1D00229B5E1800234B98470E23FB18C7
:106D30000E22BA18127806321A70194B81220021DD
:106D400099540D23FB181A780D23FB1801321A7081
:106D5000154A1423FF33D35C0D22BA1812789A42D5
:106D600000D249E7104A8B235B00D25A0E49142304
:106D7000FF33CB5C9BB2D31899B20B4A8B235B00D9
:106D8000D152074BDA7908491423FF33CB5CD31A6D
:106D9000DAB2034BDA71C046BD4604B080BDC046CE
:106DA00038000020010702001C0A00206C0B0020A4
:106DB00035650100A9660100BD67010080B500AF1F
:106DC000024B9847C046BD4680BDC04641600200A8
:106DD00080B500AF024B9847C046BD4680BDC04657
:106DE00095600200F0B585B000AF786039607B68CF
:106DF000002B01D105231AE07B685B7D002B01D0BD
:106E0000002314E00823FB1818000B4B98473B683D
:106E10001D0000231E00BB68FC685B197441BB6049
:106E2000FC60BB68FC687A689360D4600723180034
:106E3000BD4605B0F0BDC0465552020090B587B0C2
:106E400000AF786039607B68002B01D1052330E00A
:106E50007B685B7D002B01D000232AE00823FB1810
:106E60001800164B98473B683B6100237B613B69E8
:106E70005B0C7A69D20313437B613B69DB033B61A3
:106E8000386979690E4CFA2292000023A04703006A
:106E90000C003B617C61B968FA683B697C695B18EE
:106EA0005441BB60FC60BB68FC687A689360D46046
:106EB00007231800BD4607B090BDC04655520200DA
:106EC00071ED020090B587B000AF786039607B68E3
:106ED000002B01D1052325E07B685B7D002B01D0D1
:106EE00000231FE00823FB181800104B98473B684D
:106EF0003B6100237B613B695B0C7A69D2031343DE
:106F00007B613B69DB033B61B968FA683B697C697B
:106F10005B185441BB60FC60BB68FC687A68936096
:106F2000D46007231800BD4607B090BD555202003B
:106F300090B585B000AF786039607B68002B01D1D7
:106F4000052328E07B685B7D002B01D0002322E035
:106F50003B68BB600023FB60BB685B0CFA68D20334
:106F60001343FB60BB68DB03BB60B868F9680C4C7B
:106F7000FA2292000023A04703000C00BB60FC60D3
:106F80007B689968DA68BB68FC685B1854417A686A
:106F90009360D46007231800BD4605B090BDC0467D
:106FA00071ED020080B500AF064B1800064B984704
:106FB000044A064B11001800054B9847C046BD46D1
:106FC00080BDC046800B0020154C0200880B0020BD
:106FD000BD4A020080B500AF064B5B78DBB2002BE8
:106FE00004D0044B00225A70034B9847C046BD465C
:106FF00080BDC0467C0B0020FD6F010080B500AF56
:10700000104B1B78DBB201225340DBB2002B15D0B2
:107010000D4B98470B4B1B78DBB201225340DBB280
:10702000002B09D0074B01221A70084B9847084BD8
:107030001800084B984701E0044B9847C046BD46EE
:1070400080BDC0467C0B0020BD6D0100D16D0100EC
:107050005970010019440200F0B589B000AF5B4BD4
:107060005B78DBB2002B02D0584B00225A70574B92
:1070700000221A70564B1800564B9847544B180074
:10708000554B98470300FB61FB69002B00D196E04C
:107090003B001800514B984753E0FB6901229A7559
:1070A000FB6900225A75FB691B68002B21D01B234A
:1070B000FB18FA69127D1A701B23FB181B78042B2E
:1070C00007D1FB691B687B617B69002B01D07B6961
:1070D00098471B23FB181B78022B05D1FB691B6803
:1070E00018003F4B984704E0FB691B6818003D4BB4
:1070F0009847374B18003C4B9847FB695B7E002B49
:1071000016D0FB69DC689B68FA69126915000022D9
:1071100016005B197441FA699360D460FB6918002A
:10712000324B9847031E032B02D1314B984749E05D
:10713000274B1800284B98470300FB61FB69002B85
:107140003FD0FB69002B09D0FB699968DA683B687E
:107150007C68A24202D8A0D199429ED9FB69DC6822
:107160009B68BB60FC60BB68224A11001800224B80
:107170009847164B01225A703B687C68B968FA68D8
:10718000C91AA2410B001400002C1BD102D11B4ACA
:10719000934217D83B001800104B98473B687C6817
:1071A000B968FA68C91AA2410B001400002C03D177
:1071B00008D1124A934205D90D4B984702E0C046C8
:1071C00000E0C046BD4609B0F0BDC0467C0B0020C3
:1071D000880B0020714B0200B94D0200555202008D
:1071E00019440200DD430200F14C0200017201006B
:1071F000FD6F0100D56F010091530200FF1F0000D9
:1072000090B587B000AF78607B68002B0CD1404B05
:107210001800404B9847404B1800404B98472E2091
:107220003F4B984705236EE07B6818003D4B98471D
:107230007B681C337B617B69002B0CD12E20384B83
:107240009847334B1800334B9847334B1800334B58
:107250009847052357E07B685B7D002B01D0002316
:1072600051E07B6800229A757B6801225A757A6822
:107270007B69110018002C4B98472C4B18002C4BA5
:1072800098472A4B18002B4B984703003B61274B2C
:107290001800284B98470300FB60FB68002B1CD0AC
:1072A0007B68DC689B68FA689168D268A24202D861
:1072B00013D1994211D91D4A7B69110018001E4B48
:1072C00098471A4B18001D4B9847021E3B699A427B
:1072D00001D01B4B9847032315E0144B1800194BA2
:1072E0009847031ED3D1114B1800174B98470F4AEC
:1072F0007B6911001800154B98473B69002B01D1A1
:107300000F4B984703231800BD4607B090BDC046F9
:1073100018220300590D03001C220300390C03003E
:1073200001070200F5740100894F0200880B00205C
:10733000714B0200B94D0200394C0200894D020028
:10734000FD6F0100F14A0200B14B0200954C0200B2
:1073500080B582B000AF78607B6818000B4B98470F
:107360007B685B7E01225340DBB2002B01D00123FE
:1073700007E07B681A697B6811001800044B984786
:1073800003001800BD4602B080BDC046F574010080
:107390009573010090B585B000AF786039607B6867
:1073A00018000F4B98470F23FC183A687B681100B0
:1073B00018000C4B9847030023700F23FB181B7811
:1073C000072B03D00F23FB181B7804E07B68180001
:1073D000054B984703001800BD4605B090BDC04658
:1073E000F5740100E56D01000172010090B585B0F2
:1073F00000AF786039607B6818000F4B98470F2307
:10740000FC183A687B68110018000C4B9847030081
:1074100023700F23FB181B78072B03D00F23FB18B7
:107420001B7804E07B681800054B984703001800A0
:10743000BD4605B090BDC046F57401003D6E01002B
:107440000172010090B585B000AF786039607B684B
:1074500018000F4B98470F23FC183A687B681100FF
:1074600018000C4B9847030023700F23FB181B7860
:10747000072B03D00F23FB181B7804E07B68180050
:10748000054B984703001800BD4605B090BDC046A7
:10749000F5740100C56E01000172010090B585B060
:1074A00000AF786039607B6818000F4B98470F2356
:1074B000FC183A687B68110018000C4B98470300D1
:1074C00023700F23FB181B78072B03D00F23FB1807
:1074D0001B7804E07B681800054B984703001800F0
:1074E000BD4605B090BDC046F5740100316F010086
:1074F0000172010080B584B000AF78607B68002B1A
:1075000001D105232BE07B685B7D01225340DBB278
:10751000002B01D0012322E0134B1800134B984796
:10752000114B1800124B98470300FB60FA687B6808
:107530009A420DD10C4B18000E4B98470E4B9847B2
:107540007B6800225A757B6800229A75042306E046
:10755000054B1800094B9847031EE1D10123180081
:10756000BD4604B080BDC046880B0020714B0200B0
:10757000B94D0200F14C0200FD6F0100F14A02001A
:1075800080B584B000AF0200BB1D1A800F23FB182A
:10759000254A52781A700E23FB18234A12781A7063
:1075A0000F23FB180F22BA18127801321A700F231A
:1075B000FB180F22BA1812783F210A401A700F23C5
:1075C000FB181B78184A5B00D3180433BA1D1288C5
:1075D0001A80154B0F22BA1812785A700F23FA1816
:1075E0000E23FB1812781B789A4219D10E23FB1830
:1075F0000E22BA18127801321A700E23FB180E22CE
:10760000BA1812783F210A401A70074B0E22BA1896
:1076100012781A70044B01229A700020034B98478D
:10762000C046BD4604B080BD743200200107020090
:1076300080B582B000AFFB1D154A12781A70144B4A
:107640005B78FA1D12789A421AD0FB1DFA1D127847
:1076500001321A70FB1DFA1D12783F210A401A7080
:10766000FB1D1A783B1D0A4952008A180432128801
:107670001A80074BFA1D12781A703B1D1B8803E015
:107680000020044B984700231800BD4602B080BD7F
:10769000743200200107020080B582B000AFFB1DEC
:1076A0003F221A70BB1D7F221A70FA1DBB1D127873
:1076B0001B785340DBB2402B02D02C200C4B984758
:1076C0007B1D0C4A52781A703B1D0A4A12781A70B8
:1076D0007A1D3B1D12781B78D31ADAB2FB1C3F21AE
:1076E0000A401A70FB1C1B781800BD4602B080BD12
:1076F000010702007432002080B500AF074B18006C
:10770000074B9847074B1800054B9847064B180046
:10771000034B9847C046BD4680BDC0462D7701004B
:10772000DD430200B97D01004177010080B500AF63
:10773000024B9847C046BD4680BDC046712202003C
:10774000F0B583B000AF6F4B984703007B607B6858
:10775000182B00DCD1E06C4B1B685A1C6A4B1A607A
:107760006A4B98476A4B98476A4B9847031E00D16B
:10777000C3E0694B1800694B9847694B1A68694B1D
:1077800011001800684B9847684B9847FB1C002273
:107790001A70674B1B68012B15D0022B5DD0002B94
:1077A00000D0AAE0FC1C634B984703002370FB1C2D
:1077B0001B78002B03D05E4B02221A609DE05C4BCD
:1077C00001221A6099E05C4B01221A605B4B002297
:1077D0001A605B4B984703001A0001235340DBB249
:1077E000002B1ED04E4B1A68564B100098470500D0
:1077F0000E00554B1A68534B10009847534C544A8F
:10780000544BA04703000C001A002300524C2800E0
:107810003100A047031E02D01920504B9847504B0F
:107820009847504B9847031E13D0414B02221A60D1
:10783000394B1800394B98474B4B18003A4B984737
:1078400001204A4B9847304B00221A600020434BDE
:107850009847474B00221A704FE0374B02221A60BC
:107860002F4B1A68374B1000984705000E00364B17
:107870001A68344B10009847344C3E4A3E4BA047A0
:1078800003000C001A0023003C4C28003100A047E4
:10789000031E02D01920314B9847314B9847384B83
:1078A0009847031E25D0254B1B685A1C234B1A6092
:1078B000224B1B680A2B1FDD1D4B01221A60002082
:1078C0002A4B9847144B1800144B98472D4B18001F
:1078D000154B9847104B1800104B98472A4B18002F
:1078E000114B9847224B01221A7019201B4B9847C5
:1078F00002E0124B00221A60C046C046BD4603B0EB
:10790000F0BDC04649660100B80B0020A57B010010
:10791000DD7C01009976010030220300590D03003F
:10792000B40B002034220300390C03008D790100D0
:10793000C00B0020A1130200C40B0020A00B0020EC
:107940009D7A0100710A03009C0B002029FE0200B1
:10795000666666666666EE3F09ED0200397C0100E8
:10796000ED7B0100357A01003C220300F1F00100BB
:10797000C80B0020CDCCCCCCCCCCF03F31ED0200FC
:10798000CD790100482203005822030080B582B05F
:1079900000AF0A4B984703007B607B68002B08DD33
:1079A0007B68074A934204DC064B7A681A60064BF0
:1079B0009847C046BD4602B080BDC0463176010042
:1079C0000F270000B00B0020B57C0100B0B500AF60
:1079D000104B1B681800104B984705000F4B1A6896
:1079E0000F4B100098470F4C0F4A104BA047030055
:1079F0000C00190022000E4B0800110098470300EC
:107A000001229D4201DB00231A1CD3B21800BD469F
:107A1000B0BDC046B00B0020A97E01009C0B002029
:107A2000710A030029FE0200666666666666EE3F1E
:107A3000050A0300B0B500AF104B1B681800104BCF
:107A4000984705000F4B1A680F4B100098470F4CD2
:107A50000F4A104BA04703000C00190022000E4BE8
:107A6000080011009847030001229D4201DC002319
:107A70001A1CD3B21800BD46B0BDC046B00B0020E2
:107A8000257F01009C0B0020710A030029FE0200E3
:107A90009A9999999999F13F050A030080B500AF29
:107AA000054B1B680122192B01DC00231A1CD3B2E1
:107AB0001800BD4680BDC046BC0B002080B500AF9D
:107AC000C046BD4680BDC04680B500AF074B18001C
:107AD000074B9847074B1800074B9847074B180070
:107AE000074B9847C046BD4680BDC04630220300C4
:107AF000590D030070220300390C030038010020E7
:107B00005173010080B500AF024B9847C046BD4697
:107B100080BDC046197B010080B582B000AF174B15
:107B20001800174B9847174B1800174B9847FB1D29
:107B300001221A70114B1800114B9847FB1D1A783F
:107B4000124B11001800104B9847114B1B78002B5B
:107B500006D1104B1B689BB218000F4B984709E0E9
:107B60000C4B1B689AB20D4B1B689BB2190010009E
:107B70000B4B9847C046BD4602B080BD3022030083
:107B8000590D030088220300390C030098220300DA
:107B9000910B00209C0B0020F9F20100B40B002097
:107BA0009DF3010080B500AF0A4B984703001A000F
:107BB000094B1A60094B984703001A00084B1A60DA
:107BC000084B984703001A00074B1A60C046BD4691
:107BD00080BDC046DD650100A40B00205167010097
:107BE000A80B002065680100AC0B002080B500AF39
:107BF0000C4B1B685A1C0B4B1A600B4B1A680B4B37
:107C00001B68D218084B1A60074B1A68054B196895
:107C1000074B1000984703001A00064B1A60C04635
:107C2000BD4680BD940B0020980B0020B40B0020B3
:107C3000D5EA02009C0B002080B582B000AF7860CE
:107C4000134B7A681A60134B1B687A685A43124BBD
:107C50001A607B68002B03D1104B00221A600AE0E7
:107C60000D4B1A680A4B19680D4B1000984703001A
:107C70001A000A4B1A600B4B18000B4B98470B4B22
:107C800018000B4B9847C046BD4602B080BDC046A9
:107C9000940B0020B40B0020980B00209C0B0020BC
:107CA000D5EA020030220300590D0300A822030088
:107CB000390C030080B500AF054B1B681800054B5D
:107CC00098470200044B1A60C046BD4680BDC046BE
:107CD000B00B0020057E0100B40B002090B583B0EE
:107CE00000AF2A4B1A68294B1B685343D9175A18FF
:107CF0004A40274B1968264B1B684B43D9175B1822
:107D00004B40D218234B1968224B1B684B43D917A1
:107D10005B184B40D218204B1000984703000C0012
:107D2000180021001D4B98471D4C00221D4BA047F9
:107D300003000C003B607C601B4B1A682C23FF3354
:107D40009A4214DC194B3868796898470300DA17AF
:107D50009B1853400A2B04DD154B1B685A1C144B0F
:107D60001A60114B1B685A1C0F4B1A6005E0104B30
:107D700000221A600C4B00221A600D4B1A680D4B42
:107D80001A60C046BD4603B090BDC046A40B00209B
:107D9000A80B0020AC0B0020710A0300ADB3020059
:107DA0001D03030000F88F40CC0B0020050A0300E0
:107DB000D00B0020BC0B002080B582B000AF0E4B72
:107DC0001B681B78DBB2012B0ED10B4B1B6800220A
:107DD0001A70094B1B689A68BB1D12881A80BB1D5C
:107DE0001B881800054B9847054B00221A70C046A7
:107DF000BD4602B080BDC046381400208175010028
:107E0000900B0020B0B584B000AF78601E4B78684E
:107E1000984703000C001D4A136054601B4B186800
:107E200059681B4B5C681B681A4D1A002300A84751
:107E300003000C0018002100174B5C681B68154DEF
:107E40001A002300A84703000C0018002100134C5F
:107E50000022134BA04703000C00BB60FC600C4BDE
:107E60005C681B680C4A13605460084B5C681B68B4
:107E7000074A136054600B4BB868F96898470300D1
:107E80001800BD4604B0B0BD710A0300D80B002035
:107E9000E00B002089EF0200E80B0020E1F5020072
:107EA00000000840050A030080B584B000AF786088
:107EB0000023FB60184B7A681A60174B1A68174B3F
:107EC0001B689A420DDD144B1A68154B1B689A42C9
:107ED00003DD114B1B68FB6010E0114B1B68FB605E
:107EE0000CE00E4B1A680E4B1B689A4203DD0B4BDD
:107EF0001B68FB6002E00A4B1B68FB60074B1A68BB
:107F0000074B1A60044B1A68044B1A60FB68180090
:107F1000BD4604B080BDC046F00B0020F40B00202D
:107F2000F80B002080B584B000AF78600023FB60C0
:107F3000184B7A681A60174B1A68174B1B689A42DD
:107F40000DDA144B1A68154B1B689A4203DA114B71
:107F50001B68FB6010E0114B1B68FB600CE00E4BD4
:107F60001A680E4B1B689A4203DA0B4B1B68FB60C6
:107F700002E00A4B1B68FB60074B1A68074B1A604C
:107F8000044B1A68044B1A60FB681800BD4604B025
:107F900080BDC046FC0B0020000C0020040C00201B
:107FA00080B500AFC046BD4680BDC04680B582B03A
:107FB00000AF154B1B697B60144B9B693B60124BF8
:107FC0009A683B681A43104B9A60104B104A9A61AA
:107FD00008E07B685A687B681B68180090477B68DC
:107FE0009B687B607B68002BF3D1074BDB683B60B1
:107FF000054B9B683A68D2431A40034B9A60C046CF
:10800000BD4602B080BDC0466001002000040042B1
:10801000FFFF0F0F80B582B000AF02003960FB1D7B
:108020001A70FB1D1B78012B0AD0022B0FD0002BDE
:1080300014D10E4B0D4A91693A680A439A610FE0D8
:108040000A4B0A4AD1693A680A43DA6108E0074BE9
:10805000064A116A3A680A431A6201E0172300E0EF
:1080600000231800BD4602B080BDC0460004004099
:1080700080B500AF02210220074B9847074B012231
:108080001A70C046054B1B78DBB21A00012313405F
:10809000F8D1C046BD4680BD1580010000040042F5
:1080A00080B582B000AF78607B6800221A70C0464D
:1080B000BD4602B080BDC04680B582B000AF0200B0
:1080C0003960FB1D1A70FB1D1B78012B0AD0022B97
:1080D0000FD0002B14D10E4B0D4A91693A680A4318
:1080E0009A610FE00A4B0A4AD1693A680A43DA6199
:1080F00008E0074B064A116A3A680A431A6201E02F
:10810000172300E000231800BD4602B080BDC04622
:108110000004004080B582B000AF78607B688022A8
:108120001A707B6800225A707B6801229A707B6803
:108130000022DA70C046BD4602B080BD80B582B074
:1081400000AF0200FB1D1A70064BFA1D12781100D9
:108150001F220A40012191400A001A60C046BD4614
:1081600002B080BD00E100E080B584B000AF020045
:10817000FB1D1A700F23FB18FA1D127852091A7092
:108180000F23FB181B78002B0CD1094BBB600F236E
:10819000FB181B789B0010229446BC446344083BA8
:1081A0001B6800E000231800BD4604B080BDC04637
:1081B0000018004080B582B000AF0F4B3B60002339
:1081C0007B6011E07B689B0008229446BC446344BA
:1081D000083B1B685B78DBB25BB2002B01DA012342
:1081E00006E07B6801337B607B68002BEAD00023CC
:1081F0001800BD4602B080BD0018004080B584B0B4
:1082000000AF2D4B7B60402100202C4B98473B005A
:1082100018002B4B98473B0002221A703B001900B4
:108220000520284B98470520274B98470023FB60E3
:1082300018E0FB689B0010229446BC4463440C3B4E
:108240001A68FB689B0010218C46BC4463440C3BBD
:108250001B681B78DBB201210B43DBB21370FB6898
:108260000133FB60FB68002BE3D0C046174B9847F7
:10827000031EFBD10B23FB1800221A700DE00B2309
:10828000FB181A78124B92000021D1500B23FB18D7
:108290001A780B23FB1801321A700B23FB181B787A
:1082A0000F2BECD904200B4B98470B4B9847C0463B
:1082B000BD4604B080BDC04600180040B980010032
:1082C000A1800100E16B0200256C0200B581010074
:1082D000F83200203D810100DD82010080B582B0CE
:1082E00000AF154B3B6000237B6018E07B689B0070
:1082F00008229446BC446344083B1A687B689B0090
:1083000008218C46BC446344083B1B681B78DBB2E5
:1083100002210B43DBB213707B6801337B607B6807
:10832000002BE3D0C046054B9847031EFBD1C04647
:10833000BD4602B080BDC04600180040B5810100B6
:1083400080B582B000AF78607B6800221A607B68DD
:1083500000225A607B6801221A727B6801225A72DD
:108360007B6800229A727B680222DA72C046BD46A0
:1083700002B080BD80B586B000AF02003960FB1D41
:108380001A700823FB181800364B98473B685B6847
:10839000DAB20823FB181A700823FB1800225A705F
:1083A0003B681A7A0823FB189A703B681B68DBB29B
:1083B0000822BA18110018002B4B9847FB1D1B7898
:1083C00018002A4B984703003B61FB1D1B780722CE
:1083D00013409B00FB603B68DB7A7B613B689B7AC8
:1083E000002B03D07B69082213437B61FB1D1B78A4
:1083F000DB08DBB21800FB1D1B78DB08DBB21A00C0
:108400003B6906329200D3580F21FA6891400A0066
:10841000D2431A407969FB6899400B001A43110056
:108420003B69821D9200D1503B685B7A002B0AD0D9
:108430003B695A69FB1D1B78012199400B001A43C7
:108440003B695A610AE03B695B69FA1D12780121B8
:1084500091400A00D2431A403B695A61C046BD466A
:1084600006B080BD15810100156F02006981010011
:1084700080B582B000AF074B7B607B681B7DDBB2B1
:108480001A00012313405A1E9341DBB21800BD4667
:1084900002B080BD0040004180B582B000AF020054
:1084A0003960FB1D1A70FB1D1B78012B0AD0022BB3
:1084B0000FD0002B14D10E4B0D4A91693A680A4334
:1084C0009A610FE00A4B0A4AD1693A680A43DA61B5
:1084D00008E0074B064A116A3A680A431A6201E04B
:1084E000172300E000231800BD4602B080BDC0463F
:1084F0000004004080B584B000AF78602F4BFB6073
:10850000042101202E4B9847FB682022FF321A835A
:108510002C4B984703001A0001235340DBB2002B79
:1085200001D0052345E07B681B781B021A00C0239D
:108530009B001A407B685B78DB011900FF230B402E
:108540001A437B689B785B0019001E230B401A437B
:108550007B68DB789B0419008023DB020B401A4305
:108560007B681B791B041900C0239B020B401A4334
:10857000FB685A60FB689B685B035B0FDBB21A0009
:10858000082393409AB2104B1A80FB689B689AB2FA
:108590000D4B5A807B685A780B4B1A71FB681B8B0A
:1085A0009BB21A0080235B00134001D0102300E02F
:1085B00000231800BD4604B080BDC0460040004105
:1085C0009984010071840100080C002080B586B0F8
:1085D00000AFB9607A600F23FB18021C1A703A4B87
:1085E0001B881A00384B5B885A43BB689A4209D2F1
:1085F000BB68364A934203D9BB68354A934201D9D6
:1086000018235CE0334B7B617B695B683B613B69B2
:108610008022D2021A437B695A607B692022FF3292
:108620001A832D4B984703001A0001235340DBB2F5
:10863000002B04D07B693A695A6005233FE00F2381
:10864000FB181B78452B1DD89A00244BD3181B68A8
:108650009F467B691B8B9BB21A0080235B001340F3
:1086600004D07B693A695A60102328E0BB689B08F4
:108670005A007B69DA610BE0BB689B085A007B6992
:10868000DA6105E07B693A695A60172317E0C04652
:108690000F23FB181B789BB2114A13439AB27B69D4
:1086A0001A80C0460C4B984703001A000123534020
:1086B000DBB2002BF6D17B693A695A6000231800BF
:1086C000BD4606B080BDC046080C0020FF3F8000BC
:1086D0000060800000400041718401000823030015
:1086E00000A5FFFF80B588B000AFF860B960BB1D82
:1086F0001A804A4B1B881A00484B5B885A43FB6818
:108700009A4201D2182384E0444B1B88013B1A0093
:10871000FB68134001D018237BE0404B1B88BA1D37
:1087200012889A4201D9172373E03D4B7B613D4B80
:10873000984703001A0001235340DBB2002B01D0FD
:10874000052366E07B69384A1A80C046354B984756
:1087500003001A0001235340DBB2002BF6D17B69E2
:108760002022FF321A83FB685B08FB611A23FB1887
:1087700000221A8032E01A23FB181B88BA68D3182B
:108780001A781823FB181A801A23FB181A88BB1DA5
:108790001B88013B9A4211DA1A23FB181B8801330C
:1087A000BA68D3181B781B021AB21823FB180021D1
:1087B0005B5E13431AB21823FB181A80FB695A1C1C
:1087C000FA615B001A001823FB181B8813801A2318
:1087D000FB181A22BA18128802321A801A23FA18C1
:1087E000BB1D12881B889A42C5D30C4B1B790122F2
:1087F0005340DBB2002B0BD0BB1D1B883F2B07D88F
:10880000FB68002219000420084B9847030000E091
:1088100000231800BD4608B080BDC046080C0020EB
:10882000004000417184010044A5FFFFCD85010097
:1088300080B588B000AFF860B960BB1D1A80384BB6
:108840001B881A00364B5B885A43FB689A4201D258
:10885000182360E0324B1B88013B1A00FB68134071
:1088600001D0182357E02E4B1B88BA1D12889A425C
:1088700001D917234FE02B4B7B612B4B984703000B
:108880001A0001235340DBB2002B01D0052342E044
:108890007B692022FF321A83FB685B08FB611A2385
:1088A000FB1800221A802EE0FB695A1CFA615B005B
:1088B0001A001223FB1812881A801A23FB181B882F
:1088C000BA68D3181222BA181288D2B21A701A23B0
:1088D000FB181A88BB1D1B88013B9A420CDA1A232D
:1088E000FB181B880133BA68D3181222BA181288F1
:1088F000120A92B2D2B21A701A23FB181A22BA18AC
:10890000128802321A801A23FA18BB1D12881B889B
:108910009A42C9D300231800BD4608B080BDC046A6
:10892000080C0020004000417184010080B584B033
:1089300000AF78601E4B1B881A001D4B5B885A43A2
:108940007B689A4201D218232DE0194B1B889B00AB
:10895000013B1A007B68134001D0182323E0154B1C
:10896000FB60154B984703001A0001235340DBB20C
:10897000002B01D0052316E0FB682022FF321A836A
:108980007B689B085A00FB68DA61FB680B4A1A8017
:10899000C046094B984703001A0001235340DBB23D
:1089A000002BF6D100231800BD4604B080BDC046A0
:1089B000080C0020004000417184010002A5FFFF67
:1089C00080B586B000AF78602A4B7B617B6920223E
:1089D000FF321A837B699B683B613B691B0C072252
:1089E000134008229A401300DAB27B681A703B6980
:1089F0009AB27B685A80204B1B889BB21A00702366
:108A000013401A090E23FB181A800E23FB181B882B
:108A1000072B03D17B6800225A600AE00E23FB1863
:108A20001B880622D31A04229A4013001A007B687E
:108A30005A60114B1B889AB20C23FB1807210A407D
:108A40001A800C23FB181B88072B03D17B6800229C
:108A50009A600AE00C23FB181B880722D31A042211
:108A60009A4013001A007B689A60C046BD4606B063
:108A700080BDC046004000410040800080B582B00B
:108A800000AF78607B6800221A70C046BD4602B015
:108A900080BDC04680B582B000AF02003960FB1DCA
:108AA0001A70FB1D1B78012B0AD0022B0FD0002B54
:108AB00014D10E4B0D4A91693A680A439A610FE04E
:108AC0000A4B0A4AD1693A680A43DA6108E0074B5F
:108AD000064A116A3A680A431A6201E0172300E065
:108AE00000231800BD4602B080BDC046000400400F
:108AF00080B582B000AF0200FB1D1A70064BFA1D54
:108B0000127811001F220A40012191400A001A60C8
:108B1000C046BD4602B080BD00E100E080B582B035
:108B200000AF0200FB1D1A70074AFB1D1B781900DD
:108B30001F230B40012199400B0019008023D150C5
:108B4000C046BD4602B080BD00E100E080B584B003
:108B500000AF78607B681B68FB60FB689B7ADBB2C8
:108B60005BB2002B01DA012300E000231800BD46B0
:108B700004B080BD80B584B000AF78607B681B68AE
:108B8000FB6003200A4B9847C0467B681800094BDE
:108B90009847031EF9D1FB681B889BB2022213433E
:108BA0009AB2FB681A80C046BD4604B080BDC0467C
:108BB000F18A01004D8B010080B584B000AF786070
:108BC0007B681B68FB6003200A4B9847C0467B68A4
:108BD0001800094B9847031EF9D1FB681B889BB20C
:108BE000022293439AB2FB681A80C046BD4604B085
:108BF00080BDC0461D8B01004D8B010080B584B047
:108C000000AF78607B681B68FB607B6818000D4BC9
:108C100098477B6800229A827B680022DA82C046ED
:108C20007B681800084B9847031EF9D1FB681B8826
:108C30009BB2012213439AB2FB681A80C046BD461C
:108C400004B080BDB98B01004D8B010080B584B0AC
:108C500000AF786039607B681B68BB603B681A882E
:108C6000BB681A803B689B78002B3AD0012B00D060
:108C70006CE0BB681B889AB2BB681A803B68DB78E3
:108C8000002B07D0BB681B889BB2802213439AB28B
:108C9000BB681A800F23FB1800221A701BE0C04625
:108CA0007B681800334B9847031EF9D10F23FB183C
:108CB0001A783B6802329200D1580F23FB181A78B9
:108CC0007B6818002C4B98470F23FB181A780F234A
:108CD000FB1801321A700F23FB181B78002BDED013
:108CE00036E0BB681B889BB2042213439AB2BB6870
:108CF0001A803B68DB78002B01D0172336E00E2367
:108D0000FB1800221A701BE0C0467B681800194B44
:108D10009847031EF9D10E23FB181A783B680232DC
:108D20009200D1580E23FB181A787B681800124B5A
:108D300098470E23FB181A780E23FB1801321A707D
:108D40000E23FB181B78012BDED901E017230DE061
:108D50003B681B79002B08D0BB685B889BB28022E4
:108D6000D20113439AB2BB685A8000231800BD4653
:108D700004B080BD4D8B0100D58E010080B586B05A
:108D800000AFF860B9607A60FB68BA681A602021A9
:108D90000020174B98471423FB181800154B9847D1
:108DA0001423FB1802221A701423FB181900042044
:108DB000114B98470420114B9847FB681800104B43
:108DC00098477B689A78FB681A717B681A79FB6808
:108DD0005A710C4BFA681A607A68FB681100180027
:108DE000094B984703001800BD4606B080BDC04639
:108DF000958A01007D8A0100E16B0200256C02006A
:108E0000FD8B0100383300204D8C010080B584B00B
:108E100000AF786039607B681B68FB60C0467B6888
:108E20001800104B9847031EF9D17B681B79002B63
:108E300005D0012B0ED1FB683A681A610CE03B6843
:108E4000094A934201D9172307E03B689AB2FB68AD
:108E50001A8201E0172300E000231800BD4604B089
:108E600080BDC0464D8B0100FFFF000080B584B07F
:108E700000AF78607B681B68BB607B685B79012210
:108E80005340DBB2002B09D0BB68104A5A80C04661
:108E90007B6818000E4B9847031EF9D17B681B793D
:108EA000002B05D0012B08D1BB681B69FB6007E0D4
:108EB000BB681B8A9BB2FB6002E00023FB60C046DC
:108EC000FB681800BD4604B080BDC0460080FFFFAF
:108ED0004D8B010080B586B000AFF860B960FB1D16
:108EE0001A70FB681B687B61C046FB6818001A4B50
:108EF0009847031EF9D1FB681B79002B0FD0012B7B
:108F000022D1FB1D1B78012B01D917231FE0FB1D6C
:108F10001A787B6906329200B968D15016E0FB1DC1
:108F20001B78022B01D9172311E0BB680B4A93422F
:108F300001D917230BE0FB1D1A78BB6899B27B6936
:108F40000C325200D15201E01A2300E00023180035
:108F5000BD4606B080BDC0464D8B0100FFFF00003E
:108F600080B586B000AFF860B960FB1D1A7017239A
:108F7000FB1800221A70FB1D1B78022B04D117234B
:108F8000FB1800221A701FE0FB681B79002B0AD027
:108F9000012B11D1FB1D1B78012B12D91723FB18B4
:108FA00017221A700DE0FB1D1B78022B0BD917231B
:108FB000FB1817221A7006E01723FB1817221A70E5
:108FC00002E0C04600E0C0461723FB181B78002BC8
:108FD00015D1FB1D1A78FB6802329200B968D15096
:108FE000FB689B8A9BB21AB2FB1D1B78012199403A
:108FF0000B001BB213431BB29AB2FB689A82172371
:10900000FB181B781800BD4606B080BD80B584B043
:1090100000AF78600A00FB1C1A707B681B68FB605D
:10902000FB1C1B78022B03D1FB688022DA710AE05B
:10903000FB1C1B7801229A401300DBB20322134071
:10904000DAB2FB68DA717B68DB8A9BB21AB2FB1C6E
:109050001B78012199400B001BB213431BB29AB23B
:109060007B68DA82C046BD4604B080BD80B586B05C
:1090700000AF7860314B7A689200D3587B617B698E
:109080001B683B610E23FB187A69D28A1A807B69C0
:109090009B8A9AB20E23FB180E21791809880A4080
:1090A0001A803B691B7ADAB20C23FB181A803B69E1
:1090B000DB79DBB29AB20C23FB180C2179180988F2
:1090C0000A401A800C23FB181B88802213400CD006
:1090D0000E23FB181B880422134002D07B691B69F6
:1090E00098473B6980221A7224E00C23FB181B88E6
:1090F000012213400CD00E23FB181B8801221340C1
:1091000002D07B699B6898473B6901221A7211E083
:109110000C23FB181B88022213400BD00E23FB18D4
:109120001B880222134002D07B69DB6898473B69A9
:1091300002221A72C046BD4606B080BD38330020F8
:1091400080B500AF0020024B9847C046BD4680BDA9
:109150006D90010080B582B000AF78607B6800221E
:109160001A70C046BD4602B080BDC04680B582B010
:1091700000AF02003960FB1D1A70FB1D1B78012B2C
:109180000AD0022B0FD0002B14D10E4B0D4A91693F
:109190003A680A439A610FE00A4B0A4AD1693A6871
:1091A0000A43DA6108E0074B064A116A3A680A4343
:1091B0001A6201E0172300E000231800BD4602B048
:1091C00080BDC0460004004080B582B000AF78602A
:1091D0007B6880221A707B6800225A707B680122AB
:1091E0009A707B680022DA70C046BD4602B080BD2E
:1091F00080B500AF054B9B78DBB21A000223134009
:109200005A1E9341DBB21800BD4680BD00200041CC
:10921000F0B595B000AFF860B96000237B63002320
:10922000BB6400237B643B2308229446BC44634414
:1092300000221A70FB681B683B63FB681B68FB62BB
:1092400023230822BA18D418FB6A1800DB4B98476E
:10925000030023700C2308229446BC446344180086
:10926000D74B9847BB68DB69FB63BB681B6ABB6372
:10927000FB6B002B06D1FB6A00211800D14B9847ED
:109280000300FB63FB6BDAB20C2308218C46BC4461
:1092900063441A700C2308229446BC44634402229F
:1092A0005A70FB6B1B0CDBB20C2208218C46BC44B1
:1092B000624411001800C44B9847BB6B002B06D1C9
:1092C000FB6A01211800BF4B98470300BB63BB6BCF
:1092D000DAB20C2308218C46BC4463441A700C2378
:1092E00008229446BC44634402225A70BB6B1B0C98
:1092F000DBB20C2208218C46BC44624411001800E9
:10930000B14B9847BB689A8AFB68DA80BB68DA8AF7
:10931000FB681A81BB681B7E002B03D1AB4B9847BF
:10932000031E02D08023FB6401E00023FB64BB68C2
:109330001B69002B04D0BB681B69FA6C1343FB64E8
:10934000BB689B68FA6C1343FB64BB6824229B5C7C
:10935000002B04D0FB6C8022D2051343FB64BB6856
:109360009B6A002B04D0BB689B6AFA6C1343FB64B6
:10937000BB682C229B5C002B05D1BB689A688023BC
:109380009B049A4204D1FB6C802212051343FB64B8
:10939000BB682D229B5C002B04D0FB6C8022120446
:1093A0001343FB64BB682E229B5C002B04D0FB6C38
:1093B0008022D2031343FB643B6B1A68FB6C1A4395
:1093C0003B6B1A603B6B802252005A6023230822B9
:1093D0009446BC4463441B781433DBB218007C4BC6
:1093E000984703007B62BB681B68FA2292005343D4
:1093F0003B62BB685B68FA2292005343FB61BB6827
:109400001B8EBB61734B786A984705000E00714B49
:10941000386A9847386079607B6ABA695A436D4BFD
:10942000100098476C4C6D4A6D4BA04703000C0030
:10943000180021006B4C00226B4BA04703000C006E
:109440001A002300644C38687968A04703000C00B8
:109450001A002300654C28003100A04703000C00CF
:109460001D0026003B6A5A005A4B10009847020024
:109470000B005C4C28003100A04703000C001800D2
:1094800021005A4C00225A4BA04703000C001D003B
:1094900026003B6A5A004F4B1000984702000B0011
:1094A000544C28003100A04703000C001900220092
:1094B000514B08001100984703007B63BB689A6812
:1094C00080239B049A4245D1424B786A9847454C89
:1094D00002000B00A04703000C001D0026003D4BBE
:1094E000F86998473C4C0022444BA04703000C000D
:1094F0001A0023003F4C28003100A04703000C0055
:1095000018002100394C0022394BA04703000C0001
:1095100019002200384B08001100984703007B64B3
:109520007B6C002B09D0364BF969786A98470300A9
:109530009A1E7B6CD31ABB640CE0FB695A007B6AF1
:10954000D3185A1EFB6959002D4B10009847030091
:10955000013BBB647B6BFF2B08DC7B6B002B05DBCB
:10956000BB6CFF2B02DCBB6C002B06DA3B23082212
:109570009446BC44634440221A703B23082294461C
:10958000BC4463441B78402B0ED07B6BFF221A40F7
:10959000BB6C1B041900FF231B040B4013437A6CA4
:1095A00012061A433B6BDA603B2308229446BC4404
:1095B00063441B781800BD4615B0F0BDCD3A0200DB
:1095C000C991010011390200156F0200F1910100EB
:1095D0004D6D0200F50A030029FE020095D626E82B
:1095E0000B2E113E89EF0200000024401D030300F2
:1095F0000000F03FE1F50200050A0300000008400A
:10960000C1E9020090B58BB000AFF860B9607A6034
:10961000FB68BA681A60FB681B687B62FB681B68A2
:1096200018003B4B984703003B623B6A0233FB61E7
:109630003B6A1433BB610122FB699A401300190095
:109640000220344B98471423FB181800324B9847DC
:109650007B681A7B1423FB181A70BB69DBB21422D7
:10966000BA18110018002D4B9847BB69DBB21800DF
:109670002B4B98477B681B7B00211800294B984790
:109680007B6A1B680222134001D01C233BE07B6AEB
:109690001B680122134001D0052334E0FB681B68DE
:1096A0001722BC1818001A4B9847030023701E4A53
:1096B0001723FB181B78110018001C4B9847172321
:1096C000FB181A781A4B9200F968D150FB680022F7
:1096D0001A76FB6800225A76FB6800225A83FB68E0
:1096E00000229A83FB68252200219954FB680022FE
:1096F0001A627B6A14221A607A68FB6811001800EB
:109700000C4B984703001800BD460BB090BDC046F7
:10971000CD3A02006D91010055910100E16B02000C
:10972000256C0200853802000D9E0100313B0200CD
:109730006C3C00201192010080B584B000AF7860CD
:109740007B681B68FB60FB681B7EDBB21A00022390
:1097500013400BD0FB6802221A76FB685B8B9BB22E
:109760001A000223134011D0412310E0FB685B8BE9
:109770009BB21A000423134008D0FB685B68C02228
:1097800092021A43FB685A60182300E00023180075
:10979000BD4604B080BDC04680B584B000AF7860DF
:1097A0007B681B68BB600E23FB1800221A800FE049
:1097B0000E23FB180E22BA18128801321A807B6819
:1097C0001B890E22BA1812889A4201D312230EE086
:1097D000BB681B7EDBB21A000123134006D1BB68B5
:1097E0001B7EDBB21A0002231340E1D000231800D5
:1097F000BD4604B080BDC04690B585B000AF78606E
:109800000A00FB1C1A707B681B68FB60FB685B68C6
:109810008022D2021A43FB685A60FB1C1A78FB684C
:109820005A620B23FC187B681800074B984703000B
:109830002370FB6801221A760B23FB181B78180093
:10984000BD4605B090BDC0469997010080B584B073
:1098500000AF78607B681B68FB60FB68DB690722F0
:1098600013405A1E9341DBB21800BD4604B080BDC0
:1098700080B582B000AF7860C0467B681800044BAA
:109880009847031EF9D1C046BD4602B080BDC04610
:109890004D98010080B584B000AF78607B681B688C
:1098A000FB60FB681B681B01DB0FDBB21A000B239C
:1098B000FB18511E8A411A700823FB187A68528BD4
:1098C0001A807B689B8B9AB20823FB1808217918B1
:1098D00009888A1A1A807B689B8B9BB2013B9AB2DB
:1098E0007B689A830B23FB181B78002B10D07B68B6
:1098F000DB7A002B1CD07B689B8B9BB2012B17D192
:10990000FB685B688022D2021A43FB685A600FE052
:109910007B68DB7A002B0BD07B689B8B9BB2002B88
:1099200006D1FB685B688022D2021A43FB685A604A
:109930007B689B8B9BB2002B0ED17B689B7A002BA4
:109940000AD07B6818000E4B9847FB685B68C02202
:1099500092021A43FB685A607B681800084B9847CC
:109960007B681A6A0823FB181B88D318FA68282119
:10997000525CD2B21A70C046BD4604B080BDC0462B
:109980007198010080B584B000AF78607B681B6877
:10999000FB60FB685B8B9BB21A000423134004D06E
:1099A0007B6825221E21995424E00A23FB187A683B
:1099B000528B1A807B689B8B9AB20A23FB180A2170
:1099C000791809888A1A1A807B689B8B9BB2013BA5
:1099D0009AB27B689A837B681800084B98477B682B
:1099E0001A6A0A23FB181B88D3181B78D9B2FB68A4
:1099F00028229954BD4604B080BDC046719801002C
:109A000080B584B000AF78607B681B68FB60FB6842
:109A10001B7EDBB21A00012313402BD0FB6801220E
:109A20001A76FB685B8B9BB21A000223134004D0AA
:109A30007B682522412199541CE0FB685B8B9BB21B
:109A40001A000423134015D07B682522182199544D
:109A50007B6800229A837B689B7A002B0AD07B6804
:109A60001800134B9847FB685B68C02292021A43A8
:109A7000FB685A607B689B8B9AB27B685A837B68D1
:109A800025229B5CDBB2052B0ED17B6824229B5CDC
:109A9000DBB2002B04D17B681800064B984703E02B
:109AA0007B681800044B9847C046BD4604B080BD93
:109AB00071980100859901009598010080B584B0E6
:109AC00000AFF860B960FB1D1A70FB1D1B78FA68C7
:109AD00002339B00D3180433BA681A60FB681B7EFC
:109AE000DBB25AB2FB1D1B78012199400B005BB21F
:109AF00013435BB2DAB2FB681A76C046BD4604B0C7
:109B000080BDC04680B582B000AF78600A00FB1C03
:109B10001A70FB1C1B787A6802339B00D31804333D
:109B200000221A607B681B7EDBB25BB2FA1C1278E3
:109B3000012191400A0052B2D24352B213405BB2AB
:109B4000DAB27B681A76C046BD4602B080BDC04618
:109B500090B587B000AF786039607B681B683B6167
:109B60003B685A687B681A623B685A887B689A83AC
:109B70007B682422012199547B6825220521995470
:109B80003B691B681B01DB0FDBB21A000F23FB18BC
:109B9000511E8A411A703B685B7A002B06D03B68E5
:109BA0009A7A7B68110018003B4B98470F23FB18EB
:109BB0001B78002B0BD03B685B88012B07D13B69DE
:109BC0005B688022D2021A433B695A6005E03B6918
:109BD0005B68324A1A403B695A603B681B7A002B2B
:109BE00045D03B681B885A003B685B7A9B03134354
:109BF0001A0080231B021A433B695A621723FC1880
:109C00007B681800264B9847030023703B695B680C
:109C1000224A1A403B695A601723FB181B78002B15
:109C200007D11723FC187B6818001E4B98470300C8
:109C300023701723FB181B78002B14D13B690322D8
:109C40009A753B681B881B0A9BB2782213439BB210
:109C50005A003B685B7A9B031343012213431A00AB
:109C60003B695A6212E01723FB181B780FE03B692F
:109C700003229A753B681B885B0001221A433B68EC
:109C80005B7A9B0313431A003B695A620023180056
:109C9000BD4607B090BDC046F9970100FFFFFBFF2E
:109CA000999701003997010080B582B000AF7860C4
:109CB00039607B689B8B9BB2002B01D005230CE0A5
:109CC0007B6801229A727B680122DA723A687B68AB
:109CD00011001800034B984703001800BD4602B05E
:109CE00080BDC046519B010080B584B000AF786054
:109CF00039607B681B68FB603B685B7A002B06D091
:109D00003B689A7A7B68110018001E4B9847FB68E5
:109D10005B681D4A1A40FB685A603B685A687B685A
:109D20001A623B685A887B689A837B6824220021E8
:109D300099547B68252205219954FB6803229A7562
:109D40003B681B7A002B0DD03B681B885A003B6890
:109D50005B7A9B0313431A0080231B021A43FB68A0
:109D60005A6209E03B681B885A003B685B7A9B0398
:109D700013431A00FB685A6200231800BD4604B062
:109D800080BDC046F9970100FFFFFBFF80B582B0A0
:109D900000AF786039607B689B8B9BB2002B01D051
:109DA00005230CE07B6801229A727B680122DA723B
:109DB0003A687B6811001800034B984703001800AD
:109DC000BD4602B080BDC046E99C010080B582B0AE
:109DD00000AF786039607B689B8B9BB2002B01D011
:109DE00005230CE07B6800229A727B680122DA72FC
:109DF0003A687B6811001800034B9847030018006D
:109E0000BD4602B080BDC046E99C010080B586B069
:109E100000AF0200FB1D1A70FB1D1A78934B9200D5
:109E2000D3587B617B691B683B613B691B681B01E5
:109E3000DB0FDBB21A000F23FB18511E8A411A7088
:109E40000E23FB187A69527E1A707B691B7EDAB288
:109E50000E23FB180E21791809780A401A707B69C5
:109E60005B8B9BB2002B09D17B699B8B9BB2002B38
:109E700004D07B6918007E4B984770E07B695B8B50
:109E80009BB2002B39D07B699B8B9BB2002B34D1CA
:109E90007B6925229B5CDBB2052B2ED17B692422BA
:109EA0009B5CDBB2002B28D13B6903221A757B69CE
:109EB00000225A837B692522002199547B699B7A71
:109EC000002B0BD07B6918006A4B98473B695B6895
:109ED000C02292021A433B695A6002E03B690122A8
:109EE0001A760E23FB181B780122134037D07B69AA
:109EF000DB687A691000984731E07B695B8B9BB225
:109F0000002B2CD07B699B8B9BB2002B27D03B690D
:109F10005B8B9BB21A002023134011D10F23FB1837
:109F20001B7801225340DBB2002B04D17B699B8B51
:109F30009BB2012B04D07B692522412199540EE06C
:109F40007B6924229B5CDBB2002B04D17B69180067
:109F5000494B984703E07B691800484B98477B6959
:109F60005B8B9BB2002B47D07B699B8B9BB2002BFA
:109F700042D17B6925229B5CDBB2052B3CD17B69FE
:109F800024229B5CDBB2012B36D13B691B7EDBB20A
:109F90001A000223134002D03B6902221A763B6961
:109FA00003221A757B6900225A837B6925220021CE
:109FB00099540E23FB181B78022213400BD07B69A7
:109FC00024229B5CDBB2012B05D17B691B697A697A
:109FD0001000984710E00E23FB181B780122134055
:109FE0000AD07B6924229B5CDBB2002B04D17B6905
:109FF000DB687A69100098477B6925229B5CDBB29D
:10A00000052B2ED07B6925229B5CDBB2002B28D050
:10A010003B6903221A757B6900225A837B690022FF
:10A020009A837B6925229B5CDBB2412B0ED07B6936
:10A030009B7A002B0AD07B6918000E4B98473B692E
:10A040005B68E022D2021A433B695A600E23FB1878
:10A050001B780422134004D07B695B697A69100085
:10A060009847C046BD4606B080BDC0466C3C002047
:10A07000019A0100719801008599010095980100ED
:10A0800080B582B000AF78607B6800221A70C0464D
:10A09000BD4602B080BDC04680B582B000AF0200B0
:10A0A0003960FB1D1A70FB1D1B78012B0AD0022B97
:10A0B0000FD0002B14D10E4B0D4A91693A680A4318
:10A0C0009A610FE00A4B0A4AD1693A680A43DA6199
:10A0D00008E0074B064A116A3A680A431A6201E02F
:10A0E000172300E000231800BD4602B080BDC04623
:10A0F0000004004080B582B000AF78607B688022A9
:10A100001A707B6800225A707B6801229A707B6803
:10A110000022DA70C046BD4602B080BD80B584B072
:10A1200000AF78607B681B68FB60FB68DB7BDBB2A1
:10A130001A00802313405A1E9341DBB21800BD461B
:10A1400004B080BD80B584B000AF78607B681B68C8
:10A15000FB60C0467B681800074B9847031EF9D187
:10A16000FB681B889BB2022293439AB2FB681A8059
:10A17000C046BD4604B080BD1DA1010090B587B0AA
:10A1800000AF78600823FB180D4A13CA13C30023DD
:10A190007B610DE00823FB187A699200D2587B6836
:10A1A0009A4202D17B69DBB206E07B6901337B61B5
:10A1B0007B69022BEED900231800BD4607B090BD85
:10A1C0002024030090B58DB000AFF860B9607A60CC
:10A1D0002E23FB1800221A802D23FB1800221A7050
:10A1E0002C23FB1800221A702923FC18BB681800C6
:10A1F000BF4B9847030023702423FA18BD4B10006F
:10A20000190003231A00BC4B98471C23FA18BB4BB8
:10A210001000190006231A00B74B98472B23FB1890
:10A2200000221A700EE02B23FB181A78FB6802320A
:10A2300092000021D1502B23FB181A782B23FB18F6
:10A2400001321A702B23FB181B78032BEBD9FB6808
:10A2500000221A76FB6800225A762923FB181A7806
:10A26000A74B9200F968D150FB68BA681A607B6806
:10A270009B78082B08D12923FB181B780333012274
:10A28000134001D01723C4E17B689A78FB681A71E8
:10A29000BB681B889BB21A000123134001D0052321
:10A2A000B7E1BB68DB7BDBB21A001023134001D09F
:10A2B0001C23AEE1BB681B889BB21A00022313402B
:10A2C00001D01C23A5E17B681B7C002B17D0182331
:10A2D000FB1818008B4B98477B689B69DAB21823F0
:10A2E000FB181A701823FB1801225A707B685B69EF
:10A2F000DBB21822BA1811001800834B98477B680C
:10A300001B7F002B17D01823FB1818007D4B984794
:10A310007B685B6ADAB21823FB181A701823FB18E3
:10A3200001225A707B681B6ADBB21822BA1811002E
:10A330001800754B98472923FB181A781C23FB1823
:10A340005200D35A19000220704B98477B689B78C3
:10A35000082B0BD12923FB181B785A1C1C23FB1834
:10A360005200D35A19000220684B98471423FB1857
:10A370001800674B98477B681A781423FB181A70EB
:10A380002923FB181B782422BA18D35C1422BA188C
:10A39000110018005F4B98472923FB181B782422D3
:10A3A000BA18D35C18005C4B98477B689A787B6836
:10A3B0009B791343DBB29AB27B681B89134399B232
:10A3C0007B689A882E23FB180A431A807B685B7887
:10A3D000002B08D02E23FB182E22BA1812888021B9
:10A3E00009010A431A80C046FB6818004B4B984786
:10A3F000031EF9D1BB682E22BA1812881A807B6816
:10A400005B7B002B03D02D23FB1804221A707B6882
:10A410009B7B002B07D02D23FB182D22BA18127816
:10A4200001210A431A70C046FB6818003B4B98474D
:10A43000031EF9D1BB68FF221A712D23FB181B786C
:10A44000002B0BD0C046FB681800344B9847031E06
:10A45000F9D1BB682D22BA1812785A712C23FB1837
:10A460007A68927A1A702A23FB1800221A701CE06C
:10A470002A23FB181B787A68D318DB7A002B0DD0BF
:10A480002A23FB181B7810229A401300D9B22C23E0
:10A49000FB182C22BA1812780A431A702A23FB18C8
:10A4A0001A782A23FB1801321A702A23FB181B780A
:10A4B000012BDDD9C046FB681800184B9847031ED6
:10A4C000F9D1BB682C22BA1812789A71C046FB6881
:10A4D0001800124B9847031EF9D1FB681B79042B17
:10A4E0001ED0082B00D170E0002B4BD090E0C0466E
:10A4F0007DA101002C240300170C0300302403006D
:10A50000603C0020F5A00100156F020099A0010039
:10A5100081A00100E16B0200256C02001DA1010079
:10A52000C046FB6818003D4B9847031EF9D17B6875
:10A5300028229A5CBB681A74C046FB681800374B27
:10A540009847031EF9D17B6829229A5CBB681A756B
:10A55000C046FB681800314B9847031EF9D17B6851
:10A560002A229A5CBB681A76C046FB6818002B4BFF
:10A570009847031EF9D17B682B229A5CBB685A76F8
:10A58000002346E0C046FB681800244B9847031E92
:10A59000F9D17B681A8DBB681A82C046FB68180027
:10A5A0001E4B9847031EF9D17B685A8DBB681A83EE
:10A5B000C046FB681800194B9847031EF9D17B6809
:10A5C0009A8DBB685A83002323E0C046FB681800BD
:10A5D000124B9847031EF9D17B689A6ABB681A61CF
:10A5E000C046FB6818000D4B9847031EF9D17B68E5
:10A5F000DA6ABB689A61C046FB681800074B984747
:10A60000031EF9D17B681A6BBB68DA61002300E096
:10A6100017231800BD460DB090BDC0461DA1010016
:10A6200080B584B000AF786039607B681B68FB60E0
:10A63000C0467B681800114B9847031EF9D17B6810
:10A640001B79042B04D0082B0ED0002B06D010E071
:10A650003B68DAB2FB681A7400230BE03B689AB2DD
:10A66000FB681A82002305E0FB683A681A61002340
:10A6700000E017231800BD4604B080BD1DA10100F5
:10A6800080B584B000AF78607B681B68FB60FB68B6
:10A69000DB7BDBB21A001023134001D015231AE034
:10A6A000FB681B889BB21A00022313400AD07B6808
:10A6B00018000B4B9847C0467B681800094B984719
:10A6C000031EF9D1FB681B889BB2012213439AB287
:10A6D000FB681A8000231800BD4604B080BDC04648
